:100000000C94E3000C94C8180C94EF180C940B019A
:100010000C940B010C940B010C94FD010C940B013E
:100020000C940B010C940B010C940B010C94841197
:100030000C940B010C940B010C940B010C940B0110
:100040000C9417190C940B010C94161C0C94481C5E
:100050000C940B010C940B010C940B010C940B01F0
:100060000C940B010C940B01005EBCE2613FDD833C
:10007000C29C7E20A3FD1F419DC3217FFCA2401E88
:100080005F01E3BD3E6082DC237D9FC1421CFEA078
:10009000E1BF5D0380DE3C62BEE0025CDF81633D68
:1000A0007C22C09E1D43A1FF4618FAA427799BC558
:1000B00084DA3866E5BB5907DB856739BAE4065848
:1000C0001947A5FB7826C49A653BD987045AB8E638
:1000D000A7F91B45C6987A24F8A6441A99C7257B28
:1000E0003A6486D85B05E7B98CD2306EEDB3510F18
:1000F0004E10F2AC2F7193CD114FADF3702ECC9208
:10010000D38D6F31B2EC0E50AFF1134DCE90722CF7
:100110006D33D18F0C52B0EE326C8ED0530DEFB1E7
:10012000F0AE4C1291CF2D73CA947628ABF51749D7
:100130000856B4EA6937D58B5709EBB536688AD4C7
:1001400095CB2977F4AA4816E9B7550B88D6346AB7
:100150002B7597C94A14F6A8742AC896154BA9F7A7
:10016000B6E80A54D7896B35000000080002010088
:100170000003040700000000000000000102040862
:100180001020408001020408102001020408102001
:10019000040404040404040402020202020203032D
:1001A00003030303000000002300260029000000D1
:1001B0000000250028002B0000000000240027007C
:1001C0002A00FC10781C11241FBECFEFD8E0DEBF40
:1001D000CDBF11E0A0E0B1E0E6E7F1E402C0059098
:1001E0000D92A63EB107D9F724E0A6EEB1E001C01A
:1001F0001D92A635B207E1F711E0C6ECD1E004C0CC
:100200002297FE010E940320C23CD107C9F70E9439
:10021000E8100C94B9200C940000EF92FF920F9319
:10022000FC01809176038183628346830583277076
:100230008481807F822B98E0E99E700111248E29B1
:100240008F7E8483CF010F91FF90EF90089580916E
:1002500083038460809383038091840380788093F8
:100260008403E0917403F0917503309709F00994C9
:100270000895E3E8F3E08081877F8F7E808310928A
:100280007F0310928003109281031092820343E057
:1002900050E060E070E086E793E00C94872062E035
:1002A00083E00E94391A61E083E00E94721A109282
:1002B0002E0210922F0210923002109231021092F0
:1002C0003B0210923C0210923D0210923E0242E02C
:1002D00050E06EE871E081E00E94A81861E086E0DD
:1002E0000E94391A2CE030E080915C0190915D0110
:1002F000281B390B8EEE92E002C0959587952A95C2
:10030000E2F790935B0180935A018FE093E00E94A3
:10031000051560E08FE093E00C946B158F929F922F
:10032000AF92BF92CF92DF92EF92FF920E946D192F
:100330004B015C018091370290913802A091390203
:10034000B0913A0275016401C81AD90AEA0AFB0A97
:1003500081F10E94611960931E0270931F028093C5
:1003600020029093210280E4C81682E4D8068FE030
:10037000E806F104C8F1C701B6010E94581E9B01AE
:10038000AC0160EC71EE84E69CE40E94BF1D2091FC
:100390000C0130910D0140910E0150910F010E940E
:1003A000BF1D6093330270933402809335029093A3
:1003B00036028092370290923802A0923902B092AF
:1003C0003A0280913B0290913C02A0913D02B09193
:1003D0003E020196A11DB11D80933B0290933C0209
:1003E000A0933D02B0933E02FF90EF90DF90CF903C
:1003F000BF90AF909F908F9008951F920F920FB66D
:100400000F9211240F900FBE0F901F901895FC01B2
:1004100085818F50833010F481E0089580E0089545
:100420002091790330917A032817390751F02091F0
:1004300083032F712093830390937A03809379032E
:1004400005C080918303805E80938303E0917903EC
:10045000F0917A030190F081E02D309709F0099531
:100460000E94611960937B0370937C0380937D03EA
:1004700090937E030895809184038F70863020F0DE
:1004800084E891E00C94100208950F931F930E944A
:10049000611900917B0310917C0320917D033091C1
:1004A0007E03601B710B820B930B1F910F910895BC
:1004B0000E944502613D77408105910520F48091BD
:1004C000830381FF0895809177038F3F81F08091AE
:1004D00083038E7F8093830380E090E0892B21F05B
:1004E00085E090E00E94000080E891E011C08091DA
:1004F0008303803618F484E891E00AC080E090E03D
:10050000892B21F088E690E00E94000084E791E0CA
:100510000C941002809176038F3F59F080E090E0B8
:10052000892B21F087E090E00E9400008CE791E0A9
:1005300018C00E944502613D77408105910598F001
:1005400080918303803618F480E891E00AC080E04F
:1005500090E0892B21F089E690E00E94000084E77A
:1005600091E00C9410020895809185038F3FA1F0D3
:100570000E94611960937F037093800380938103CD
:1005800090938203809185039091780389138093DF
:10059000780388E791E01BC00E944502613D7740E7
:1005A00081059105B0F080918303803618F48CE7C3
:1005B00091E00DC0877F8093830380E090E0892BDA
:1005C00021F08AE690E00E94000084E891E00C941B
:1005D00010020895E0917903F0917A030280F3818B
:1005E000E02D309709F00994089590918403907755
:1005F00081E0903709F080E00895CF92DF92EF928A
:10060000FF920E9445026B017C010E94F502882343
:1006100029F080E69AEEA0E0B0E004C080E197E225
:10062000A0E0B0E08C159D05AE05BF0540F488E85C
:1006300091E0FF90EF90DF90CF900C941002FF902C
:10064000EF90DF90CF900895E3E8F3E081818F7819
:10065000818310927A031092790388E891E00C94D8
:1006600010028EBD00000DB407FEFDCF8EB50895BB
:10067000BF92CF92DF92EF92FF920F931F93CF938F
:10068000DF93C82F8B01C42EB22E8091880388235C
:1006900099F03FB7F89480918803813059F48DB375
:1006A000809386038DB390918703909598239DBB8B
:1006B0003FBF02C03093860381E58CBD81E08DBDD4
:1006C0002A988AE090E00E94CA198C2F0E94310378
:1006D000D82EE801CC20B9F0BB2051F08FEF0E945A
:1006E0003103D82E0115110561F08883219609C0C8
:1006F0007E018FEFE81AF80A88810E943103D82E14
:10070000E701CA94E7CF2A9A80918803882361F091
:100710009FB7F8942091880380918603213019F4C3
:100720008DBB9FBF01C08FBF8AE090E00E94CA19B5
:100730008D2DDF91CF911F910F91FF90EF90DF9062
:10074000CF90BF900895CF93DF931F92CDB7DEB7C0
:10075000698320E041E0BE016F5F7F4F0E94380354
:100760000F90DF91CF91089529986CE080E20C946E
:10077000A30390918403892F8077803759F0892FC4
:1007800082958F708F5F87708295807F9F78982B7E
:1007900090938403809183038B7F8F7E8093830368
:1007A00080E090E0892B21F087E690E00E94000035
:1007B0000C94B4036FE080E20E94A30360916E0189
:1007C0006F3F19F08AE20E94A303299A089521E05D
:1007D00041E060E070E00C943803CF9386E00E9423
:1007E000E703C82F85E00E94E70391E0883709F00E
:1007F00090E081E0C73209F080E08923CF9108952D
:1008000020E040E060E070E00C943803EF92FF924B
:100810001F93CF93DF931F92CDB7DEB7182F7B01C5
:10082000299882E890E049830E94CA196EE080E22C
:100830000E94A30384E690E00E94CA19612F8AE215
:100840000E94A303612F80E30E94A30381EE0E9414
:10085000000449811F3F11F480EB01C080EA20E0D1
:10086000B7010E943803299AE12CF12C8FEF0E94E6
:100870000004182F807321F481E0E81AF108B1F721
:10088000299860E387E20E94A30314FF03C081EE6E
:100890000E9400040E94DA0315FB882780F90F905C
:1008A000DF91CF911F91FF90EF9008950F931F93C9
:1008B000CF93DF93082FEB018091760388831B8110
:1008C00012FD05C0169516951695195F01C010E228
:1008D00020E030E0232B21F080E090E00E94000037
:1008E000412F113208F040E2BE01802F0E94060421
:1008F00091E00F3F09F090E0892BDF91CF911F919C
:100900000F910895CF93BC01FC01828190918303E4
:1009100090FF03C08F3F49F505C08F3F19F0C0918C
:10092000770301C0CFEF8C2F0E945604909177037C
:10093000C9131CC0811112C080E090E0892B21F006
:1009400085E690E00E9400008091840391E0980F7A
:100950009F70807F892B8093840307C080918403DC
:10096000807F8093840381E001C080E0CF9108956F
:100970002091830322FD0C94820480E008951F934C
:10098000CF93DF93EC0121E041E060E070E080E68E
:100990000E943803182F813220F082EE0E9400045A
:1009A00010E021E0412FBE0181E60E94380360E49F
:1009B00087E20E94A303812FDF91CF911F910895B9
:1009C000CF93219A229A0E944E1129982A9A6EE07A
:1009D00080E20E94A30365E070E080E090E00E9466
:1009E000901963E083E20E94A3036FE584E20E9412
:1009F000A30368E785E20E94A30367E286E20E9400
:100A0000A30363E780E50E94A30366E08DE30E94F1
:100A1000A3030E94ED03C82F882371F162E082E2F4
:100A20000E94A30360E081E20E94A30363E08CE3E1
:100A30000E94A3038FEF80936F0120E045E06FE6F3
:100A400071E08BE20E94380320E045E06FE671E040
:100A50008AE20E94380320E045E06FE671E080E31F
:100A60000E94380382EE0E94000481EE0E9400047E
:100A700060E787E20E94A3038C2FCF9108958F3FF8
:100A800051F080936E0163E082E20E94A30361E073
:100A900081E20E94A3030C94DA03CF93DF931F92A9
:100AA000CDB7DEB7682F8FEF860F8E3F68F4609367
:100AB0007603862F69830E943F05698180E090E07C
:100AC0000E94A72081E00CC080E090E0892B21F0FB
:100AD0008EE690E00E9400008FEF8093760380E026
:100AE0000F90DF91CF9108950E94E00481110BC017
:100AF00080E090E0892B21F087E690E00E940000E2
:100B000084E791E017C08091830380618093830321
:100B100086E68093760366E680E090E00E94A72058
:100B2000809176038F3F21F00E944D05882341F389
:100B300084E891E00C941002CF93DF93FC011082C3
:100B4000118212821382148215821682DC0117969A
:100B50008AE1ED0119928A95E9F783818C7F8260A1
:100B60008383DF91CF910895FC01248122952695FE
:100B70002770213011F487810895211104C0079650
:100B80000E941620089580E008950E94B40591E027
:100B9000811101C090E0892F0895FC0124812295E4
:100BA00026952770253029F4678170858185928587
:100BB0000895211103C007960C94342060E070E082
:100BC000CB010895FC0124812295269527702230BF
:100BD00019F4878190850895211103C007960C941C
:100BE000162080E090E008951F93CF93DF93EC01EF
:100BF0001E811A30A1F564E070E087EA92E00E945D
:100C0000DA1281E08093A2028C8184FF06C060E941
:100C100071E089EB93E00E94FD1C8D818330A1F48B
:100C2000CE010E94E2058430910514F083E090E04B
:100C300028E2289FB001299F700D11246E5C7F4F20
:100C400087EA92E00E9421130E9461196093A30237
:100C50007093A4028093A5029093A6025FC01B30FC
:100C600019F58D81883109F059C0CE010E94CD055A
:100C700060933B0270933C0280933D0290933E024E
:100C800010922A0210922B0210922C0210922D0226
:100C900010923302109234021092350210923602F2
:100CA00081E0809332023AC0113081F48D8182302C
:100CB000A9F5CE010E94C50580930702682F612720
:100CC00086E0DF91CF911F910C94721A1636E1F4F1
:100CD0008D818C3119F5CE010E94C505882359F00C
:100CE0000E94611960930A0270930B0280930C02B8
:100CF00090930D0213C010920A0210920B021092F0
:100D00000C0210920D020AC0111108C08D818831A9
:100D100029F4CE010E94C5058093CB02DF91CF91CB
:100D20001F9108950F931F93CF93DF93EC016115EB
:100D3000710561F0FB0101900020E9F73197E61B96
:100D4000F70BE931F10518F0E9E101C0E0E00E2F01
:100D500010E0C801A3E0880F991FAA95E1F79B81D5
:100D60009770982B9B838C818F718C83EE2329F055
:100D7000A801CE0107960E945B20FE01E00FF11F43
:100D80001782CE01DF91CF911F910F910895EF92BD
:100D90000F9380E090E0892B21F084E090E00E94A6
:100DA000000080918303897F8160809383038FEFAC
:100DB0008093780380937703E12C07E023E04FEFE3
:100DC0006FEF82E393E00E940D0168ED71E00E94F5
:100DD00092060F91EF900C948204EF920F93809102
:100DE00076038F3FC9F480E090E0892B21F086E004
:100DF00090E00E940000E12C03E023E04FEF60E070
:100E000082E393E00E940D0168ED71E00E9492067A
:100E10000F91EF900C9482040F91EF900895FC01D4
:100E2000838187708860838384818F7180628483EB
:100E30006783CF010895FC01838187708860838375
:100E400084818F71806284836783CF010895EF92DC
:100E50000F9380E090E0892B21F088E090E00E94E1
:100E600000008FEF809385038091830388608093D7
:100E70008303E12C08E123E04FEF60E082E393E09D
:100E80000E940D0161E00E941B070F91EF900C94EE
:100E90008204FC0183818770886283838481806EF1
:100EA000848347835087618772872387CF010895A2
:100EB000FC0184818F71806A848383818770806262
:100EC00083834783508761877287CF010895FC0130
:100ED00084818F7180648483838187708061838340
:100EE00070876783CF0108950C94B804209176032E
:100EF000FC0121832481207F2160F8E06F9FB001F5
:100F00001124262BFC0124832091310320FD0C9415
:100F1000B80480E008958F929F92AF92BF92EF92B3
:100F20000F93E82E0E9445024B015C0106E123E08D
:100F30004FEF60E082E393E00E940D01B501A40150
:100F40000E9458070F91EF90BF90AF909F908F90A5
:100F50000C94B804EF920F93CF93DF938F3F19F463
:100F6000C1EAD1E001C0EA01E22E062F20E0482FBD
:100F700060E082E393E00E940D01BE010E949206B0
:100F8000DF91CF910F91EF900C94B804CF92DF9244
:100F9000EF92FF920F931F93CF93DF936C01EB01BE
:100FA000F42E009781F0E42E0BE023E04FEF60E099
:100FB00082E393E00E940D01B6010E9492060E9416
:100FC000B804182F01C011E0209779F0EF2C0CE045
:100FD00023E04FEF60E082E393E00E940D01BE0149
:100FE0000E9492060E94B8041823812FDF91CF91AE
:100FF0001F910F91FF90EF90DF90CF900895EF92A7
:101000000F93942FE12C062F22E0482F692F82E3C3
:1010100093E00E940D0168ED71E00E9492060F912D
:10102000EF900C94B80440E063E08AE00E94FF0770
:1010300040E068E18BE00E94FF0740E068E186E65F
:101040000E94FF0740E069E186E60E94FF0740E05A
:101050006AE186E60E94FF0740E06BE186E60E94B7
:10106000FF0740E068E180E00E94FF070E946119ED
:1010700060930E0270930F028093100290931102FE
:1010800060931202709313028093140290931502DE
:1010900060931602709317028093180290931902BE
:1010A00060931A0270931B0280931C0290931D029E
:1010B00060931E0270931F0280932002909321027E
:1010C000609322027093230280932402909325025E
:1010D0000895A8950C9416190E9469080C945D0B4C
:1010E0008F929F92AF92BF92CF92DF92EF92FF9238
:1010F0006B017C010E9461194B015C010E94611926
:10110000681979098A099B096C157D058E059F056B
:1011100018F40E946C08F2CFFF90EF90DF90CF9010
:10112000BF90AF909F908F9008951F93CF93DF93C0
:1011300040E067EA71E08CEA91E00E94C60720E097
:1011400048ED51E065E08AE00E94AA0720E048ED02
:1011500051E065E18BE00E94AA0720E048ED51E0F4
:1011600063E081E00E94AA0720E048ED51E067E1DA
:1011700086E60E94AA0720E048ED51E067E180E0A2
:101180000E94AA07CAE1D1E014E120E048ED51E055
:1011900066E0812F0E94AA0740915C01BE018FE0AA
:1011A00093E00E948F1464E170E080E090E00E9480
:1011B00070081F5F28961C3141F7DF91CF911F9176
:1011C00008956F927F928F929F92AF92BF92CF922B
:1011D000DF92EF92FF92CF93DF934B015C01C42F1C
:1011E000622E0E9461196B017C0181E0611080E038
:1011F00080935803712CD0E00E9461196C197D090D
:101200008E099F09681579058A059B0590F4711070
:1012100010C00E946C0840915703477050E04C1773
:101220005D0751F7809158038611E6CF77247394B8
:10123000E3CF872DDF91CF91FF90EF90DF90CF909C
:10124000BF90AF909F908F907F906F900895EF9296
:101250000F931F93CF93DF93EC01162FE12C0FE038
:1012600023E04FEF0E940D0168ED71E00E949206AD
:101270008B81877080618B838C818F71806C8C8374
:1012800081E08F831886CE010E94B80411110DC031
:101290002FE043E060ED77E080E090E0DF91CF91D8
:1012A0001F910F91EF900C94E108DF91CF911F9166
:1012B0000F91EF900895EF920F93CF9380E090E01D
:1012C000892B21F089E090E00E9400008091310399
:1012D000816080933103C4E0E12C0AE123E04FEF09
:1012E00060E082E393E00E940D0162E00E941B0730
:1012F0000E9474072BE143E060ED77E080E090E02E
:101300000E94E108811102C0C15031F7CF910F91C5
:10131000EF900895EF920F93CF9380E090E0892BA8
:1013200021F08CE090E00E94000060E082E393E016
:101330000E94270920E048ED51E061E18FEF0E9413
:10134000AA07C0917703E12C06E023E04FEF60E0AD
:1013500082E393E00E940D016C2F0E941B070E9404
:10136000740726E043E060ED77E080E090E00E94C3
:10137000E10885E998E0892B29F0CF910F91EF9052
:101380000C949508CF910F91EF90089580913103BF
:1013900081FD09C00E948A090E945B098091310386
:1013A0008260809331030895909158038091540393
:1013B00081115FC09D30A1F480E090E0892B21F085
:1013C0008BE090E00E94000028E088E190E00FB6FA
:1013D000F894A895809360000FBE20936000FFCF23
:1013E0009B3199F483E593E00E94C5059091310308
:1013F00080FB90F99093310380E090E0892B89F194
:101400008AE090E00E9400002CC0963099F4909100
:101410005A0381E0992319F09D3409F080E080930C
:10142000300341E050E063E071E080E393E00E942C
:10143000972017C0933119F40E948A0912C0923183
:1014400021F480E00E948B070CC0913061F480E0B1
:1014500090E0892B31F083E593E00E94CD050E9456
:10146000000081E008959A30E1F381E09C3121F49D
:1014700004C081E09A3109F080E00895EF920F9363
:101480001F93CF93DF9380E090E0892B21F081E0E0
:1014900090E00E94000083E593E00E94BF04409129
:1014A0005603942F9695969596959A3108F099E162
:1014B00042FD03C037E0390F01C030E260915703AD
:1014C000C0915803D0915403209153035091550378
:1014D000831741F080E090E0892B09F4D6C08CE6B8
:1014E00090E00BC0842F8370823071F080E090E038
:1014F000892B09F4CAC08DE690E0DF91CF911F914E
:101500000F91EF900C940000162F177080918403B8
:1015100080688093840380917603581384C0892F58
:1015200090E09C01B3E0220F331FBA95E1F74770BA
:10153000422B40935603FC01ED5AFC4F178263FF88
:1015400017C081E2E3E5F3E0A2E3B3E001900D927E
:101550008A95E1F780913603877F80618093360317
:1015600050933303D093340382E393E00E94B80492
:101570008091570384FD4AC0133009F047C083E5CA
:1015800093E00E940702811180C0C43009F47DC03D
:10159000C830D9F4C0918303C0FF77C083E593E0DE
:1015A0000E94B4058F3F09F470C08F5F8F3F09F42C
:1015B0006CC090917803891708F067C0C1FD65C0C1
:1015C00080937803D093770360C0C83159F4E12C3D
:1015D00009E123E04FEF6D2F82E393E00E940D01BC
:1015E00061E046C0C93171F48091830383FF4DC02F
:1015F000877F8093830383E593E00E94B405809303
:10160000850343C00E94D40981113FC084EF95E057
:10161000892BD9F183E593E0DF91CF911F910F9151
:10162000EF900C94F4055F3F81F5133051F58091F4
:10163000830382FF02C0C73041F1C83031F1C431A9
:1016400021F580917703281320C00E9461197370DF
:10165000882799270E949019C0917703E12C05E112
:1016600023E04FEF6D2F82E393E00E940D016C2F7A
:101670000E941B07DF91CF911F910F91EF900C9467
:10168000820480917703281709F2DF91CF911F918F
:101690000F91EF900895CF938091830384FF0BC047
:1016A000C6E087E10E94E70380FD05C0C15019F044
:1016B0000E943E0AF6CFCF9108950E94EA020C9450
:1016C0004B0B8F929F92AF92BF92CF92DF92EF928D
:1016D000FF92CF93DF931F92CDB7DEB76B017C01F2
:1016E0000E9461194B015C010E9461196819790916
:1016F0008A099B096C157D058E059F0538F0C1147C
:10170000D104E104F10411F080E00DC00E945D0BF2
:101710008091830382FB882780F989830E9469086E
:101720008981882309F30F90DF91CF91FF90EF908B
:10173000DF90CF90BF90AF909F908F900895A89525
:1017400080E090E0892B11F00E94000026E040E04C
:1017500052EC61E070E089EB93E00E94B41B809151
:1017600031038D7F809331038FE491E0892B11F059
:101770000E944F0141E050E063E071E080E393E0BC
:101780000E9487206FEF81E090E00E94A7200E94D6
:10179000240386EC99E0909375038093740360E0D2
:1017A00070E0CB010E94610B83E198E0892B11F07E
:1017B0000E941308A8950895CF93DF93EC0164E08D
:1017C00070E087EA92E00E94DA1281E08093A20240
:1017D00088E28C9FB0018D9F700D11246E5C7F4F4D
:1017E00087EA92E00E942113BE018AEA92E00E94F9
:1017F000670761E00E9476070E9461196093A30267
:101800007093A4028093A5029093A602DF91CF91DA
:1018100008957F928F929F92AF92BF92CF92DF9264
:10182000EF92FF920F931F93CF93DF938091A202C9
:101830008823A1F00E9461190091A3021091A402D3
:101840002091A5023091A602601B710B820B930BB5
:10185000653873408105910508F06FC40E946119D5
:101860006B017C018091220290912302A0912402BD
:10187000B0912502B701A601481B590B6A0B7B0BDF
:101880008091100190911101A0911201B09113016A
:1018900084179507A607B70708F0CDC0C0922202AB
:1018A000D0922302E0922402F0922502609133024A
:1018B00070913402809135029091360220912A0273
:1018C00030912B0240912C0250912D020E94BB1DA1
:1018D000882381F18091330290913402A0913502E6
:1018E000B091360280932A0290932B02A0932C028F
:1018F000B0932D02609133027091340280913502D1
:101900009091360220E030E048EC52E40E94BB1D8A
:1019100087FF10C04091330250913402609135022C
:101920007091360222E081E892E00E94490760E06F
:101930000E94760780911E0290911F02A0912002C2
:10194000B0912102C81AD90AEA0AFB0A81ECC8162A
:1019500084EDD80681E0E806F10440F010923302ED
:1019600010923402109235021092360240913B02DE
:1019700050913C0260913D0270913E0280912E0296
:1019800090912F02A0913002B0913102481759076F
:101990006A077B0709F44FC080913B0290913C029B
:1019A000A0913D02B0913E0280932E0290932F02AF
:1019B000A0933002B093310240913B0250913C021F
:1019C00060913D0270913E028FE392E00E945807C1
:1019D00060E00E94760760913B0270913C0280912A
:1019E0003D0290913E020E94581E20E030E048ECFB
:1019F00052E40E94BF1D6B017C01209126023091B0
:101A0000270240912802509129020E94BB1D882381
:101A100091F0C0922602D0922702E0922802F09222
:101A2000290223E0B701A60180E692E00E9449075F
:101A300060E00E9476070E9461194B015C01809171
:101A40001A0290911B02A0911C02B0911D02B501D7
:101A5000A401481B590B6A0B7B0B80916601909186
:101A60006701A0916801B091690184179507A607E5
:101A7000B70708F010C18FE093E00E94EC15609169
:101A80005A0170915B01882777FD8095982F0E94FD
:101A9000700880913003609118017091190193E0F2
:101AA000660F771F9A95E1F7665E7E4F882329F0CF
:101AB0008FE093E00E947D1604C08FE093E00E94C7
:101AC0009E1620E030E040E251E40E940E1F0E948A
:101AD000271E882777FD8095982F0E945A1E20E0A8
:101AE00030E040E251E40E94BF1D6B017C0186E0C2
:101AF0000E94A81A892B09F443C000911801109183
:101B00001901F801EE0FFF1FEE0FFF1FE151FD4F0E
:101B10002DEC3CEC4CE45EE3608171818281938129
:101B20000E94571DA70196010E94BB1D87FF28C078
:101B300020E030E04EEF52ECC701B6010E94BB1D21
:101B40008823F1F0C0911601D0911701CC0FDD1F51
:101B5000CC0FDD1FC151DD4F60910A0170910B0167
:101B6000882777FD8095982F0E945A1E9B01AC0113
:101B7000688179818A819B810E94BB1D87FDE4C2B7
:101B8000E0911801F0911901EE0FFF1FEE0FFF1FFA
:101B9000E151FD4FC082D182E282F38280921A022B
:101BA00090921B02A0921C02B0921D028091300301
:101BB0006091CC027091CD02C3E0660F771FCA9589
:101BC000E1F7665E7E4F882329F08FE093E00E9464
:101BD0007D1604C08FE093E00E949E1620E030E066
:101BE00040E251E40E940E1F0E94271E882777FDC5
:101BF0008095982F0E945A1E20E030E040E251E488
:101C00000E94BF1D6B017C01809104019091050130
:101C100003979CF520E030E04EEF52ECC701B6018F
:101C20000E94BB1D882349F1609108017091090150
:101C3000882777FD8095982F0E945A1E9B01AC0142
:101C4000C701B6010E940A1F1816BCF48091CC028D
:101C50008C5E8093D40221E0B701A6018EEC92E065
:101C60000E94490760E00E94760783E090E090932D
:101C70000501809304010E94DC0BE091CC02F091FD
:101C8000CD02EE0FFF1FEE0FFF1FE151FD4FC0828F
:101C9000D182E282F3820E9461194B015C01809142
:101CA000160290911702A0911802B0911902B50185
:101CB000A401481B590B6A0B7B0B80916201909128
:101CC0006301A0916401B091650184179507A6078F
:101CD000B70708F063C080913003609116017091DE
:101CE0001701E3E0660F771FEA95E1F7665E7E4F26
:101CF000882329F08FE093E00E947D1604C08FE0D6
:101D000093E00E949E1620E030E040E251E40E9401
:101D10000E1F0E94271E882777FD8095982F0E940E
:101D20005A1E20E030E040E251E40E94BF1D6B01EA
:101D30007C0186E00E94A81A0197D1F060910A0107
:101D400070910B01882777FD8095982F0E945A1E6D
:101D5000A70196010E94BB1D87FF0AC020E030E06A
:101D60004EEF52ECC701B6010E94BB1D811106C2A5
:101D7000E0911601F0911701EE0FFF1FEE0FFF1F0C
:101D8000E151FD4FC082D182E282F382809216023D
:101D900090921702A0921802B09219020E94611943
:101DA0004B015C0180910A0290910B02A0910C0200
:101DB000B0910D02B501A401481B590B6A0B7B0BB6
:101DC00080915E0190915F01A0916001B0916101ED
:101DD00084179507A607B70708F02CC18091CB029E
:101DE000882309F427C18091300360911401709118
:101DF000150143E0660F771F4A95E1F7665E7E4F57
:101E0000882329F08FE093E00E947D1604C08FE0C4
:101E100093E00E949E1620E030E040E251E40E94F0
:101E20000E1F0E94271E882777FD8095982F0E94FD
:101E30005A1E20E030E040E251E40E94BF1D6B01D9
:101E40007C010091040110910501033011053CF55E
:101E50006091080270910902882777FD8095982F7C
:101E60000E945A1E20E030E040E05FE30E94561DD1
:101E7000A70196010E940A1F18166CF420E030E0BA
:101E80004EEF52ECC701B6010E94BB1D882319F02A
:101E900083E090E0A4C00230110509F45EC06091B7
:101EA000060170910701882777FD8095982F0E9481
:101EB0005A1E20E030E040E05FE30E94561DA7017B
:101EC00096010E940A1F18160CF043C06091080288
:101ED00070910902882777FD8095982F0E945A1EDD
:101EE00020E030E040E05FE30E94571DA70196012B
:101EF0000E94BB1D87FF2DC0C091CC02D091CD02A6
:101F0000CC0FDD1FCC0FDD1FC151DD4F60910801EB
:101F10007091090165507109882777FD8095982F88
:101F20000E945A1E9B01AC01688179818A819B8144
:101F30000E94BB1D87FF0DC020E030E04EEF52EC49
:101F4000C701B6010E94BB1D882319F082E090E012
:101F500046C0023011050CF46DC06091060170910D
:101F60000701882777FD8095982F0E945A1E20E050
:101F700030E040E05FE30E94571DA70196010E94F8
:101F8000BB1D87FF57C0C091CC02D091CD02CC0FB2
:101F9000DD1FCC0FDD1FC151DD4F60910801709135
:101FA000090165507109882777FD8095982F0E9457
:101FB0005A1E9B01AC01688179818A819B810E94B4
:101FC000BB1D87FF37C020E030E04EEF52ECC70169
:101FD000B6010E94BB1D882369F181E090E09093D7
:101FE0000501809304010E94DC0B809114018C5E3A
:101FF0008093D40221E0B701A6018EEC92E00E940A
:10200000490760E00E947607E0911401F091150104
:10201000EE0FFF1FEE0FFF1FE151FD4FC082D18277
:10202000E282F38280920A0290920B02A0920C024A
:10203000B0920D020E9461194B015C0180910E0269
:1020400090910F02A0911002B0911102B501A4016C
:10205000481B590B6A0B7B0B80916A0190916B01B5
:10206000A0916C01B0916D0184179507A607B70781
:1020700008F0A0C00FEE12E0CAE1D1E084E1782EB2
:1020800080913003BE01882329F08FE093E00E9405
:102090007D1604C08FE093E00E949E1620E030E0A1
:1020A00040E251E40E940E1F0E94271E882777FD00
:1020B0008095982F0E945A1E20E030E040E251E4C3
:1020C0000E94BF1D6B017C0120E030E04EEF52EC1E
:1020D0000E94BB1D882309F120E030E04AEA52E467
:1020E000C701B6010E94BB1D8823B9F07092D402CB
:1020F00021E0B701A6018EEC92E00E94490760E062
:102100000E947607F801C082D182E282F38268E2FF
:1021100070E080E090E00E94700873940C5F1F4FA5
:102120002896FCE17F12ACCF80920E0290920F02B3
:10213000A0921002B09211023DC087EA92E00E9484
:10214000E0121092A2028ACB0C5E0093D40221E02E
:10215000B701A6018EEC92E00E94490760E00E9460
:10216000760760E086E00E94721A61E086EE91E0F8
:102170000E940F0761E00E94760702CD8091160150
:102180008C5E8093D40221E0B701A6018EEC92E030
:102190000E94490760E00E94760761E086E00E94A5
:1021A000721A60E086EE91E00E940F0761E00E94E3
:1021B0007607DECDDF91CF911F910F91FF90EF90C9
:1021C000DF90CF90BF90AF909F908F907F900895B9
:1021D0000E94D5190E949F0BC9E0DCE00EEF1AE1C6
:1021E0000E946C08209711F00E94090C011511053E
:1021F000B9F30E94FE1AF4CFCF9383E593E00E94D7
:102200009C0582E393E00E949C0565E082E293E0F6
:102210000E94DB1762E273E08FE093E00E94871375
:102220008EEC92E00E949C051092D4021092D30290
:102230008AEA92E00E949C058AE08093B00283E0E3
:102240008093AF0287EA92E00E94401281E892E018
:102250000E949C05CBE0C093870282E280938602B5
:1022600080E692E00E949C05C093660283E2809320
:1022700065028FE392E00E949C05C093450288E1CD
:102280008093440286EE91E00E949C0581E0809359
:10229000EC0182E08093EB01CF910895CF93CFB70B
:1022A000F89480918903811127C0EAE9F1E08491D3
:1022B000E6E8F1E09491E82FF0E0EE0FFF1FE8541C
:1022C000FE4FA591B4918C91892321F461E08AE0BD
:1022D0000E94721A61E08AE00E94391A8CB580610E
:1022E0008CBD8CB580648CBD61E08DE00E94391A94
:1022F00061E08BE00E94391A809189038F5F80939F
:102300008903CFBFCF9108951F920F920FB60F92FE
:1023100011242F933F934F935F936F937F938F93EA
:102320009F93AF93BF93EF93FF9380918B0387FFAE
:1023300005C010928500109284001AC020918B0372
:10234000332727FD309580918A0390E028173907BD
:102350007CF480918B03992787FD9095FC01EE0F0B
:10236000FF1FE80FF91FE457FC4F808186FD15C061
:1023700080918B038F5F80938B0320918B03332796
:1023800027FD309580918A0390E028173907BCF427
:1023900080918B038C305CF112C080918B03992764
:1023A00087FD9095FC01EE0FFF1FE80FF91FE45722
:1023B000FC4F808160E08F730E94721AD9CF8091A8
:1023C000840090918500049680349C4918F480E440
:1023D0009CE905C0809184009091850004969093BB
:1023E0008900809388008FEF80938B0338C0209101
:1023F00084003091850080918B03992787FD90950B
:10240000FC01EE0FFF1FE80FF91FE457FC4F81811D
:102410009281820F931F909389008093880080910E
:102420008B03992787FD9095FC01EE0FFF1FE80FA6
:10243000F91FE457FC4F808186FF11C080918B0308
:10244000992787FD9095FC01EE0FFF1FE80FF91FFC
:10245000E457FC4F808161E08F730E94721AFF91F4
:10246000EF91BF91AF919F918F917F916F915F910C
:102470004F913F912F910F900FBE0F901F90189585
:1024800020918A032C30A0F431E0320F30938A037C
:10249000FC012083822F90E0FC01EE0FFF1FE80F6C
:1024A000F91FE457FC4F88EB9BE0928381830895EA
:1024B0002FEFFC0120830895DF92EF92FF920F939C
:1024C0001F93CF93DF93EC01D62E7A018901888187
:1024D0008C3008F066C061E08D2D0E94391A888129
:1024E000A82FB0E0FD01EE0FFF1FEA0FFB1FE4571E
:1024F000FC4F2D2D2F739081907C922B908360E266
:1025000072E06E197F0977FF02C06D5F7F4F75958E
:10251000679575956795698340E659E0401B510BB7
:1025200057FF02C04D5F5F4F5595479555954795AD
:102530004A836CE00E94811F9CE0899FB0011124B6
:1025400020E030E0A901460F571FFA01EE0FFF1FF0
:10255000E40FF51FE457FC4F908196FD16C02F5FE6
:102560003F4F2C30310571F781110FC01092800060
:1025700082E0809381001092850010928400B19ACD
:1025800080916F00826080936F00888190E0FC01F1
:10259000EE0FFF1FE80FF91FE457FC4F80818064A6
:1025A00080838881DF91CF911F910F91FF90EF90F1
:1025B000DF90089520E639E040E252E00C945C128E
:1025C000FC01808190E0FC01EE0FFF1FE80FF91F76
:1025D000E457FC4F80818F7B80830895FC018081CC
:1025E0008C3070F5918128E830E0291B310997FD86
:1025F0003395220F331F220F331F621773077CF0AE
:10260000928128E532E0291B310997FD3395220F8D
:10261000331F220F331F621773070CF49B012250E4
:102620003109220F331F4FB7F89490E0FC01EE0FF1
:10263000FF1FE80FF91FE457FC4F328321834FBF80
:1026400008954F925F926F927F92AF92BF92CF9216
:10265000DF92EF92FF920F931F93CF93DF93EC01E2
:10266000603282E078070CF040C077FD06C0653B21
:1026700071052CF064EB70E002C060E070E08981CD
:1026800028E830E0281B310987FD3395220F331FDE
:10269000220F331F5901CC24B7FCC094DC2C8827AF
:1026A00077FD8095982F2A8148E552E0421B510919
:1026B00027FD5395440F551F440F551F2A016624CB
:1026C00057FC6094762C7F926F925F924F9214EB3E
:1026D000E12EF12C00E010E020E030E0A9010E94A2
:1026E0000F1D0F900F900F900F90CE01DF91CF91A3
:1026F0001F910F91FF90EF90DF90CF90BF90AF9020
:102700007F906F905F904F900C94EE120895FC01B3
:1027100086E893E1928B818B7683658314821082A5
:1027200089E0818381E0828383830895CF93DF935F
:10273000EB0167E0CE010E949B1891E02F8182138C
:1027400090E0892FDF91CF910895CF92DF92EF92A1
:10275000FF920F931F93CF93DF9300D0CDB7DEB7D7
:102760006C01F42EE52EFC018581968169837A83C4
:102770000E94A21669817A81882311F1F601858170
:1027800096810E949D1740E06EEBF601858196814F
:102790000E943F170F2D1E2D89E0F82EF60185812E
:1027A00096810E948117F80181938F01FA94B1F705
:1027B000F601858196810E94A21691E0813009F090
:1027C00090E0892F0F900F90DF91CF911F910F9183
:1027D000FF90EF90DF90CF900895CF93DF93EA01C1
:1027E0000E94A513882351F068E0CE010E949B1837
:1027F00091E02885821390E0892F01C080E0DF916D
:10280000CF910895EF92FF920F931F93CF93DF9391
:10281000EC018B017A018D819E810E94A216B80184
:102820008D819E810E949D1740E06EE48D819E8186
:102830000E943F1740E0F70162818D819E810E94D6
:102840003F1740E0F70163818D819E810E943F1711
:10285000F8018081803139F040E0F70164818D8199
:102860009E810E943F178D819E810E94A216B80111
:102870008D819E810E949D17488168E48D819E8193
:102880000E943F1764E170E080E090E00E949019A0
:102890008881882331F06AE070E080E090E00E9457
:1028A00090198D819E81DF91CF911F910F91FF90A3
:1028B000EF900C94A216EF92FF921F93CF93DF93A9
:1028C00000D0CDB7DEB77C01FC018581968169839C
:1028D0007A830E94A21669817A81F70185819681A7
:1028E0000E949D1740E064EBF701858196810E946C
:1028F0003F17F701858196810E941417182FF70161
:10290000858196810E94A21681E0111180E00F90CE
:102910000F90DF91CF911F91FF90EF900895EF926C
:10292000FF920F931F93CF93DF93CDB7DEB72A9714
:102930000FB6F894DEBF0FBECDBF7C018B01242FF4
:10294000AE014F5F5F4F2A870E94ED132A858823CF
:10295000D1F0F80180818031C1F02B3041F02C3072
:1029600021F02A3031F48FE305C08FE703C08FE5F3
:1029700001C08FE18D83AE014F5F5F4FB801C7018A
:102980000E94021402C080E001C081E02A960FB6C6
:10299000F894DEBF0FBECDBFDF91CF911F910F9195
:1029A000FF90EF900895CF93DF93CDB7DEB72997CF
:1029B0000FB6F894DEBF0FBECDBFFB0120812031E2
:1029C000D1F0AE014F5F5F4F0E94ED13882379F085
:1029D0008D818F3351F020F48F3149F489E00CC0A0
:1029E0008F3539F08F3739F002C08AE005C080E0BA
:1029F00003C08BE001C08CE029960FB6F894DEBFCF
:102A00000FBECDBFDF91CF910895FF920F931F931B
:102A1000CF93DF93CDB7DEB761970FB6F894DEBFE3
:102A20000FBECDBF8C01FC01858196810E94C91724
:102A3000F801148241E0BE01665F7F4FF801858195
:102A400096810E94FE178823D1F1BE01665F7F4FF9
:102A5000C8010E949613882369F3F80180818111CF
:102A600008C0BE01665F7F4FC8010E945B148111E0
:102A700022C0AE014F5F5F4FBE01665F7F4FC8014E
:102A80000E94A513F801F180BE01665F7F4FC80167
:102A90000E94D3148F1518F4F801818106C0BE017D
:102AA000665F7F4FC8010E94D314F801818384813F
:102AB0008F5F8483BFCF81E0F8018083DACF619696
:102AC0000FB6F894DEBF0FBECDBFDF91CF911F913F
:102AD0000F91FF900895FC0162830895CF93DF93D7
:102AE000CDB7DEB729970FB6F894DEBF0FBECDBFC6
:102AF000AE014F5F5F4F0E94A51381E09981911154
:102B000001C080E029960FB6F894DEBF0FBECDBF9E
:102B1000DF91CF9108958F929F92AF92BF92CF9203
:102B2000DF92EF92FF920F931F93CF93DF93EC010D
:102B30008A016950633048F4E62FF0E0EE0FFF1F82
:102B4000E054FE4F8080918004C09EEE892E92E07A
:102B5000992E0115110501F18B818823E9F08881F7
:102B600081111AC00E9461196B017C01AA2497FC93
:102B7000A094BA2CB801CE010E946E1581111FC01D
:102B80000E946119681979098A099B096C157D05EC
:102B90008E059F05A0F4EECFB401882777FD8095C0
:102BA000982FDF91CF911F910F91FF90EF90DF90C1
:102BB000CF90BF90AF909F908F900C949019DF9121
:102BC000CF911F910F91FF90EF90DF90CF90BF902A
:102BD000AF909F908F900895CF93DF93EC018D81FC
:102BE0009E810E94A2168D819E810E94C5174881F8
:102BF00064E48D819E810E943F178A81882341F081
:102C000040E050E06981CE01DF91CF910C948B15AB
:102C1000DF91CF910895FA01208148E0249F90012F
:102C20001124818190E0982F8827990F990F990F8F
:102C3000282B392BDB018C918031C1F4678170E046
:102C40008681AB01481B5109CA019695982F8827A8
:102C5000979587950E948D1F60517109207F53E0E1
:102C6000220F331F5A95E1F7260F371FC901089528
:102C7000EF92FF920F931F93CF93DF93CDB7DEB701
:102C800029970FB6F894DEBF0FBECDBF8C017B0134
:102C9000AE014F5F5F4F0E94ED13882341F0AE01FC
:102CA0004F5F5F4FB701C8010E940B1602C080E85A
:102CB00094EE29960FB6F894DEBF0FBECDBFDF911C
:102CC000CF911F910F91FF90EF900895813824EEDE
:102CD000920774F0BC01882777FD8095982F0E9499
:102CE0005A1E20E030E040E05CE30E940E1F089591
:102CF00060E070E08EEF92EC08950E9438160C941C
:102D00006616813824EE9207A4F0BC01882777FD6F
:102D10008095982F0E945A1E26E636E646E65CE32A
:102D20000E940E1F20E030E040E052E40E94571D58
:102D300008956AE979E984E493EC08950E943816CD
:102D40000C948116FF920F931F93CF93DF93FC0196
:102D50000081C181D281F8948981F02EF0948F2175
:102D6000898378941DE7115029F182E090E00E9458
:102D7000CA1988818023B9F3F8948A818F218A83C4
:102D80008981802B8983789480EE91E00E94CA1912
:102D9000F89489818F21898386E490E00E94CA1982
:102DA0008881802311E009F010E078948AE991E0AD
:102DB0000E94CA19812FDF91CF911F910F91FF902F
:102DC00008951F93CF93DF93FC011081C181D281BD
:102DD000912F909560FF12C0F8948A8189238A838D
:102DE0008981812B89838AE090E00E94CA198A81B7
:102DF000812B8A83789487E390E011C0F8948A81CC
:102E000089238A838981812B898381E490E00E94D0
:102E1000CA198A81812B8A83789485E090E0DF91BA
:102E2000CF911F910C94CA190F931F93CF93DF93E7
:102E3000FC011081C181D281F8948981812B898321
:102E40008A81012F009580238A8383E090E00E948D
:102E5000CA198981802389838AE090E00E94CA1977
:102E6000C881789485E390E00E94CA191C2381E010
:102E700009F480E0DF91CF911F910F910895CF92D7
:102E8000DF92EF92FF920F931F93CF93DF931F92E6
:102E9000CDB7DEB76C01E62E08E010E0FF24F39416
:102EA00061E09F2D9E2109F460E0C60149830E94E4
:102EB000E116FF0C0150110949810115110581F737
:102EC000411115C0F894D6011196ED91FC9112971D
:102ED00091818C918095892381831196ED91FC914C
:102EE000129792818C9180958923828378940F9098
:102EF000DF91CF911F910F91FF90EF90DF90CF90D6
:102F00000895EF92FF920F931F93CF93DF938C015D
:102F1000C8E0D0E0F12CEE24E394C8010E9414171D
:102F20008111FE28EE0C2197C1F78F2DDF91CF91F3
:102F30001F910F91FF90EF900895CF92DF92FF9233
:102F40000F931F93CF93DF931F92CDB7DEB78C0102
:102F5000F62E40E065E579830E943F17CF2C7981FA
:102F6000D72E88E0F82EF60161916F0140E0C8018C
:102F70000E943F17FA94B9F70F90DF91CF911F91FC
:102F80000F91FF90DF90CF90089540E06CEC0C948F
:102F90003F17FC0113861586148627E030E0DF0119
:102FA000A20FB31F13961C922115310519F0215061
:102FB0003109F5CF08951F93CF93DF93EC01162FBE
:102FC00060E0812F0E94391A612F70E0FB01E45804
:102FD000FE4FE491E883FB01E057FE4FE491F0E0FF
:102FE000EE0FFF1FEC55FE4F859194919A838983D4
:102FF000CE01DF91CF911F910C94C917AF92BF9270
:10300000CF92DF92EF92FF920F931F93CF93DF93B4
:103010001F92CDB7DEB75C01D62EE72EFC01858569
:10302000811164C0C50149830E94A21649818111A2
:1030300005C0F50113861586148671C0442319F066
:1030400040E060EF02C040E06CEEC5010E943F1717
:1030500001E0F12CC12C11E0C5010E941417682F6A
:10306000C50169830E9414176981613019F48130A8
:10307000B9F433C02F2D30E068131BC0F5018385F0
:10308000181730F4E20FF31F8381802349F402C044
:10309000181731F060E0193058F4F501148708C0B2
:1030A000F501EF0DF11D8381802B838361E009C061
:1030B000C12EF501E20FF31F8381902F9095892394
:1030C0008383C5010E94E1161F5F000F11F4F39482
:1030D00001E0F7E0FF1508F0BFCF113438F0F5013B
:1030E000C386C11009C081E0858706C0F50113863B
:1030F0001586148680E013C0F50183818823B1F31F
:10310000ED2DFE2D80E090E0D501A80FB91F13969C
:103110002C912193019688309105B1F781E00F90B1
:10312000DF91CF911F910F91FF90EF90DF90CF90A3
:10313000BF90AF900895DC0180E0615038F0ED91D0
:10314000E827F0E0E859FF4F8491F7CF08950895FC
:103150008230E8F4E82FF0E0EE0FFF1FE457FE4F57
:1031600071836083813041F0809169008C7F842B72
:1031700080936900E89A089580916900440F551F73
:10318000440F551F837F842B80936900E99A08952B
:103190001F920F920FB60F9211242F933F934F93CC
:1031A0005F936F937F938F939F93AF93BF93EF93AF
:1031B000FF93E0918C01F0918D010995FF91EF91C2
:1031C000BF91AF919F918F917F916F915F914F913F
:1031D0003F912F910F900FBE0F901F9018951F9247
:1031E0000F920FB60F9211242F933F934F935F933B
:1031F0006F937F938F939F93AF93BF93EF93FF93BF
:10320000E0918E01F0918F010995FF91EF91BF91AF
:10321000AF919F918F917F916F915F914F913F916E
:103220002F910F900FBE0F901F90189508951F9229
:103230000F920FB60F9211242F933F938F939F936A
:10324000AF93BF938091B1039091B203A091B30368
:10325000B091B4033091B00323E0230F2D3720F455
:103260000196A11DB11D05C026E8230F0296A11DE0
:10327000B11D2093B0038093B1039093B203A09348
:10328000B303B093B4038091B5039091B603A091BA
:10329000B703B091B8030196A11DB11D8093B5038A
:1032A0009093B603A093B703B093B803BF91AF91C7
:1032B0009F918F913F912F910F900FBE0F901F9074
:1032C00018952FB7F8946091B1037091B203809173
:1032D000B3039091B4032FBF08953FB7F894809142
:1032E000B5039091B603A091B703B091B80326B58A
:1032F000A89B05C02F3F19F00196A11DB11D3FBF2E
:103300006627782F892F9A2F620F711D811D911DBD
:1033100042E0660F771F881F991F4A95D1F70895DD
:103320008F929F92AF92BF92CF92DF92EF92FF92D5
:103330006B017C010E946D194B015C01C114D10429
:10334000E104F104F1F00E9416190E946D19681948
:1033500079098A099B09683E73408105910570F3DC
:1033600021E0C21AD108E108F10888EE880E83E056
:10337000981EA11CB11CC114D104E104F10429F769
:10338000DDCFFF90EF90DF90CF90BF90AF909F90F8
:103390008F9008958230910538F0880F991F880F1B
:1033A000991F05970197F1F70895789484B5826085
:1033B00084BD84B5816084BD85B5826085BD85B5D9
:1033C000816085BDEEE6F0E0808181608083E1E888
:1033D000F0E01082808182608083808181608083C0
:1033E000E0E8F0E0808181608083E1EBF0E08081C3
:1033F00084608083E0EBF0E0808181608083EAE795
:10340000F0E080818460808380818260808380811D
:10341000816080838081806880831092C1000895DC
:10342000833081F028F4813099F08230A1F0089542
:103430008730A9F08830B9F08430D1F480918000D1
:103440008F7D03C0809180008F77809380000895E6
:1034500084B58F7702C084B58F7D84BD0895809137
:10346000B0008F7703C08091B0008F7D8093B00053
:103470000895CF93DF9390E0FC01E458FE4F249130
:10348000FC01E057FE4F8491882349F190E0880FBA
:10349000991FFC01E854FE4FA591B49182559E4FAF
:1034A000FC01C591D4919FB7611108C0F8948C912B
:1034B000209582238C93888182230AC0623051F444
:1034C000F8948C91322F309583238C938881822BB2
:1034D000888304C0F8948C91822B8C939FBFDF91DA
:1034E000CF9108950F931F93CF93DF931F92CDB782
:1034F000DEB7282F30E0F901E859FE4F8491F90139
:10350000E458FE4F1491F901E057FE4F0491002357
:10351000C9F0882321F069830E94101A6981E02F85
:10352000F0E0EE0FFF1FE255FE4FA591B4919FB75B
:10353000F8948C91611103C01095812301C0812BF7
:103540008C939FBF0F90DF91CF911F910F910895A2
:10355000CF93DF93282F30E0F901E859FE4F849193
:10356000F901E458FE4FD491F901E057FE4FC491A0
:10357000CC2391F081110E94101AEC2FF0E0EE0F95
:10358000FF1FEC55FE4FA591B4912C912D2381E0A6
:1035900090E021F480E002C080E090E0DF91CF91E4
:1035A0000895FC01818D228D90E0805C9F4F821BED
:1035B00091098F7399270895FC01918D828D981739
:1035C00031F0828DE80FF11D858D90E008958FEF29
:1035D0009FEF0895FC01918D828D981761F0828D87
:1035E000DF01A80FB11D5D968C91928D9F5F9F7337
:1035F000928F90E008958FEF9FEF08958EE69CE103
:10360000892B49F080E090E0892B29F00E946E1C04
:1036100081110C9400000895FC01848DDF01A80F36
:10362000B11DA35ABF4F2C91848D90E001968F73EA
:103630009927848FA689B7892C93A089B1898C9109
:1036400080648C93938D848D981306C00288F389CF
:10365000E02D80818F7D80830895CF93DF93EC01EF
:10366000888D8823C9F0EA89FB89808185FD05C0A2
:10367000A889B9898C9186FD0FC00FB607FCF5CFDC
:10368000808185FFF2CFA889B9898C9185FFEDCF24
:10369000CE010E940C1BE7CFDF91CF910895CF920E
:1036A000DF92FF920F931F93CF93DF931F92CDB7BB
:1036B000DEB76C0181E0D60158968C9358975B96E3
:1036C0009C915B975C968C915C97981307C0509681
:1036D000ED91FC915197808185FD2EC0F601038DFF
:1036E00010E00F5F1F4F0F731127F02EF601848D2E
:1036F000F81211C00FB607FCF9CFD6015096ED9124
:10370000FC915197808185FFF1CFC60169830E94AA
:103710000C1B6981EBCF838DE80FF11DE35AFF4F3E
:103720006083D6015B960C935B975296ED91FC916A
:103730005397808180620CC0D6015696ED91FC9122
:10374000579760835096ED91FC91519780818064EA
:10375000808381E090E00F90DF91CF911F910F91D6
:10376000FF90DF90CF900895BF92CF92DF92EF92BB
:10377000FF92CF93DF93EC016A017B01B22EE889BF
:10378000F98982E08083411581EE58076105710552
:10379000A1F060E079E08DE390E0A70196010E943E
:1037A000A11F215031094109510956954795379577
:1037B0002795211580E1380798F0E889F98910826A
:1037C00060E874E88EE190E0A70196010E94A11FD5
:1037D000215031094109510956954795379527954B
:1037E000EC85FD853083EE85FF852083188EEC897E
:1037F000FD89B082EA89FB89808180618083EA89C2
:10380000FB89808188608083EA89FB898081806868
:103810008083EA89FB8980818F7D8083DF91CF91CE
:10382000FF90EF90DF90CF90BF9008951F920F927E
:103830000FB60F9211242F938F939F93EF93FF93C3
:10384000E091C903F091CA038081E091CF03F09128
:10385000D00382FD12C090818091D2038F5F8F735D
:103860002091D303821751F0E091D203F0E0E754A6
:10387000FC4F958F8093D20301C08081FF91EF911F
:103880009F918F912F910F900FBE0F901F901895C1
:103890001F920F920FB60F9211242F933F934F93C5
:1038A0005F936F937F938F939F93AF93BF93EF93A8
:1038B000FF9389EB93E00E940C1BFF91EF91BF9166
:1038C000AF919F918F917F916F915F914F913F91B8
:1038D0002F910F900FBE0F901F90189589EB93E0DA
:1038E0000E94D11A21E0892B09F420E0822F08954B
:1038F0001092BC031092BB0388EE93E0A0E0B0E00E
:103900008093BD039093BE03A093BF03B093C00305
:103910008AEC91E09093BA038093B90385EC90E030
:103920009093C6038093C50384EC90E09093C80302
:103930008093C70380EC90E09093CA038093C903FF
:1039400081EC90E09093CC038093CB0382EC90E0E9
:103950009093CE038093CD0386EC90E09093D003B8
:103960008093CF031092D2031092D3031092D4030A
:103970001092D5030895CF92DF92EF92FF920F93AA
:103980001F93CF93DF937C016A01EB0100E010E00D
:103990000C151D0571F06991D701ED91FC91019015
:1039A000F081E02DC7010995892B19F00F5F1F4F9A
:1039B000EFCFC801DF91CF911F910F91FF90EF9052
:1039C000DF90CF9008956115710581F0DB010D90B6
:1039D0000020E9F7AD0141505109461B570BDC01AE
:1039E000ED91FC910280F381E02D099480E090E05C
:1039F000089566ED71E00C94E31C0F931F93CF9331
:103A0000DF93EC010E94E31C8C01CE010E94F91CA3
:103A1000800F911FDF91CF911F910F9108954F92C9
:103A20005F926F927F92AF92BF92CF92DF92EF92AE
:103A3000FF920F931F93CF93DF93CDB7DEB729018A
:103A40003A01621B730B840B950B29893A894B89C8
:103A50005C892A193B094C095D09298B3A8B4B8BF0
:103A60005C8B9B01AC0169897A898B899C890E9456
:103A7000711FE418F50806091709A80197010E94AB
:103A8000C31F2A0D3B1D4C1D5D1DCA01B901DF91ED
:103A9000CF911F910F91FF90EF90DF90CF90BF904B
:103AA000AF907F906F905F904F9008955058BB27D4
:103AB000AA270ED075C166D130F06BD120F031F459
:103AC0009F3F11F41EF45BC10EF4E095E7FB51C17A
:103AD000E92F77D180F3BA17620773078407950738
:103AE00018F071F49EF58FC10EF4E0950B2EBA2FED
:103AF000A02D0B01B90190010C01CA01A0011124F4
:103B0000FF27591B99F0593F50F4503E68F11A169F
:103B1000F040A22F232F342F4427585FF3CF469530
:103B200037952795A795F0405395C9F77EF41F1652
:103B3000BA0B620B730B840BBAF09150A1F0FF0F1C
:103B4000BB1F661F771F881FC2F70EC0BA0F621F08
:103B5000731F841F48F4879577956795B795F795F8
:103B60009E3F08F0B3CF9395880F08F09927EE0F8A
:103B7000979587950895D9D008F481E008950CD0E1
:103B80000FC107D140F0FED030F021F45F3F19F0B3
:103B9000F0C0511139C1F3C014D198F39923C9F37E
:103BA0005523B1F3951B550BBB27AA276217730743
:103BB000840738F09F5F5F4F220F331F441FAA1FF7
:103BC000A9F333D00E2E3AF0E0E830D091505040B7
:103BD000E695001CCAF729D0FE2F27D0660F771F65
:103BE000881FBB1F261737074807AB07B0E809F047
:103BF000BB0B802DBF01FF2793585F4F2AF09E3FDC
:103C0000510568F0B6C000C15F3FECF3983EDCF3AD
:103C1000869577956795B795F7959F5FC9F7880F54
:103C2000911D9695879597F90895E1E0660F771FA6
:103C3000881FBB1F621773078407BA0720F0621B37
:103C4000730B840BBA0BEE1F88F7E095089504D030
:103C50006894B111D9C00895BCD088F09F5790F0F6
:103C6000B92F9927B751A0F0D1F0660F771F881FA1
:103C7000991F1AF0BA95C9F712C0B13081F0C3D0BC
:103C8000B1E00895C0C0672F782F8827B85F39F05A
:103C9000B93FCCF3869577956795B395D9F73EF400
:103CA00090958095709561957F4F8F4F9F4F0895A8
:103CB000E89409C097FB3EF49095809570956195C6
:103CC0007F4F8F4F9F4F9923A9F0F92F96E9BB277C
:103CD0009395F695879577956795B795F111F8CFF8
:103CE000FAF4BB0F11F460FF1BC06F5F7F4F8F4F63
:103CF0009F4F16C0882311F096E911C0772321F059
:103D00009EE8872F762F05C0662371F096E8862FF0
:103D100070E060E02AF09A95660F771F881FDAF747
:103D2000880F9695879597F90895990F0008550F74
:103D3000AA0BE0E8FEEF16161706E807F907C0F031
:103D400012161306E407F50798F0621B730B840B39
:103D5000950B39F40A2661F0232B242B252B21F413
:103D600008950A2609F4A140A6958FEF811D811DB3
:103D7000089597F99F6780E870E060E008959FEFED
:103D800080EC089500240A941616170618060906F2
:103D9000089500240A9412161306140605060895C1
:103DA000092E0394000C11F4882352F0BB0F40F449
:103DB000BF2B11F460FF04C06F5F7F4F8F4F9F4F89
:103DC000089557FD9058440F551F59F05F3F71F00B
:103DD0004795880F97FB991F61F09F3F79F0879572
:103DE0000895121613061406551FF2CF4695F1DFFB
:103DF00008C0161617061806991FF1CF869571058B
:103E0000610508940895E894BB2766277727CB01BE
:103E100097F908958ADF08F48FEF08950BD0C0CF8B
:103E2000B1DF28F0B6DF18F0952309F0A2CFA7CFB5
:103E30001124EACFC6DFA0F3959FD1F3950F50E090
:103E4000551F629FF001729FBB27F00DB11D639F4C
:103E5000AA27F00DB11DAA1F649F6627B00DA11DF2
:103E6000661F829F2227B00DA11D621F739FB00D98
:103E7000A11D621F839FA00D611D221F749F332708
:103E8000A00D611D231F849F600D211D822F762FA1
:103E90006A2F11249F5750408AF0E1F088234AF09E
:103EA000EE0FFF1FBB1F661F771F881F91505040EA
:103EB000A9F79E3F510570F05CCFA6CF5F3FECF3B2
:103EC000983EDCF3869577956795B795F795E795D6
:103ED0009F5FC1F7FE2B880F911D9695879597F9E7
:103EE0000895DB018F939F930E94E21FBF91AF91D2
:103EF000A29F800D911DA39F900DB29F900D112444
:103F00000895991B79E004C0991F961708F0961B35
:103F1000881F7A95C9F78095089597FB072E16F4A8
:103F2000009407D077FD09D00E94ED1F07FC05D053
:103F30003EF4909581959F4F0895709561957F4FC0
:103F40000895A1E21A2EAA1BBB1BFD010DC0AA1FDA
:103F5000BB1FEE1FFF1FA217B307E407F50720F0F2
:103F6000A21BB30BE40BF50B661F771F881F991F6D
:103F70001A9469F760957095809590959B01AC01B6
:103F8000BD01CF010895052E97FB1EF400940E94F9
:103F9000DA1F57FD07D00E94A11F07FC03D04EF483
:103FA0000C94DA1F50954095309521953F4F4F4F17
:103FB0005F4F089590958095709561957F4F8F4FD5
:103FC0009F4F08950E940720A59F900DB49F900DCC
:103FD000A49F800D911D11240895AA1BBB1B51E1C4
:103FE00007C0AA1FBB1FA617B70710F0A61BB70B69
:103FF000881F991F5A95A9F780959095BC01CD010E
:104000000895EE0FFF1F0590F491E02D0994A29FF3
:10401000B001B39FC001A39F700D811D1124911D9C
:10402000B29F700D811D1124911D0895FC018827F8
:104030009927E89421912032E9F3293010F02E30AD
:10404000C8F32B3241F02D3239F4689404C00E9439
:104050007F20820F911D219120532A30C0F31EF43E
:10406000909581959F4F08951F93FC01992788276C
:10407000BC01E89411911032E9F3193010F01E30B0
:10408000C8F31B3251F01D3249F4689406C00E94F7
:104090006A20610F711D811D911D119110531A30FD
:1040A000B0F33EF490958095709561957F4F8F4F5A
:1040B0009F4F1F910895FB01DC014150504048F093
:1040C00001900D920020C9F701C01D92415050404F
:1040D000E0F70895592F482F372F262F660F771FA7
:1040E000881F991F660F771F881F991F620F731F04
:1040F000841F951F660F771F881F991F08957AE008
:10410000979F902D879F802D910D11240895DC019C
:10411000CB01FC01F999FECF06C0F2BDE1BDF89AD2
:10412000319600B40D9241505040B8F70895DC012B
:10413000A40FB51F4150504048F0CB01840F951F8C
:104140002E910E94A82041505040D0F70895262F6C
:10415000F999FECF92BD81BDF89A019700B402167D
:1041600039F01FBA20BD0FB6F894FA9AF99A0FBE2B
:064170000895F894FFCF52
:104176000100000002000B004B002D00CDCCCC3D11
:10418600E093040005000200010028FF369854144D
:1041960001C128F824E5050000D728F961E70500E4
:1041A60000DC28FF004A541401DF28FFCE693616CA
:1041B60004E328DC1AE60500001328286FE505004D
:1041C600008A28426FE505000086E8030A00C8AFAA
:1041D60000003075000010270000E0930400FF0087
:1041E600FCE1A8A8B903FD0227013B022707B40298
:1041F600ED068A02C706580239017405A718A718E2
:1042060041636B2066726F6D206777207265632E3F
:1042160000322E312E3000302E393600486561745A
:10422600696E6720456E7669726F6E6D656E740095
:104236005E00BC007701000000004F1BBB1CD11ABA
:10424600EA1ADC1A2D1B0D0A006E616E00696E6695
:06425600006F7666000017
:00000001FF
