:100000000C94E3000C9484180C94AB180C940B0122
:100010000C940B010C940B010C9417020C940B0123
:100020000C940B010C940B010C940B010C944011DB
:100030000C940B010C940B010C940B010C940B0110
:100040000C94D3180C940B010C94D21B0C94041C2C
:100050000C940B010C940B010C940B010C940B01F0
:100060000C940B010C940B01005EBCE2613FDD833C
:10007000C29C7E20A3FD1F419DC3217FFCA2401E88
:100080005F01E3BD3E6082DC237D9FC1421CFEA078
:10009000E1BF5D0380DE3C62BEE0025CDF81633D68
:1000A0007C22C09E1D43A1FF4618FAA427799BC558
:1000B00084DA3866E5BB5907DB856739BAE4065848
:1000C0001947A5FB7826C49A653BD987045AB8E638
:1000D000A7F91B45C6987A24F8A6441A99C7257B28
:1000E0003A6486D85B05E7B98CD2306EEDB3510F18
:1000F0004E10F2AC2F7193CD114FADF3702ECC9208
:10010000D38D6F31B2EC0E50AFF1134DCE90722CF7
:100110006D33D18F0C52B0EE326C8ED0530DEFB1E7
:10012000F0AE4C1291CF2D73CA947628ABF51749D7
:100130000856B4EA6937D58B5709EBB536688AD4C7
:1001400095CB2977F4AA4816E9B7550B88D6346AB7
:100150002B7597C94A14F6A8742AC896154BA9F7A7
:10016000B6E80A54D7896B35000000080002010088
:100170000003040700000000000000000102040862
:100180001020408001020408102001020408102001
:10019000040404040404040402020202020203032D
:1001A00003030303000000002300260029000000D1
:1001B0000000250028002B0000000000240027007C
:1001C0002A00B810341C11241FBECFEFD8E0DEBFC8
:1001D000CDBF11E0A0E0B1E0EEEDF0E402C005908B
:1001E0000D92AE3EB107D9F724E0AEEEB1E001C00A
:1001F0001D92A937B207E1F711E0C6ECD1E004C0C7
:100200002297FE010E94BF1FC23CD107C9F70E947E
:10021000A4100C946D200C940000EF92FF920F93A9
:10022000FC01809198038183628346830583277054
:100230008481807F822B98E0E99E700111248E29B1
:100240008F7E8483CF010F91FF90EF9008950895E2
:10025000E6EAF3E080818460808381818078818315
:1002600008958091A703982F9F709B3018F0807F8E
:100270008093A7030895E6EAF3E08081877F8F7E6D
:1002800080831092A2031092A3031092A4031092F1
:10029000A50343E050E060E070E088E993E00C944F
:1002A000432062E083E00E94F51961E083E00E9450
:1002B0002E1A1092340210923502109236021092C9
:1002C00037021092410210924202109243021092A1
:1002D000440242E050E060E971E081E00E9464186D
:1002E00061E086E00E94F5192CE030E080915E012B
:1002F00090915F01281B390B8EEE92E002C095951C
:1003000087952A95E2F790935D0180935C0184E3E1
:1003100093E00E94C11460E084E393E00C942715FD
:100320008F929F92AF92BF92CF92DF92EF92FF9205
:100330000E9429194B015C0180913D0290913E027F
:10034000A0913F02B091400275016401C81AD90A18
:10035000EA0AFB0A81F10E941D196093240270933E
:100360002502809326029093270280E4C81682E437
:10037000D8068FE0E806F104C8F1C701B6010E9473
:10038000141E9B01AC0160EC71EE84E69CE40E94BB
:100390007B1D20910E0130910F0140911001509171
:1003A00011010E947B1D6093390270933A02809381
:1003B0003B0290933C0280923D0290923E02A092BA
:1003C0003F02B09240028091410290914202A0917E
:1003D0004302B09144020196A11DB11D80934102D8
:1003E00090934202A0934302B0934402FF90EF9097
:1003F000DF90CF90BF90AF909F908F90089580E056
:1004000090E0892B21F084E090E00E940000809130
:10041000A603897F8E7F8093A60381E080939A0351
:100420001092990360E081E090E00C945B201F92B1
:100430000F920FB60F9211240F900FBE0F901F90C6
:10044000189520919C0330919D032817390751F08E
:100450002091A6032F712093A60390939D03809370
:100460009C0305C08091A603805E8093A603E09163
:100470009C03F0919D030190F081E02D309709F0ED
:1004800009950E941D1960939E0370939F038093AA
:10049000A0039093A103089580E090E0892B21F0C0
:1004A00085E090E00E94000082E891E00C94210237
:1004B0008AE791E00C9421020F931F930E941D196B
:1004C00000919E0310919F032091A0033091A103FE
:1004D000601B710B820B930B1F910F9108958091FC
:1004E00098038F3F59F080E090E0892B21F087E05E
:1004F00090E00E9400008EE791E018C00E945C022C
:10050000613D77408105910598F08091A603803682
:1005100018F482E891E00AC080E090E0892B21F095
:1005200089E690E00E94000086E791E00C942102A9
:100530000895E0919C03F0919D030280F381E02DEA
:10054000309709F0099408959091A703907781E07E
:10055000903709F080E00895CF92DF92EF92FF92FA
:100560000E945C026B017C010E94A402882329F096
:1005700080E69AEEA0E0B0E004C080E197E2A0E05F
:10058000B0E08C159D05AE05BF0540F48AE891E00A
:10059000FF90EF90DF90CF900C942102FF90EF90AE
:1005A000DF90CF900895E6EAF3E081818F78818330
:1005B00010929D0310929C038AE891E00C94210212
:1005C00090E003960C945B20CF93DF93C0E0D0E0E3
:1005D0006FEF8C2F0E94E0022196C11581E0D807B1
:1005E000B9F7DF91CF91089590E003960C945320D2
:1005F0008EBD00000DB407FEFDCF8EB50895BF92ED
:10060000CF92DF92EF92FF920F931F93CF93DF93DE
:10061000C82F8B01C42EB22E8091AB03882399F092
:100620003FB7F8948091AB03813059F48DB3809338
:10063000A9038DB39091AA03909598239DBB3FBFCA
:1006400002C03093A90381E58CBD81E08DBD2A985D
:100650008AE090E00E9486198C2F0E94F802D82E22
:10066000E801CC20B9F0BB2051F08FEF0E94F802D6
:10067000D82E0115110561F08883219609C07E01ED
:100680008FEFE81AF80A88810E94F802D82EE70155
:10069000CA94E7CF2A9A8091AB03882361F09FB771
:1006A000F8942091AB038091A903213019F48DBBFC
:1006B0009FBF01C08FBF8AE090E00E9486198D2DF8
:1006C000DF91CF911F910F91FF90EF90DF90CF902E
:1006D000BF900895CF93DF931F92CDB7DEB76983A4
:1006E00020E041E0BE016F5F7F4F0E94FF020F904C
:1006F000DF91CF91089529986CE080E20C946A0311
:100700009091A703892F8077803759F0892F8295A0
:100710008F708F5F87708295807F9F78982B9093E2
:10072000A7038091A6038B7F8F7E8093A60380E032
:1007300090E0892B21F087E690E00E9400000C9465
:100740007B036FE080E20E946A03609170016F3F5B
:1007500019F08AE20E946A03299A089521E041E093
:1007600060E070E00C94FF02CF9386E00E94AE033D
:10077000C82F85E00E94AE0391E0883709F090E031
:1007800081E0C73209F080E08923CF91089520E00D
:1007900040E060E070E00C94FF02EF92FF921F9344
:1007A000CF93DF931F92CDB7DEB7182F7B01299827
:1007B00082E890E049830E9486196EE080E20E9400
:1007C0006A0384E690E00E948619612F8AE20E9403
:1007D0006A03612F80E30E946A0381EE0E94C703CF
:1007E00049811F3F11F480EB01C080EA20E0B7018E
:1007F0000E94FF02299AE12CF12C8FEF0E94C7037F
:10080000182F807321F481E0E81AF108B1F72998D4
:1008100060E387E20E946A0314FF03C081EE0E9436
:10082000C7030E94A10315FB882780F90F90DF9171
:10083000CF911F91FF90EF9008950F931F93CF9347
:10084000DF93082FEB018091980388831B8112FDB1
:1008500005C0169516951695195F01C010E220E0A7
:1008600030E0232B21F080E090E00E940000412F37
:10087000113208F040E2BE01802F0E94CD0391E0CA
:100880000F3F09F090E0892BDF91CF911F910F91DD
:1008900008951F93CF93DF93EC011A818091A603F3
:1008A00080FF03C01F3FA9F511C0111103C01091B3
:1008B00099030CC01F3F51F0812F0E94F4028F3F1B
:1008C00021F48091990398819813182FBE01812FEC
:1008D0000E941D049091990319131CC0811112C02C
:1008E00080E090E0892B21F085E690E00E940000F6
:1008F0008091A70391E0980F9F70807F892B809350
:10090000A70307C08091A703807F8093A70381E09E
:1009100001C080E0DF91CF911F9108952091A6033F
:1009200022FD0C94490480E008951F93CF93DF9338
:10093000EC0121E041E060E070E080E60E94FF020F
:10094000182F813220F082EE0E94C70310E021E0D0
:10095000412FBE0181E60E94FF0260E487E20E940F
:100960006A03812FDF91CF911F910895CF93219A30
:10097000229A0E940A1129982A9A6EE080E20E9427
:100980006A0365E070E080E090E00E944C1963E04B
:1009900083E20E946A036FE584E20E946A0368E7CB
:1009A00085E20E946A0367E286E20E946A0363E7C7
:1009B00080E50E946A0366E08DE30E946A030E945C
:1009C000B403C82F882371F162E082E20E946A03B7
:1009D00060E081E20E946A0363E08CE30E946A03A4
:1009E0008FEF8093710120E045E061E771E08BE2D9
:1009F0000E94FF0220E045E061E771E08AE20E9488
:100A0000FF0220E045E061E771E080E30E94FF0221
:100A100082EE0E94C70381EE0E94C70360E787E26F
:100A20000E946A038C2FCF9108958F3F51F08093DD
:100A3000700163E082E20E946A0361E081E20E9449
:100A40006A030C94A103CF93DF931F92CDB7DEB757
:100A5000682F8FEF860F8E3F68F460939803862F80
:100A600069830E941505698180E090E00E945B2007
:100A700081E00CC080E090E0892B21F08EE690E0D0
:100A80000E9400008FEF8093980380E00F90DF9129
:100A9000CF9108950E94B60481110BC080E090E0D0
:100AA000892B21F087E690E00E94000086E791E024
:100AB00017C08091A60380618093A60386E6809389
:100AC000980366E680E090E00E945B2080919803A6
:100AD0008F3F21F00E942305882341F386E891E0AF
:100AE0000C942102CF93DF93FC01108211821282B9
:100AF0001382148215821682DC0117968AE1ED01B9
:100B000019928A95E9F783818C7F82608383DF91D4
:100B1000CF910895FC0124812295269527702130DC
:100B200011F487810895211104C007960E94D21FF5
:100B3000089580E008950E948A0591E0811101C026
:100B400090E0892F0895FC01248122952695277035
:100B5000253029F46781708581859285089521115A
:100B600003C007960C94F01F60E070E0CB0108957D
:100B7000FC012481229526952770223019F4878163
:100B800090850895211103C007960C94D21F80E030
:100B900090E008951F93CF93DF93EC011E811A30EC
:100BA00059F564E070E08DEA92E00E94961281E0CF
:100BB0008093A8028C8184FF06C062E971E08CED0D
:100BC00093E00E94B91C8D81833059F4CE010E94BC
:100BD000B80564EB70E0681B790B8DEA92E00E9427
:100BE000DD120E941D196093A9027093AA028093DE
:100BF000AB029093AC0254C01B3019F58D81883143
:100C000009F04EC0CE010E94A3056093410270938B
:100C10004202809343029093440210923002109259
:100C20003102109232021092330210923902109265
:100C30003A0210923B0210923C0281E0809338020B
:100C40002FC0113081F48D81823051F5CE010E9488
:100C50009B0580930F02682F612786E0DF91CF917B
:100C60001F910C942E1A1636D9F48D818C31C1F453
:100C7000CE010E949B05882359F00E941D196093A4
:100C8000100270931102809312029093130208C015
:100C9000109210021092110210921202109213027E
:100CA000DF91CF911F9108950F931F93CF93DF93FF
:100CB000EC016115710561F0FB0101900020E9F77D
:100CC0003197E61BF70BE931F10518F0E9E101C0B6
:100CD000E0E00E2F10E0C801A3E0880F991FAA954D
:100CE000E1F79B819770982B9B838C818F718C830C
:100CF000EE2329F0A801CE0107960E941720FE01DD
:100D0000E00FF11F1782CE01DF91CF911F910F915C
:100D10000895EF920F93809198038F3FC9F480E07C
:100D200090E0892B21F086E090E00E940000E12C09
:100D300003E023E04FEF60E086E593E00E940D01C1
:100D400061EE71E00E9454060F91EF900C944904FB
:100D50000F91EF900895FC018381877088608383F1
:100D600084818F71806284836783CF010895FC0141
:100D7000838187708860838384818F71806284839C
:100D80006783CF010895FC01838187708862838324
:100D90008481806E8483478350876187728723872D
:100DA000CF010895FC0184818F71806A84838381DF
:100DB0008770806283834783508761877287CF0102
:100DC0000895FC0184818F7180648483838187709E
:100DD0008061838370876783CF0108950C948E04AC
:100DE00020919803FC0121832481207F2160F8E079
:100DF0006F9FB0011124262BFC0124830C948E04D8
:100E00008F929F92AF92BF92EF920F93E82E0E9423
:100E10005C024B015C0106E123E04FEF60E086E5F8
:100E200093E00E940D01B501A4010E94D2060F912A
:100E3000EF90BF90AF909F908F900C948E04EF92A4
:100E40000F93CF93DF938F3F19F4C3EAD1E001C032
:100E5000EA01E22E062F20E0482F60E086E593E0CD
:100E60000E940D01BE010E945406DF91CF910F91A7
:100E7000EF900C948E04CF92DF92EF92FF920F933B
:100E80001F93CF93DF936C01EB01F42E009781F059
:100E9000E42E0BE023E04FEF60E086E593E00E9454
:100EA0000D01B6010E9454060E948E04182F01C045
:100EB00011E0209779F0EF2C0CE023E04FEF60E099
:100EC00086E593E00E940D01BE010E9454060E9437
:100ED0008E041823812FDF91CF911F910F91FF90E6
:100EE000EF90DF90CF900895EF920F93942FE12C25
:100EF000062F22E0482F692F86E593E00E940D011E
:100F000061EE71E00E9454060F91EF900C948E04F4
:100F100040E063E08AE00E94740740E068E18BE013
:100F20000E94740740E068E186E60E94740740E092
:100F300069E186E60E94740740E06AE186E60E9465
:100F4000740740E06BE186E60E9474070E941D1959
:100F50006093140270931502809316029093170207
:100F6000609318027093190280931A0290931B02E7
:100F700060931C0270931D0280931E0290931F02C7
:100F800060932002709321028093220290932302A7
:100F90006093240270932502809326029093270287
:100FA000609328027093290280932A0290932B0267
:100FB00008956F927F928F929F92AF92BF92CF923D
:100FC000DF92EF92FF92CF93DF934B015C01C42F2E
:100FD000622E0E941D196B017C0181E0611080E08E
:100FE00080937C03712CD0E00E941D196C197D093F
:100FF0008E099F09681579058A059B05A0F4711073
:1010000012C00E94990A0E94D21840917B03477037
:1010100050E04C175D0741F780917C038611E4CFC7
:1010200077247394E1CF872DDF91CF91FF90EF90DC
:10103000DF90CF90BF90AF909F908F907F906F90F8
:101040000895EF920F931F93CF93DF93EC01162F28
:10105000E12C0FE023E04FEF0E940D0161EE71E003
:101060000E9454068B81877080618B838C818F7185
:10107000806C8C8381E08F831886CE010E948E0461
:1010800011110DC02FE043E060ED77E080E090E0CB
:10109000DF91CF911F910F91EF900C94D907DF91C1
:1010A000CF911F910F91EF900895EF920F93CF93EF
:1010B00080E090E0892B21F08CE090E00E9400001D
:1010C00060E086E593E00E94210820E041EE51E0D7
:1010D00062E18FEF0E941F07C0919903E12C06E0A7
:1010E00023E04FEF60E086E593E00E940D016C2F56
:1010F0000E94B7060E94EE0626E043E060ED77E02E
:1011000080E090E00E94D90783EC9AE0892B29F0D7
:10111000CF910F91EF900C94C30ACF910F91EF9064
:101120000895EF920F9390917C0380917803811141
:1011300066C09D30A1F480E090E0892B21F08BE027
:1011400090E00E94000028E088E190E00FB6F8945B
:10115000A895809360000FBE20936000FFCF9B3165
:1011600009F452C0963079F480917E0361E08823BF
:1011700019F08D3409F060E060939B0383E091E007
:101180000E945B2041C0933119F40E9455083CC075
:10119000923121F480E00E94000736C0913059F46A
:1011A00080E090E0892B81F187E793E00E94A3051E
:1011B0000E94000029C09A30F1F480917E038334AC
:1011C00019F580E090E0892B21F08DE090E00E94FD
:1011D00000000E94E402E12C0AE023E04FEF60E00F
:1011E00086E593E00E940D016EEA71E00E945406CC
:1011F0000E94EE0609C081E09C3121F406C081E026
:101200009A3119F080E001C081E00F91EF900895CC
:10121000DF92EF92FF920F931F93CF93DF9300D053
:10122000CDB7DEB780E090E0892B21F081E090E03F
:101230000E94000087E793E00E94950490917A0352
:10124000092F0695069506950A3108F009E192FDE9
:1012500003C027E0200F01C020E2E0907B03409113
:101260007C03D090780310917703F0907903821774
:1012700041F080E090E0892B09F43BC18CE690E0DE
:101280000AC09370923091F080E090E0892B09F4CD
:1012900030C18DE690E00F900F90DF91CF911F91BC
:1012A0000F91FF90EF90DF900C94000080919903D4
:1012B000181731F0612F8D2D4A830E94E0024A8178
:1012C0003E2D377039838091A70380688093A703F0
:1012D00080919803F8125AC020917A03822F869544
:1012E000869586958A3108F089E1E8E08E9FC001F5
:1012F0001124922F9770982B90937A03E02FF0E0AF
:10130000E958FC4F178280917B0383FF19C081E26B
:10131000E7E7F3E0A6E5B3E001900D928A95E1F7E7
:1013200080915A03877F806180935A03F09257031C
:10133000D092580386E593E04A830E948E044A8146
:1013400080917B0384FD10C03981333069F4809132
:101350007C038F3009F0AAC0CCC0493109F4B6C073
:101360000E9491088111C5C08AEC95E0892B09F48F
:10137000C0C087E793E00F900F90DF91CF911F914E
:101380000F91FF90EF90DF900C94CA058FEFF81249
:101390006AC03981333009F051C08091A60382FFC1
:1013A0002DC0473059F580919903D81609F4A1C092
:1013B00080E00E94850B882309F49BC00E941D19C0
:1013C0006093A2037093A3038093A4039093A50357
:1013D0000E941D197370882799270E944C1910913B
:1013E0009A03E12C08E023E04FEF6D2D86E593E0B2
:1013F0000E940D01612F0E94B7064DC0483009F4CC
:1014000078C04431D9F480919903181317C00E9411
:101410001D197370882799270E944C19F090990321
:10142000E12C05E123E04FEF6D2D86E593E00E946E
:101430000D016F2D0E94B7060E9449048091990307
:10144000181308C080919803D81621F08091A60344
:1014500082FD4AC03981333009F44BC08091990331
:10146000181347C081CF8091A60382FF42C0398103
:10147000333079F44851423060F487E793E00E94BA
:101480008A058E3F31F061E0680F87E793E00E94A4
:10149000B70687E793E00F900F90DF91CF911F91F0
:1014A0000F91FF90EF90DF900C944904443009F1C4
:1014B000483109F052CFE12C09E123E04FEF6D2DC7
:1014C00086E593E00E940D0161E095CF8091A6032F
:1014D00083FF0FC0877F8093A60387E793E00E9476
:1014E0008A058093A80305C087E793E00E9449041A
:1014F000B1CF0F900F90DF91CF911F910F91FF907F
:10150000EF90DF900895CF938091A60384FF0BC0E6
:10151000C6E087E10E94AE0380FD05C0C15019F00E
:101520000E940809F6CFCF9108950E9499020C9469
:10153000830AA8950C94950A8F929F92AF92BF92BE
:10154000CF92DF92EF92FF926B017C010E941D19F6
:101550004B015C010E941D19681979098A099B09D0
:101560006C157D058E059F0528F40E94990A0E943E
:10157000D218F0CFFF90EF90DF90CF90BF90AF9058
:101580009F908F9008951F93CF93DF9340E061EB7E
:1015900071E085EB91E00E943B0720E041EE51E0D5
:1015A00065E08AE00E941F0720E041EE51E065E11E
:1015B0008BE00E941F0720E041EE51E063E081E0F4
:1015C0000E941F0720E041EE51E067E186E60E949D
:1015D0001F07CCE1D1E014E120E041EE51E066E0EC
:1015E000812F0E941F0740915E01BE0184E393E0BA
:1015F0000E944B1464E170E080E090E00E949C0A3D
:101600001F5F28961C3141F7DF91CF911F910895FC
:101610006F927F928F929F92AF92BF92CF92DF9202
:10162000EF92FF92CF93DF934B015C01C42F622EA8
:101630000E941D196B017C0181E0611080E08093A4
:101640007C03712CD0E00E941D196C197D098E0954
:101650009F09681579058A059B05A0F4711012C0D1
:101660000E94830A0E94D21840917B03477050E089
:101670004C175D0741F780917C038611E4CF7724F6
:101680007394E1CF872DDF91CF91FF90EF90DF90A2
:10169000CF90BF90AF909F908F907F906F90089564
:1016A000EF920F939091A60393FD2BC02091980386
:1016B000821303C01092A8031CC098609093A603E5
:1016C0009FEF9093A803E12C08E123E04FEF682FF0
:1016D00086E593E00E940D0161E00E94B7060E943A
:1016E000490429E143E060ED77E080E090E00E946A
:1016F000080B8091A603877F8093A6038091A8039F
:1017000001C08FEF0F91EF9008950F931F938111F8
:1017100013C00E941D190091A2031091A3032091F0
:10172000A4033091A503601B710B820B930B6031F6
:10173000774281059105A8F080E00E94500B182F98
:101740008F3F89F00E941D196093A2037093A30339
:101750008093A4039093A50380919A031813109388
:101760009A0381E001C080E01F910F910895A89530
:1017700080E090E0892B11F00E94000026E040E01C
:1017800052EC61E070E08CED93E00E94701B81E50B
:1017900091E0892B11F00E94510141E050E063E09B
:1017A00071E08BE993E00E94432060E081E090E0EB
:1017B0000E945B200E94D3028091A60382FD06C096
:1017C000A8950E94950A0E94D218F6CF0E9455084B
:1017D00081E08093550388E897E0892B11F00E94FF
:1017E0008807A8950895CF93DF93EC0164E070E03B
:1017F0008DEA92E00E94961281E08093A80264EB49
:1018000070E06C1B7D0B8DEA92E00E94DD12BE0140
:1018100080EB92E00E94E10661E00E94F0060E94E7
:101820001D196093A9027093AA028093AB02909352
:10183000AC02DF91CF9108957F928F929F92AF92E9
:10184000BF92CF92DF92EF92FF920F931F93CF93AD
:10185000DF938091A8028823A1F00E941D190091B6
:10186000A9021091AA022091AB023091AC02601B38
:10187000710B820B930B653873408105910508F05D
:101880000AC40E941D196B017C018091280290916D
:101890002902A0912A02B0912B02B701A601481B90
:1018A000590B6A0B7B0B8091120190911301A0914F
:1018B0001401B091150184179507A607B70708F022
:1018C000CDC0C0922802D0922902E0922A02F09262
:1018D0002B026091390270913A0280913B02909103
:1018E0003C022091300230913102409132025091FD
:1018F00033020E94771D882381F1809139029091F3
:101900003A02A0913B02B0913C0280933002909346
:101910003102A0933202B093330260913902709188
:101920003A0280913B0290913C0220E030E048EC8A
:1019300052E40E94771D87FF10C0409139025091F8
:101940003A0260913B0270913C0222E087E892E00B
:101950000E94C30660E00E94F006809124029091EC
:101960002502A0912602B0912702C81AD90AEA0AD4
:10197000FB0A81ECC81684EDD80681E0E806F10484
:1019800040F01092390210923A0210923B021092EB
:101990003C02409141025091420260914302709199
:1019A00044028091340290913502A0913602B091A8
:1019B0003702481759076A077B0709F44FC080911F
:1019C000410290914202A0914302B091440280935F
:1019D000340290933502A0933602B09337024091BF
:1019E000410250914202609143027091440285E4A9
:1019F00092E00E94D20660E00E94F00660914102EF
:101A00007091420280914302909144020E94141E00
:101A100020E030E048EC52E40E947B1D6B017C0129
:101A200020912C0230912D0240912E0250912F02D4
:101A30000E94771D882391F0C0922C02D0922D0233
:101A4000E0922E02F0922F0223E0B701A60186E673
:101A500092E00E94C30660E00E94F0060E941D19F9
:101A60004B015C018091200290912102A091220201
:101A7000B0912302B501A401481B590B6A0B7B0BE3
:101A80008091680190916901A0916A01B0916B0108
:101A900084179507A607B70708F00FC184E393E002
:101AA0000E94A81560915C0170915D01882777FD07
:101AB0008095982F0E949C0A80919B0360911A0147
:101AC00070911B01B3E0660F771FBA95E1F7645E72
:101AD0007E4F882329F084E393E00E94391604C0E6
:101AE00084E393E00E945A1620E030E040E251E4A3
:101AF0000E94CA1E0E94E31D882777FD8095982FBB
:101B00000E94161E20E030E040E251E40E947B1D5E
:101B10006B017C0186E00E94641A892B09F443C0A2
:101B200000911A0110911B01F801EE0FFF1FEE0F3B
:101B3000FF1FEF52FD4F2DEC3CEC4CE45EE3608167
:101B40007181828193810E94131DA70196010E94D9
:101B5000771D87FF28C020E030E04EEF52ECC70130
:101B6000B6010E94771D8823F1F0C0911801D09131
:101B70001901CC0FDD1FCC0FDD1FCF52DD4F60915F
:101B80000C0170910D01882777FD8095982F0E9498
:101B9000161E9B01AC01688179818A819B810E941C
:101BA000771D87FD7FC2E0911A01F0911B01EE0FB6
:101BB000FF1FEE0FFF1FEF52FD4FC082D182E28266
:101BC000F3828092200290922102A0922202B0928F
:101BD000230280919B036091F1027091F202E3E095
:101BE000660F771FEA95E1F7645E7E4F882329F040
:101BF00084E393E00E94391604C084E393E00E94DA
:101C00005A1620E030E040E251E40E94CA1E0E94D1
:101C1000E31D882777FD8095982F0E94161E20E0EF
:101C200030E040E251E40E947B1D6B017C01809119
:101C300004019091050145970CF43FC020E030E08D
:101C40004EEF52ECC701B6010E94771D8823A9F11F
:101C500060910A0170910B01882777FD8095982F7C
:101C60000E94161E9B01AC01C701B6010E94C61E50
:101C700018161CF58091F1028C5E8093F90221E028
:101C8000B701A60183EF92E00E94C30660E00E94C4
:101C9000F00680910401909105010E94F30BE09100
:101CA000F102F091F202EE0FFF1FEE0FFF1FEF5255
:101CB000FD4FC082D182E282F3820E941D194B0146
:101CC0005C0180911C0290911D02A0911E02B091B6
:101CD0001F02B501A401481B590B6A0B7B0B8091B5
:101CE000640190916501A0916601B091670184172C
:101CF0009507A607B70708F055C080919B03609130
:101D000018017091190133E0660F771F3A95E1F7DA
:101D1000645E7E4F882329F084E393E00E943916A5
:101D200004C084E393E00E945A1620E030E040E2D1
:101D300051E40E94CA1E0E94E31D882777FD80950A
:101D4000982F0E94161E20E030E040E251E40E94ED
:101D50007B1D6B017C0186E00E94641A0197D1F023
:101D600060910C0170910D01882777FD8095982F67
:101D70000E94161EA70196010E94771D87FF0AC0C8
:101D800020E030E04EEF52ECC701B6010E94771D13
:101D90008111A2C180921C0290921D02A0921E028B
:101DA000B0921F020E941D194B015C01809110022C
:101DB00090911102A0911202B0911302B501A401F9
:101DC000481B590B6A0B7B0B80916001909161015C
:101DD000A0916201B091630184179507A607B70728
:101DE00008F0A4C180919B036091160170911701C6
:101DF00023E0660F771F2A95E1F7645E7E4F882304
:101E000029F084E393E00E94391604C084E393E050
:101E10000E945A1620E030E040E251E40E94CA1EBF
:101E20000E94E31D882777FD8095982F0E94161E3B
:101E300020E030E040E251E40E947B1D6B017C0118
:101E4000C0910401D0910501C531D10504F1609123
:101E5000080170910901882777FD8095982F0E94CD
:101E6000161EA70196010E94C61E18166CF420E0EB
:101E700030E04EEF52ECC701B6010E94771D882377
:101E800019F084E190E04CC0CC33D10539F1609178
:101E9000060170910701882777FD8095982F0E9491
:101EA000161E20E030E040E05FE30E94121DA70113
:101EB00096010E94C61E18166CF420E030E04EEF2A
:101EC00052ECC701B6010E94771D882319F08CE3FC
:101ED00090E026C0C436D1050CF04DC060910601DB
:101EE00070910701882777FD8095982F0E94161E14
:101EF00020E030E040E05FE30E94131DA70196015F
:101F00000E94771D87FF37C020E030E04EEF52EC93
:101F1000C701B6010E94771D882369F184E690E02D
:101F200090930501809304010E94F30B80911601A8
:101F30008C5E8093F90221E0B701A60183EF92E065
:101F40000E94C30660E00E94F006E0911601F09145
:101F50001701EE0FFF1FEE0FFF1FEF52FD4FC08264
:101F6000D182E282F3828092100290921102A092BA
:101F70001202B09213020E941D194B015C01809164
:101F8000140290911502A0911602B0911702B501AA
:101F9000A401481B590B6A0B7B0B80916C0190913B
:101FA0006D01A0916E01B0916F0184179507A6078E
:101FB000B70708F0BBC004E113E0CCE1D1E084E155
:101FC000782E80919B03BE01882329F084E393E05F
:101FD0000E94391604C084E393E00E945A1620E060
:101FE00030E040E251E40E94CA1E0E94E31D8827AF
:101FF00077FD8095982F0E94161E20E030E040E289
:1020000051E40E947B1D6B017C019B01AC01F80136
:1020100060817181828193810E94771D882359F1AB
:1020200020E030E04EEF52ECC701B6010E94771D70
:10203000882309F120E030E04AEA52E4C701B60102
:102040000E94771D8823B9F07092F90221E0B70150
:10205000A60183EF92E00E94C30660E00E94F006B2
:10206000F801C082D182E282F38264E170E080E014
:1020700090E00E949C0A73940C5F1F4F2896FCE12D
:102080007F129FCF8092140290921502A0921602A6
:10209000B09217024BC08DEA92E00E949C121092FF
:1020A000A802EFCB0C5E0093F90221E0B701A60174
:1020B00083EF92E00E94C30660E00E94F00660E0B9
:1020C00086E00E942E1A61E08EEE91E00E94AB063F
:1020D00061E00E94F00667CD809118018C5E8093CC
:1020E000F90221E0B701A60183EF92E00E94C30646
:1020F00060E00E94F00661E086E00E942E1A60E037
:102100008EEE91E00E94AB0661E00E94F006E09145
:102110001801F0911901EE0FFF1FEE0FFF1FEF5294
:10212000FD4FC082D182E282F38234CEDF91CF9123
:102130001F910F91FF90EF90DF90CF90BF90AF90E5
:102140009F908F907F9008950E9491190E94B70BE5
:10215000CCE1DCE00AEB1AE10E94990A209711F029
:102160000E941C0C01151105B9F30E94BA1AF4CF94
:10217000CF9387E793E00E94720586E593E00E9483
:10218000720565E087E493E00E94971767E473E0C7
:1021900084E393E00E94431383EF92E00E94720570
:1021A0001092F9021092F80280EB92E00E94720500
:1021B0008AE08093B60283E08093B5028DEA92E0D4
:1021C0000E94FC1187E892E00E947205CBE0C09368
:1021D0008D0282E280938C0286E692E00E94720574
:1021E000C0936C0283E280936B0285E492E00E94CC
:1021F0007205C0934B0288E180934A028EEE91E013
:102200000E94720581E08093F40182E08093F301E3
:10221000CF910895CF93CFB7F8948091AC038111FB
:1022200027C0EAE9F1E08491E6E8F1E09491E82F33
:10223000F0E0EE0FFF1FE854FE4FA591B4918C9192
:10224000892321F461E08AE00E942E1A61E08AE08D
:102250000E94F5198CB580618CBD8CB580648CBDF5
:1022600061E08DE00E94F51961E08BE00E94F519B4
:102270008091AC038F5F8093AC03CFBFCF91089563
:102280001F920F920FB60F9211242F933F934F93EB
:102290005F936F937F938F939F93AF93BF93EF93CE
:1022A000FF938091AE0387FF05C0109285001092C6
:1022B00084001AC02091AE03332727FD309580910A
:1022C000AD0390E0281739077CF48091AE0399277D
:1022D00087FD9095FC01EE0FFF1FE80FF91FE155F8
:1022E000FC4F808186FD15C08091AE038F5F809387
:1022F000AE032091AE03332727FD30958091AD03C7
:1023000090E028173907BCF48091AE038C305CF163
:1023100012C08091AE03992787FD9095FC01EE0FC6
:10232000FF1FE80FF91FE155FC4F808160E08F73BC
:102330000E942E1AD9CF8091840090918500049636
:1023400080349C4918F480E49CE905C080918400A5
:1023500090918500049690938900809388008FEF78
:102360008093AE0338C02091840030918500809125
:10237000AE03992787FD9095FC01EE0FFF1FE80F34
:10238000F91FE155FC4F81819281820F931F909339
:102390008900809388008091AE03992787FD9095EE
:1023A000FC01EE0FFF1FE80FF91FE155FC4F808184
:1023B00086FF11C08091AE03992787FD9095FC019F
:1023C000EE0FFF1FE80FF91FE155FC4F808161E020
:1023D0008F730E942E1AFF91EF91BF91AF919F9141
:1023E0008F917F916F915F914F913F912F910F90BE
:1023F0000FBE0F901F9018952091AD032C30A0F4C4
:1024000031E0320F3093AD03FC012083822F90E046
:10241000FC01EE0FFF1FE80FF91FE155FC4F88EBA1
:102420009BE09283818308952FEFFC012083089520
:10243000DF92EF92FF920F931F93CF93DF93EC0104
:10244000D62E7A01890188818C3008F066C061E05F
:102450008D2D0E94F5198881A82FB0E0FD01EE0FA7
:10246000FF1FEA0FFB1FE155FC4F2D2D2F739081AD
:10247000907C922B908360E272E06E197F0977FF67
:1024800002C06D5F7F4F75956795759567956983F8
:1024900040E659E0401B510B57FF02C04D5F5F4FB4
:1024A00055954795559547954A836CE00E943D1F89
:1024B0009CE0899FB001112420E030E0A901460F83
:1024C000571FFA01EE0FFF1FE40FF51FE155FC4FF8
:1024D000908196FD16C02F5F3F4F2C30310571F76C
:1024E00081110FC01092800082E0809381001092D1
:1024F000850010928400B19A80916F008260809371
:102500006F00888190E0FC01EE0FFF1FE80FF91FBC
:10251000E155FC4F8081806480838881DF91CF9179
:102520001F910F91FF90EF90DF90089520E639E022
:1025300040E252E00C941812FC01808190E0FC0112
:10254000EE0FFF1FE80FF91FE155FC4F80818F7BD5
:1025500080830895FC0180818C3070F5918128E89A
:1025600030E0291B310997FD3395220F331F220FCD
:10257000331F621773077CF0928128E532E0291B34
:10258000310997FD3395220F331F220F331F621736
:1025900073070CF49B0122503109220F331F4FB7F0
:1025A000F89490E0FC01EE0FFF1FE80FF91FE155D2
:1025B000FC4F328321834FBF08954F925F926F92F9
:1025C0007F92AF92BF92CF92DF92EF92FF920F93E2
:1025D0001F93CF93DF93EC01603282E078070CF019
:1025E00040C077FD06C0653B71052CF064EB70E0E0
:1025F00002C060E070E0898128E830E0281B3109E2
:1026000087FD3395220F331F220F331F5901CC242E
:10261000B7FCC094DC2C882777FD8095982F2A8101
:1026200048E552E0421B510927FD5395440F551FC1
:10263000440F551F2A01662457FC6094762C7F9224
:102640006F925F924F9214EBE12EF12C00E010E0BC
:1026500020E030E0A9010E94CB1C0F900F900F905A
:102660000F90CE01DF91CF911F910F91FF90EF90CE
:10267000DF90CF90BF90AF907F906F905F904F9022
:102680000C94AA120895FC0182E493E1928B818B51
:10269000768365831482108289E0818381E082835E
:1026A00083830895CF93DF93EB0167E0CE010E940F
:1026B000571891E02F81821390E0892FDF91CF91FD
:1026C0000895CF92DF92EF92FF920F931F93CF93D3
:1026D000DF9300D0CDB7DEB76C01F42EE52EFC0100
:1026E0008581968169837A830E945E1669817A81E9
:1026F000882311F1F601858196810E94591740E0E7
:102700006EEBF601858196810E94FB160F2D1E2D22
:1027100089E0F82EF601858196810E943D17F80127
:1027200081938F01FA94B1F7F601858196810E9419
:102730005E1691E0813009F090E0892F0F900F90A4
:10274000DF91CF911F910F91FF90EF90DF90CF908D
:102750000895CF93DF93EA010E946113882351F01B
:1027600068E0CE010E94571891E02885821390E01E
:10277000892F01C080E0DF91CF910895EF92FF9201
:102780000F931F93CF93DF93EC018B017A018D811F
:102790009E810E945E16B8018D819E810E9459170C
:1027A00040E06EE48D819E810E94FB1640E0F701BF
:1027B00062818D819E810E94FB1640E0F70163815A
:1027C0008D819E810E94FB16F8018081803139F055
:1027D00040E0F70164818D819E810E94FB168D810E
:1027E0009E810E945E16B8018D819E810E945917BC
:1027F000488168E48D819E810E94FB1664E170E04F
:1028000080E090E00E944C198881882331F06AE0D2
:1028100070E080E090E00E944C198D819E81DF91F4
:10282000CF911F910F91FF90EF900C945E16EF9255
:10283000FF921F93CF93DF9300D0CDB7DEB77C011B
:10284000FC018581968169837A830E945E16698185
:102850007A81F701858196810E94591740E064EBE7
:10286000F701858196810E94FB16F701858196818B
:102870000E94D016182FF701858196810E945E165E
:1028800081E0111180E00F900F90DF91CF911F91A7
:10289000FF90EF900895EF92FF920F931F93CF93C5
:1028A000DF93CDB7DEB72A970FB6F894DEBF0FBE21
:1028B000CDBF7C018B01242FAE014F5F5F4F2A8774
:1028C0000E94A9132A858823D1F0F80180818031E4
:1028D000C1F02B3041F02C3021F02A3031F48FE35D
:1028E00005C08FE703C08FE501C08FE18D83AE0186
:1028F0004F5F5F4FB801C7010E94BE1302C080E066
:1029000001C081E02A960FB6F894DEBF0FBECDBF9E
:10291000DF91CF911F910F91FF90EF900895CF938A
:10292000DF93CDB7DEB729970FB6F894DEBF0FBEA1
:10293000CDBFFB0120812031D1F0AE014F5F5F4F51
:102940000E94A913882379F08D818F3351F020F4F0
:102950008F3149F489E00CC08F3539F08F3739F069
:1029600002C08AE005C080E003C08BE001C08CE0BB
:1029700029960FB6F894DEBF0FBECDBFDF91CF9181
:102980000895FF920F931F93CF93DF93CDB7DEB7D8
:1029900061970FB6F894DEBF0FBECDBF8C01FC016E
:1029A000858196810E948517F801148241E0BE015D
:1029B000665F7F4FF801858196810E94BA17882350
:1029C000D1F1BE01665F7F4FC8010E945213882378
:1029D00069F3F8018081811108C0BE01665F7F4FF5
:1029E000C8010E941714811122C0AE014F5F5F4FD2
:1029F000BE01665F7F4FC8010E946113F801F1803C
:102A0000BE01665F7F4FC8010E948F148F1518F4B6
:102A1000F801818106C0BE01665F7F4FC8010E9438
:102A20008F14F801818384818F5F8483BFCF81E01D
:102A3000F8018083DACF61960FB6F894DEBF0FBE3F
:102A4000CDBFDF91CF911F910F91FF900895FC01B1
:102A500062830895CF93DF93CDB7DEB729970FB682
:102A6000F894DEBF0FBECDBFAE014F5F5F4F0E9437
:102A7000611381E09981911101C080E029960FB620
:102A8000F894DEBF0FBECDBFDF91CF9108958F9236
:102A90009F92AF92BF92CF92DF92EF92FF920F93ED
:102AA0001F93CF93DF93EC018A016950633048F4A0
:102AB000E62FF0E0EE0FFF1FE753FE4F808091807E
:102AC00004C09EEE892E92E0992E0115110501F1A8
:102AD0008B818823E9F0888181111AC00E941D1919
:102AE0006B017C01AA2497FCA094BA2CB801CE01FA
:102AF0000E942A1581111FC00E941D1968197909A9
:102B00008A099B096C157D058E059F05A0F4EECF03
:102B1000B401882777FD8095982FDF91CF911F9181
:102B20000F91FF90EF90DF90CF90BF90AF909F906C
:102B30008F900C944C19DF91CF911F910F91FF90C2
:102B4000EF90DF90CF90BF90AF909F908F900895BF
:102B5000CF93DF93EC018D819E810E945E168D8163
:102B60009E810E948117488164E48D819E810E942C
:102B7000FB168A81882341F040E050E06981CE0154
:102B8000DF91CF910C944715DF91CF910895FA0111
:102B9000208148E0249F90011124818190E0982FAA
:102BA0008827990F990F990F282B392BDB018C91CE
:102BB0008031C1F4678170E08681AB01481B510907
:102BC000CA019695982F8827979587950E94491F47
:102BD00060517109207F53E0220F331F5A95E1F7AE
:102BE000260F371FC9010895EF92FF920F931F938D
:102BF000CF93DF93CDB7DEB729970FB6F894DEBF3A
:102C00000FBECDBF8C017B01AE014F5F5F4F0E94B5
:102C1000A913882341F0AE014F5F5F4FB701C80190
:102C20000E94C71502C080E894EE29960FB6F8946A
:102C3000DEBF0FBECDBFDF91CF911F910F91FF90EF
:102C4000EF900895813824EE920774F0BC01882734
:102C500077FD8095982F0E94161E20E030E040E01E
:102C60005CE30E94CA1E089560E070E08EEF92EC73
:102C700008950E94F4150C942216813824EE9207D0
:102C8000A4F0BC01882777FD8095982F0E94161E1E
:102C900026E636E646E65CE30E94CA1E20E030E007
:102CA00040E052E40E94131D08956AE979E984E442
:102CB00093EC08950E94F4150C943D16FF920F9327
:102CC0001F93CF93DF93FC010081C181D281F894DF
:102CD0008981F02EF0948F21898378941DE711501B
:102CE00029F182E090E00E94861988818023B9F35F
:102CF000F8948A818F218A838981802B89837894B3
:102D000080EE91E00E948619F89489818F21898351
:102D100086E490E00E9486198881802311E009F002
:102D200010E078948AE991E00E948619812FDF9162
:102D3000CF911F910F91FF9008951F93CF93DF9331
:102D4000FC011081C181D281912F909560FF12C04A
:102D5000F8948A8189238A838981812B89838AE0F7
:102D600090E00E9486198A81812B8A83789487E378
:102D700090E011C0F8948A8189238A838981812B0C
:102D8000898381E490E00E9486198A81812B8A835D
:102D9000789485E090E0DF91CF911F910C94861993
:102DA0000F931F93CF93DF93FC011081C181D281D8
:102DB000F8948981812B89838A81012F0095802352
:102DC0008A8383E090E00E94861989818023898329
:102DD0008AE090E00E948619C881789485E390E0AB
:102DE0000E9486191C2381E009F480E0DF91CF91D5
:102DF0001F910F910895CF92DF92EF92FF920F9360
:102E00001F93CF93DF931F92CDB7DEB76C01E62EF1
:102E100008E010E0FF24F39461E09F2D9E2109F467
:102E200060E0C60149830E949D16FF0C0150110904
:102E300049810115110581F7411115C0F894D6019A
:102E40001196ED91FC91129791818C918095892337
:102E500081831196ED91FC91129792818C918095CE
:102E60008923828378940F90DF91CF911F910F91E6
:102E7000FF90EF90DF90CF900895EF92FF920F9325
:102E80001F93CF93DF938C01C8E0D0E0F12CEE24A8
:102E9000E394C8010E94D0168111FE28EE0C219700
:102EA000C1F78F2DDF91CF911F910F91FF90EF9080
:102EB0000895CF92DF92FF920F931F93CF93DF93EA
:102EC0001F92CDB7DEB78C01F62E40E065E5798321
:102ED0000E94FB16CF2C7981D72E88E0F82EF601C0
:102EE00061916F0140E0C8010E94FB16FA94B9F7A6
:102EF0000F90DF91CF911F910F91FF90DF90CF90B6
:102F0000089540E06CEC0C94FB16FC0113861586CA
:102F1000148627E030E0DF01A20FB31F13961C9246
:102F20002115310519F021503109F5CF08951F936E
:102F3000CF93DF93EC01162F60E0812F0E94F519EB
:102F4000612F70E0FB01E458FE4FE491E883FB0140
:102F5000E057FE4FE491F0E0EE0FFF1FEC55FE4FFF
:102F6000859194919A838983CE01DF91CF911F91AE
:102F70000C948517AF92BF92CF92DF92EF92FF929F
:102F80000F931F93CF93DF931F92CDB7DEB75C01F2
:102F9000D62EE72EFC018585811164C0C5014983C9
:102FA0000E945E164981811105C0F50113861586C0
:102FB000148671C0442319F040E060EF02C040E085
:102FC0006CEEC5010E94FB1601E0F12CC12C11E052
:102FD000C5010E94D016682FC50169830E94D016D2
:102FE0006981613019F48130B9F433C02F2D30E09C
:102FF00068131BC0F5018385181730F4E20FF31F27
:103000008381802349F402C0181731F060E0193041
:1030100058F4F501148708C0F501EF0DF11D838107
:10302000802B838361E009C0C12EF501E20FF31FFD
:103030008381902F909589238383C5010E949D16DB
:103040001F5F000F11F4F39401E0F7E0FF1508F0A3
:10305000BFCF113438F0F501C386C11009C081E03B
:10306000858706C0F50113861586148680E013C097
:10307000F50183818823B1F3ED2DFE2D80E090E0F2
:10308000D501A80FB91F13962C9121930196883072
:103090009105B1F781E00F90DF91CF911F910F91D2
:1030A000FF90EF90DF90CF90BF90AF900895DC013C
:1030B00080E0615038F0ED91E827F0E0E859FF4FEB
:1030C0008491F7CF089508958230E8F4E82FF0E076
:1030D000EE0FFF1FE257FE4F71836083813041F096
:1030E000809169008C7F842B80936900E89A089511
:1030F00080916900440F551F440F551F837F842B17
:1031000080936900E99A08951F920F920FB60F926B
:1031100011242F933F934F935F936F937F938F93DC
:103120009F93AF93BF93EF93FF93E0918E01F09144
:103130008F010995FF91EF91BF91AF919F918F9171
:103140007F916F915F914F913F912F910F900FBEA3
:103150000F901F9018951F920F920FB60F92112487
:103160002F933F934F935F936F937F938F939F938F
:10317000AF93BF93EF93FF93E0919001F091910192
:103180000995FF91EF91BF91AF919F918F917F91A1
:103190006F915F914F913F912F910F900FBE0F90C4
:1031A0001F90189508951F920F920FB60F92112439
:1031B0002F933F938F939F93AF93BF938091D403AB
:1031C0009091D503A091D603B091D7033091D3034A
:1031D00023E0230F2D3720F40196A11DB11D05C05A
:1031E00026E8230F0296A11DB11D2093D3038093DF
:1031F000D4039093D503A093D603B093D7038091C3
:10320000D8039091D903A091DA03B091DB03019622
:10321000A11DB11D8093D8039093D903A093DA0325
:10322000B093DB03BF91AF919F918F913F912F910D
:103230000F900FBE0F901F9018952FB7F8946091C4
:10324000D4037091D5038091D6039091D7032FBFFB
:1032500008953FB7F8948091D8039091D903A09135
:10326000DA03B091DB0326B5A89B05C02F3F19F008
:103270000196A11DB11D3FBF6627782F892F9A2F78
:10328000620F711D811D911D42E0660F771F881F1F
:10329000991F4A95D1F708958F929F92AF92BF924E
:1032A000CF92DF92EF92FF926B017C010E9429196D
:1032B0004B015C01C114D104E104F104F1F00E945E
:1032C000D2180E942919681979098A099B09683E50
:1032D00073408105910570F321E0C21AD108E1081D
:1032E000F10888EE880E83E0981EA11CB11CC11461
:1032F000D104E104F10429F7DDCFFF90EF90DF90D6
:10330000CF90BF90AF909F908F900895823091059D
:1033100038F0880F991F880F991F05970197F1F7CB
:103320000895789484B5826084BD84B5816084BD3D
:1033300085B5826085BD85B5816085BDEEE6F0E02E
:10334000808181608083E1E8F0E01082808182608A
:103350008083808181608083E0E8F0E0808181600B
:103360008083E1EBF0E0808184608083E0EBF0E03B
:10337000808181608083EAE7F0E0808184608083DF
:103380008081826080838081816080838081806889
:1033900080831092C1000895833081F028F4813039
:1033A00099F08230A1F008958730A9F08830B9F003
:1033B0008430D1F4809180008F7D03C080918000A3
:1033C0008F7780938000089584B58F7702C084B58D
:1033D0008F7D84BD08958091B0008F7703C0809168
:1033E000B0008F7D8093B0000895CF93DF9390E07D
:1033F000FC01E458FE4F2491FC01E057FE4F8491FC
:10340000882349F190E0880F991FFC01E854FE4F92
:10341000A591B49182559E4FFC01C591D4919FB75F
:10342000611108C0F8948C91209582238C93888137
:1034300082230AC0623051F4F8948C91322F309577
:1034400083238C938881822B888304C0F8948C9189
:10345000822B8C939FBFDF91CF9108950F931F9381
:10346000CF93DF931F92CDB7DEB7282F30E0F9015D
:10347000E859FE4F8491F901E458FE4F1491F90187
:10348000E057FE4F04910023C9F0882321F069839F
:103490000E94CC196981E02FF0E0EE0FFF1FE2558A
:1034A000FE4FA591B4919FB7F8948C91611103C020
:1034B0001095812301C0812B8C939FBF0F90DF91CA
:1034C000CF911F910F910895CF93DF93282F30E074
:1034D000F901E859FE4F8491F901E458FE4FD49167
:1034E000F901E057FE4FC491CC2391F081110E9465
:1034F000CC19EC2FF0E0EE0FFF1FEC55FE4FA5911D
:10350000B4912C912D2381E090E021F480E002C061
:1035100080E090E0DF91CF910895FC01818D228DB4
:1035200090E0805C9F4F821B91098F7399270895CB
:10353000FC01918D828D981731F0828DE80FF11D7D
:10354000858D90E008958FEF9FEF0895FC01918D98
:10355000828D981761F0828DDF01A80FB11D5D96F5
:103560008C91928D9F5F9F73928F90E008958FEF63
:103570009FEF08958AE29CE1892B49F080E090E07A
:10358000892B29F00E942A1C81110C9400000895B7
:10359000FC01848DDF01A80FB11DA35ABF4F2C91F0
:1035A000848D90E001968F739927848FA689B789BF
:1035B0002C93A089B1898C9180648C93938D848D98
:1035C000981306C00288F389E02D80818F7D808367
:1035D0000895CF93DF93EC01888D8823C9F0EA89A1
:1035E000FB89808185FD05C0A889B9898C9186FDFC
:1035F0000FC00FB607FCF5CF808185FFF2CFA889F9
:10360000B9898C9185FFEDCFCE010E94C81AE7CF12
:10361000DF91CF910895CF92DF92FF920F931F9386
:10362000CF93DF931F92CDB7DEB76C0181E0D60157
:1036300058968C9358975B969C915B975C968C916F
:103640005C97981307C05096ED91FC91519780813B
:1036500085FD2EC0F601038D10E00F5F1F4F0F7325
:103660001127F02EF601848DF81211C00FB607FC59
:10367000F9CFD6015096ED91FC915197808185FF4D
:10368000F1CFC60169830E94C81A6981EBCF838D8F
:10369000E80FF11DE35AFF4F6083D6015B960C9350
:1036A0005B975296ED91FC915397808180620CC09C
:1036B000D6015696ED91FC91579760835096ED9107
:1036C000FC91519780818064808381E090E00F902D
:1036D000DF91CF911F910F91FF90DF90CF900895D0
:1036E000BF92CF92DF92EF92FF92CF93DF93EC01E4
:1036F0006A017B01B22EE889F98982E08083411555
:1037000081EE580761057105A1F060E079E08DE375
:1037100090E0A70196010E945D1F215031094109E7
:1037200051095695479537952795211580E138071A
:1037300098F0E889F989108260E874E88EE190E0F9
:10374000A70196010E945D1F2150310941095109CD
:103750005695479537952795EC85FD853083EE8501
:10376000FF852083188EEC89FD89B082EA89FB8968
:10377000808180618083EA89FB8980818860808381
:10378000EA89FB89808180688083EA89FB8980815E
:103790008F7D8083DF91CF91FF90EF90DF90CF906E
:1037A000BF9008951F920F920FB60F9211242F937E
:1037B0008F939F93EF93FF93E091EC03F091ED03D0
:1037C0008081E091F203F091F30382FD12C09081B9
:1037D0008091F5038F5F8F732091F603821751F06C
:1037E000E091F503F0E0E452FC4F958F8093F503F0
:1037F00001C08081FF91EF919F918F912F910F9048
:103800000FBE0F901F9018951F920F920FB60F9238
:1038100011242F933F934F935F936F937F938F93D5
:103820009F93AF93BF93EF93FF938CED93E00E9430
:10383000C81AFF91EF91BF91AF919F918F917F91A6
:103840006F915F914F913F912F910F900FBE0F900D
:103850001F9018958CED93E00E948D1A21E0892B22
:1038600009F420E0822F08951092DF031092DE0306
:1038700088EE93E0A0E0B0E08093E0039093E10352
:10388000A093E203B093E30383ED91E09093DD0313
:103890008093DC0385EC90E09093E9038093E80348
:1038A00084EC90E09093EB038093EA0380EC90E04B
:1038B0009093ED038093EC0381EC90E09093EF0301
:1038C0008093EE0382EC90E09093F1038093F003F9
:1038D00086EC90E09093F3038093F2031092F5034B
:1038E0001092F6031092F7031092F8030895CF9206
:1038F000DF92EF92FF920F931F93CF93DF937C01A0
:103900006A01EB0100E010E00C151D0571F06991F2
:10391000D701ED91FC910190F081E02DC70109954F
:10392000892B19F00F5F1F4FEFCFC801DF91CF91A7
:103930001F910F91FF90EF90DF90CF900895611548
:10394000710581F0DB010D900020E9F7AD014150D8
:103950005109461B570BDC01ED91FC910280F3816C
:10396000E02D099480E090E008956FED71E00C94F3
:103970009F1C0F931F93CF93DF93EC010E949F1C1A
:103980008C01CE010E94B51C800F911FDF91CF9159
:103990001F910F9108954F925F926F927F92AF9215
:1039A000BF92CF92DF92EF92FF920F931F93CF932C
:1039B000DF93CDB7DEB729013A01621B730B840B8D
:1039C000950B29893A894B895C892A193B094C094D
:1039D0005D09298B3A8B4B8B5C8B9B01AC01698910
:1039E0007A898B899C890E942D1FE418F5080609A5
:1039F0001709A80197010E947F1F2A0D3B1D4C1D2E
:103A00005D1DCA01B901DF91CF911F910F91FF9008
:103A1000EF90DF90CF90BF90AF907F906F905F90CE
:103A20004F9008955058BB27AA270ED075C166D174
:103A300030F06BD120F031F49F3F11F41EF45BC1E4
:103A40000EF4E095E7FB51C1E92F77D180F3BA1767
:103A5000620773078407950718F071F49EF58FC10C
:103A60000EF4E0950B2EBA2FA02D0B01B901900199
:103A70000C01CA01A0011124FF27591B99F0593FDD
:103A800050F4503E68F11A16F040A22F232F342F25
:103A90004427585FF3CF469537952795A795F04073
:103AA0005395C9F77EF41F16BA0B620B730B840B88
:103AB000BAF09150A1F0FF0FBB1F661F771F881F40
:103AC000C2F70EC0BA0F621F731F841F48F4879598
:103AD00077956795B795F7959E3F08F0B3CF939587
:103AE000880F08F09927EE0F979587950895D9D0FC
:103AF00008F481E008950CD00FC107D140F0FED04A
:103B000030F021F45F3F19F0F0C0511139C1F3C01A
:103B100014D198F39923C9F35523B1F3951B550B91
:103B2000BB27AA2762177307840738F09F5F5F4F90
:103B3000220F331F441FAA1FA9F333D00E2E3AF0D1
:103B4000E0E830D091505040E695001CCAF729D0EB
:103B5000FE2F27D0660F771F881FBB1F261737073A
:103B60004807AB07B0E809F0BB0B802DBF01FF276A
:103B700093585F4F2AF09E3F510568F0B6C000C1D0
:103B80005F3FECF3983EDCF3869577956795B795A4
:103B9000F7959F5FC9F7880F911D9695879597F9BF
:103BA0000895E1E0660F771F881FBB1F6217730738
:103BB0008407BA0720F0621B730B840BBA0BEE1F4D
:103BC00088F7E095089504D06894B111D9C008959C
:103BD000BCD088F09F5790F0B92F9927B751A0F02B
:103BE000D1F0660F771F881F991F1AF0BA95C9F791
:103BF00012C0B13081F0C3D0B1E00895C0C0672FCA
:103C0000782F8827B85F39F0B93FCCF38695779540
:103C10006795B395D9F73EF4909580957095619529
:103C20007F4F8F4F9F4F0895E89409C097FB3EF454
:103C300090958095709561957F4F8F4F9F4F9923F9
:103C4000A9F0F92F96E9BB279395F6958795779577
:103C50006795B795F111F8CFFAF4BB0F11F460FF37
:103C60001BC06F5F7F4F8F4F9F4F16C0882311F08F
:103C700096E911C0772321F09EE8872F762F05C0A3
:103C8000662371F096E8862F70E060E02AF09A953E
:103C9000660F771F881FDAF7880F9695879597F933
:103CA0000895990F0008550FAA0BE0E8FEEF1616CD
:103CB0001706E807F907C0F012161306E407F50720
:103CC00098F0621B730B840B950B39F40A2661F094
:103CD000232B242B252B21F408950A2609F4A14037
:103CE000A6958FEF811D811D089597F99F6780E844
:103CF00070E060E008959FEF80EC089500240A943E
:103D00001616170618060906089500240A941216B6
:103D10001306140605060895092E0394000C11F4E9
:103D2000882352F0BB0F40F4BF2B11F460FF04C096
:103D30006F5F7F4F8F4F9F4F089557FD9058440FEF
:103D4000551F59F05F3F71F04795880F97FB991FFA
:103D500061F09F3F79F087950895121613061406B7
:103D6000551FF2CF4695F1DF08C016161706180644
:103D7000991FF1CF86957105610508940895E8941F
:103D8000BB2766277727CB0197F908958ADF08F4C8
:103D90008FEF08950BD0C0CFB1DF28F0B6DF18F059
:103DA000952309F0A2CFA7CF1124EACFC6DFA0F355
:103DB000959FD1F3950F50E0551F629FF001729FC0
:103DC000BB27F00DB11D639FAA27F00DB11DAA1FDF
:103DD000649F6627B00DA11D661F829F2227B00D2C
:103DE000A11D621F739FB00DA11D621F839FA00DB7
:103DF000611D221F749F3327A00D611D231F849F07
:103E0000600D211D822F762F6A2F11249F5750405D
:103E10008AF0E1F088234AF0EE0FFF1FBB1F661FF8
:103E2000771F881F91505040A9F79E3F510570F0B1
:103E30005CCFA6CF5F3FECF3983EDCF38695779599
:103E40006795B795F795E7959F5FC1F7FE2B880FAC
:103E5000911D9695879597F90895DB018F939F9310
:103E60000E949E1FBF91AF91A29F800D911DA39FA5
:103E7000900DB29F900D11240895991B79E004C014
:103E8000991F961708F0961B881F7A95C9F7809599
:103E9000089597FB072E16F4009407D077FD09D0FC
:103EA0000E94A91F07FC05D03EF4909581959F4F75
:103EB0000895709561957F4F0895A1E21A2EAA1B6F
:103EC000BB1BFD010DC0AA1FBB1FEE1FFF1FA217CA
:103ED000B307E407F50720F0A21BB30BE40BF50BC7
:103EE000661F771F881F991F1A9469F76095709550
:103EF000809590959B01AC01BD01CF010895052EE1
:103F000097FB1EF400940E94961F57FD07D00E9455
:103F10005D1F07FC03D04EF40C94961F50954095FE
:103F2000309521953F4F4F4F5F4F08959095809565
:103F3000709561957F4F8F4F9F4F08950E94C31FCB
:103F4000A59F900DB49F900DA49F800D911D1124ED
:103F50000895AA1BBB1B51E107C0AA1FBB1FA617D0
:103F6000B70710F0A61BB70B881F991F5A95A9F722
:103F700080959095BC01CD010895EE0FFF1F05902F
:103F8000F491E02D0994A29FB001B39FC001A39FBB
:103F9000700D811D1124911DB29F700D811D112482
:103FA000911D0895FC0188279927E89421912032DA
:103FB000E9F3293010F02E30C8F32B3241F02D32C6
:103FC00039F4689404C00E943B20820F911D219116
:103FD00020532A30C0F31EF4909581959F4F089589
:103FE0001F93FC0199278827BC01E8941191103296
:103FF000E9F3193010F01E30C8F31B3251F01D32B6
:1040000049F4689406C00E942620610F711D811D2D
:10401000911D119110531A30B0F33EF49095809594
:10402000709561957F4F8F4F9F4F1F910895FB01B2
:10403000DC014150504048F001900D920020C9F73A
:1040400001C01D9241505040E0F70895592F482F6C
:10405000372F262F660F771F881F991F660F771F30
:10406000881F991F620F731F841F951F660F771F8C
:10407000881F991F08957AE0979F902D879F802D24
:10408000910D11240895DC01CB01FC01F999FECFBB
:1040900006C0F2BDE1BDF89A319600B40D924150D0
:1040A0005040B8F70895F999FECF92BD81BDF89AB6
:1040B000992780B50895262FF999FECF92BD81BD2D
:1040C000F89A019700B4021639F01FBA20BD0FB656
:0E40D000F894FA9AF99A0FBE0895F894FFCF6B
:1040DE00010000003C000700F8FF41002D00CDCC90
:1040EE00CC3DE093040005000200010028FF369845
:1040FE00541401C128F824E5050000D728F961E71A
:10410E00050000DC28FF004A541401DF28FFCE69A9
:10411E00361604E328DC1AE60500001328286FE59E
:10412E000500008A28426FE505000086E8030A00B4
:10413E00C8AF00003075000010270000E0930400A7
:10414E00FF00FCE1A8A88003AC0228013101270181
:10415E00580289066F02FF014C023B014A056318A3
:10416E00631841636B2066726F6D206777207265EE
:10417E00632E00322E302E312D62657461004F4B4E
:10418E0000302E390048656174696E6720456E7681
:10419E0069726F6E6D656E74005E00BC0077010013
:1041AE000000000B1B771C8D1AA61A981AE91A0D1F
:0E41BE000A006E616E00696E66006F76660024
:1078000011E0A0E0B1E0E4EFFFE702C005900D92C7
:10781000A630B107D9F721E0A6E0B1E001C01D9282
:10782000AE34B207E1F7CDB7DEB76197DEBFCDBFAB
:10783000112484B78093270114BE88E180936000EF
:1078400089E280936000259A86E020E295B1922734
:1078500095B93FEF40E792E0315040409040E1F76A
:1078600000C00000815091F78091270181FD11C077
:107870008EE284B981E58CBD812C912C55245394E2
:1078800011E0CC24CA94DC2CAA24A39472E0B72E75
:10789000FDC082E08093C00088E18093C10086E053
:1078A0008093C20080E18093C400E12CF12CC12CB4
:1078B000D12CAA24AA94BA2C01E0A8950BD3813428
:1078C00071F408D3898B12D38989823811F482E04C
:1078D00053C0813811F485E64FC083E04DC0823437
:1078E00011F484E103C0853419F485E00BD363C03F
:1078F000853541F4EFD2E82EEDD2F12CF82AEE0CCA
:10790000FF1C58C0863521F484E0FCD280E034C0EE
:107910008436E1F4DFD2DED2882EDCD2C80CD11C52
:10792000912C981480F4D6D2182FD4D2F701E90DF7
:10793000F11D212F30E0382B090107BFE8951124F4
:1079400093949394EECFC7018CD134C0843761F403
:10795000C1D2C0D2182FBED2C9D2F70185917F0102
:10796000B2D21150D1F728C0853741F4BFD28EE191
:10797000AAD285E9A8D28FE0A6D21DC08135D1F464
:10798000BA82A982BC82AB82C60134E09695879503
:107990003A95E1F79E838D83C60175D198878F83D1
:1079A00048E050E06BE171E0CE01019602D39ED237
:1079B00011E002C09BD210E080E185D2112309F4CE
:1079C0007CCF56CF43E050E060E070E089E291E088
:1079D000E0D248E050E06BE171E0CE010196D9D2EF
:1079E00029982A9A63E083E29AD16CE485E297D1E0
:1079F00067E286E294D163E780E591D164E08DE3AC
:107A00008ED161E082E28BD161E081E288D161E0D8
:107A10008CE385D121E041E060E070E086E058D160
:107A2000873209F008C180912A01809328011092C1
:107A30004D018FEF80932A0180932B0103E22AE00E
:107A400047E06FEF66D260E084E269D160E08EEFDC
:107A500083D180912A018F3F09F4EDC080912901E3
:107A600081508E3F08F46CC003E222E043E06FEFE8
:107A700080E04FD263E084E06FD1882379F383E321
:107A800091E055D2682F80E090E0A2D2F999FECF24
:107A900099CF46E050E063E371E08DE091E064D27D
:107AA000892B79F5C3018150904F082F02950077FB
:107AB00040E050E0602F70E0DA01A45DBE4FFA01B3
:107AC000E60FF71F1E962C911E9730E0322F2227CB
:107AD0001D96AC912A2B090157BEE89511244E5FE3
:107AE0005F4F4031510541F7011106C044E0880F56
:107AF000991F4A95E1F7B5D0E114F10409F482C069
:107B0000370189859A8590930E0180930D018B85AD
:107B10009C859093100180930F01730121E0E21A7C
:107B2000F108F0921201E092110104EC22E342E02C
:107B30006FEF80E0EED168E083E00ED18111A9CF34
:107B40006FE584E2ECD010930D0110920E0103EC6E
:107B500022E14FE06FEF80E0DCD160E08FE0FCD00D
:107B60008D819E8124E0880F991F2A95E1F78BD0A3
:107B700098878F8388E0FE013196ADE0B1E00190F7
:107B80000D928A95E1F7B0921601A092150104ECCE
:107B900022E540E06FEF80E0BCD163E081E0DCD023
:107BA000882309F448C088E0E3E3F1E0DE01199698
:107BB00001900D928A95E1F748E050E0BE01675FC1
:107BC0007F4FCE010196D0D1892BA9F18091370149
:107BD000909138018038974070F588E0FE01399621
:107BE000DE01119601900D928A95E1F7D886CF8239
:107BF00048E050E06BE171E0CE010196DAD16D848E
:107C00007E847FCF8D859E8534E0880F991F3A95BD
:107C1000E1F739D02F8538898217930721F01E8626
:107C20001D86188A1F8648E050E06BE171E0CE01A6
:107C30000996BFD12BCF8D819E8124E0880F991F9B
:107C40002A95E1F720D02F8138858217930709F014
:107C50001DCF1CBCA89580912701282EF401099501
:107C600015CF23E0FC0127BFE89507B600FCFDCF48
:107C700025E0FC0127BFE89507B600FCFDCF81E1B8
:107C800087BFE8950895AC01413088E7580710F0A8
:107C900040E058E7E0E0F0E08FEF9FEF411551053D
:107CA000B1F02591822768E0DC01B695A7959C018B
:107CB000217033273195219531092170307AC9011E
:107CC0008A279B27615081F741505109E7CF0895DA
:107CD0002A988EBD0DB407FEFDCF8EB59FEF4150A3
:107CE000D0F0222369F09EBD0DB407FEFDCF8EB506
:107CF00061157105A1F3DB018C936F5F7F4FEFCFAF
:107D0000FB013196DB018C918EBD0DB407FEFDCFDA
:107D10008EB5BF01E4CF2A9A089520E0D9CFCF9342
:107D2000DF931F92CDB7DEB7698320E041E0BE014B
:107D30006F5F7F4FCDDF0F90DF91CF91089540E0CF
:107D400060E070E082EEE9DF40E060E070E081EE4C
:107D5000E4DF60E787E2E3CFEF92FF920F931F9398
:107D6000CF93DF93F82ED62FEE24EA94A895C091F6
:107D70000901C695C695C695C95F10912A01299833
:107D80006EE080E2CCDFDBDF1093000145E060E0D5
:107D900071E08AE2C2DF45E060E071E080E3BDDFD0
:107DA0004C2F66E071E080EAB8DF299A2A98EEBC91
:107DB0000DB407FEFDCFCEB52A9A8C2F8073B1F398
:107DC000299860E387E2ABDFC4FF05C040E060E0D4
:107DD00070E081EEA2DF6FE080E2A1DF6091290117
:107DE0008AE29DDFACDF299A0FEF1FEFA89521E013
:107DF00041E060E070E087E16BDF80FF02C04FEFA1
:107E000044C021E041E060E070E080E661DF813263
:107E100030F040E060E070E082EE7FDF80E021E063
:107E2000482F6CE271E081E653DF89DF90912E01EB
:107E3000809129019813E3CF409131018091300165
:107E40008770833011F5483001F580912D015091F4
:107E50002801851303C091E090934D019091330167
:107E6000692F70E020912B0130E021503109621719
:107E7000730724F420914D01222311F0851305C0CE
:107E80009F5F90932B0180932A0191E04F1190E026
:107E900085EA8A95F1F700000150110921F4892F34
:107EA000D11105C009C0992309F4A0CF04C0D15055
:107EB000992309F45BCF81E0DF91CF911F910F915E
:107EC000FF90EF9008959091C00095FFFCCF8093B4
:107ED000C60008958091C00087FFFCCF8091C0004C
:107EE00084FD01C0A8958091C6000895F3DF80321B
:107EF00039F088E18093600088E080936000FFCFD4
:107F000084E1E1CFCF93C82FE5DFC150E9F7CF91EE
:107F1000EDCF0F9390912901E6E0F1E091839083FA
:107F2000828366834583048323830F910895FC0134
:107F300088279927E89421912032E9F3293010F01D
:107F40002E30C8F32B3239F02D3231F4689403C04F
:107F500018D0820F911D219120532A30C8F31EF4AE
:107F6000909581959F4F0895FB01DC0104C08D9190
:107F70000190801921F441505040C8F7881B990B9B
:107F800008957AE0979F902D879F802D910D112461
:107F90000895DC01CB01FC01F999FECF06C0F2BDCA
:107FA000E1BDF89A319600B40D9241505040B8F7B7
:107FB0000895DC01A40FB51F4150504040F0CB01A3
:107FC000840F951F2E9105D041505040D8F7089549
:107FD000262FF999FECF92BD81BDF89A019700B482
:107FE000021639F01FBA20BD0FB6F894FA9AF99A22
:047FF0000FBE089523
:067FF40000FCE1A8A8005A
:040000030000780081
:00000001FF
