:100000000C94E3000C94B5180C94DC180C940B01C0
:100010000C940B010C940B010C9417020C940B0123
:100020000C940B010C940B010C940B010C947111AA
:100030000C940B010C940B010C940B010C940B0110
:100040000C9404190C940B010C94031C0C94351C97
:100050000C940B010C940B010C940B010C940B01F0
:100060000C940B010C940B01005EBCE2613FDD833C
:10007000C29C7E20A3FD1F419DC3217FFCA2401E88
:100080005F01E3BD3E6082DC237D9FC1421CFEA078
:10009000E1BF5D0380DE3C62BEE0025CDF81633D68
:1000A0007C22C09E1D43A1FF4618FAA427799BC558
:1000B00084DA3866E5BB5907DB856739BAE4065848
:1000C0001947A5FB7826C49A653BD987045AB8E638
:1000D000A7F91B45C6987A24F8A6441A99C7257B28
:1000E0003A6486D85B05E7B98CD2306EEDB3510F18
:1000F0004E10F2AC2F7193CD114FADF3702ECC9208
:10010000D38D6F31B2EC0E50AFF1134DCE90722CF7
:100110006D33D18F0C52B0EE326C8ED0530DEFB1E7
:10012000F0AE4C1291CF2D73CA947628ABF51749D7
:100130000856B4EA6937D58B5709EBB536688AD4C7
:1001400095CB2977F4AA4816E9B7550B88D6346AB7
:100150002B7597C94A14F6A8742AC896154BA9F7A7
:10016000B6E80A54D7896B35000000080002010088
:100170000003040700000000000000000102040862
:100180001020408001020408102001020408102001
:10019000040404040404040402020202020203032D
:1001A00003030303000000002300260029000000D1
:1001B0000000250028002B0000000000240027007C
:1001C0002A00E910651C11241FBECFEFD8E0DEBF66
:1001D000CDBF11E0A0E0B1E0E0E4F1E402C00590A1
:1001E0000D92A03FB107D9F724E0A0EFB1E001C024
:1001F0001D92AB35B207E1F711E0C6ECD1E004C0C7
:100200002297FE010E94F01FC23CD107C9F70E944D
:10021000D5100C949E200C940000EF92FF920F9347
:10022000FC0180917A038183628346830583277072
:100230008481807F822B98E0E99E700111248E29B1
:100240008F7E8483CF010F91FF90EF9008950895E2
:10025000E8E8F3E080818460808381818078818315
:10026000089580918903982F9F709B3018F0807FAC
:10027000809389030895E8E8F3E08081877F8F7E8B
:10028000808310928403109285031092860310924B
:10029000870343E050E060E070E08AE793E00C946D
:1002A000742062E083E00E94261A61E083E00E94ED
:1002B0005F1A109236021092370210923802109292
:1002C0003902109243021092440210924502109299
:1002D000460242E050E060E971E081E00E9495183A
:1002E00061E086E00E94261A2CE030E080915E01F9
:1002F00090915F01281B390B8EEE92E002C095951C
:1003000087952A95E2F790935D0180935C0186E1E1
:1003100093E00E94F21460E086E193E00C9458159B
:100320008F929F92AF92BF92CF92DF92EF92FF9205
:100330000E945A194B015C0180913F02909140024A
:10034000A0914102B091420275016401C81AD90A14
:10035000EA0AFB0A81F10E944E196093260270930B
:100360002702809328029093290280E4C81682E431
:10037000D8068FE0E806F104C8F1C701B6010E9473
:10038000451E9B01AC0160EC71EE84E69CE40E948A
:10039000AC1D20910E0130910F0140911001509140
:1003A00011010E94AC1D60933B0270933C0280934C
:1003B0003D0290933E0280923F0290924002A092B2
:1003C0004102B09242028091430290914402A09176
:1003D0004502B09146020196A11DB11D80934302D2
:1003E00090934402A0934502B0934602FF90EF9091
:1003F000DF90CF90BF90AF909F908F90089580E056
:1004000090E0892B21F084E090E00E940000809130
:100410008803897F8E7F8093880381E080937C03AB
:1004200010927B0360E081E090E00C948C201F929E
:100430000F920FB60F9211240F900FBE0F901F90C6
:10044000189520917E0330917F032817390751F0CA
:10045000209188032F712093880390937F038093CA
:100460007E0305C080918803805E80938803E091BD
:100470007E03F0917F030190F081E02D309709F029
:1004800009950E944E1960938003709381038093B5
:10049000820390938303089580E090E0892B21F0FC
:1004A00085E090E00E94000082E891E00C94210237
:1004B0008AE791E00C9421020F931F930E944E193A
:1004C0000091800310918103209182033091830376
:1004D000601B710B820B930B1F910F9108958091FC
:1004E0007A038F3F59F080E090E0892B21F087E07C
:1004F00090E00E9400008EE791E018C00E945C022C
:10050000613D77408105910598F0809188038036A0
:1005100018F482E891E00AC080E090E0892B21F095
:1005200089E690E00E94000086E791E00C942102A9
:100530000895E0917E03F0917F030280F381E02D26
:10054000309709F00994089590918903907781E09C
:10055000903709F080E00895CF92DF92EF92FF92FA
:100560000E945C026B017C010E94A402882329F096
:1005700080E69AEEA0E0B0E004C080E197E2A0E05F
:10058000B0E08C159D05AE05BF0540F48AE891E00A
:10059000FF90EF90DF90CF900C942102FF90EF90AE
:1005A000DF90CF900895E8E8F3E081818F78818330
:1005B00010927F0310927E038AE891E00C9421024E
:1005C00090E003960C948C20CF93DF93C0E0D0E0B2
:1005D0006FEF8C2F0E94E0022196C11581E0D807B1
:1005E000B9F7DF91CF91089590E003960C948420A1
:1005F0008EBD00000DB407FEFDCF8EB50895BF92ED
:10060000CF92DF92EF92FF920F931F93CF93DF93DE
:10061000C82F8B01C42EB22E80918D03882399F0B0
:100620003FB7F89480918D03813059F48DB3809356
:100630008B038DB390918C03909598239DBB3FBF06
:1006400002C030938B0381E58CBD81E08DBD2A987B
:100650008AE090E00E94B7198C2F0E94F802D82EF1
:10066000E801CC20B9F0BB2051F08FEF0E94F802D6
:10067000D82E0115110561F08883219609C07E01ED
:100680008FEFE81AF80A88810E94F802D82EE70155
:10069000CA94E7CF2A9A80918D03882361F09FB78F
:1006A000F89420918D0380918B03213019F48DBB38
:1006B0009FBF01C08FBF8AE090E00E94B7198D2DC7
:1006C000DF91CF911F910F91FF90EF90DF90CF902E
:1006D000BF900895CF93DF931F92CDB7DEB76983A4
:1006E00020E041E0BE016F5F7F4F0E94FF020F904C
:1006F000DF91CF91089529986CE080E20C946A0311
:1007000090918903892F8077803759F0892F8295BE
:100710008F708F5F87708295807F9F78982B9093E2
:100720008903809188038B7F8F7E8093880380E08C
:1007300090E0892B21F087E690E00E9400000C9465
:100740007B036FE080E20E946A03609170016F3F5B
:1007500019F08AE20E946A03299A089521E041E093
:1007600060E070E00C94FF02CF9386E00E94AE033D
:10077000C82F85E00E94AE0391E0883709F090E031
:1007800081E0C73209F080E08923CF91089520E00D
:1007900040E060E070E00C94FF02EF92FF921F9344
:1007A000CF93DF931F92CDB7DEB7182F7B01299827
:1007B00082E890E049830E94B7196EE080E20E94CF
:1007C0006A0384E690E00E94B719612F8AE20E94D2
:1007D0006A03612F80E30E946A0381EE0E94C703CF
:1007E00049811F3F11F480EB01C080EA20E0B7018E
:1007F0000E94FF02299AE12CF12C8FEF0E94C7037F
:10080000182F807321F481E0E81AF108B1F72998D4
:1008100060E387E20E946A0314FF03C081EE0E9436
:10082000C7030E94A10315FB882780F90F90DF9171
:10083000CF911F91FF90EF9008950F931F93CF9347
:10084000DF93082FEB0180917A0388831B8112FDCF
:1008500005C0169516951695195F01C010E220E0A7
:1008600030E0232B21F080E090E00E940000412F37
:10087000113208F040E2BE01802F0E94CD0391E0CA
:100880000F3F09F090E0892BDF91CF911F910F91DD
:1008900008951F93CF93DF93EC011A818091880311
:1008A00080FF03C01F3FA9F511C0111103C01091B3
:1008B0007B030CC01F3F51F0812F0E94F4028F3F39
:1008C00021F480917B0398819813182FBE01812F0A
:1008D0000E941D0490917B0319131CC0811112C04A
:1008E00080E090E0892B21F085E690E00E940000F6
:1008F0008091890391E0980F9F70807F892B80936E
:10090000890307C080918903807F8093890381E0F8
:1009100001C080E0DF91CF911F910895209188035D
:1009200022FD0C94490480E008951F93CF93DF9338
:10093000EC0121E041E060E070E080E60E94FF020F
:10094000182F813220F082EE0E94C70310E021E0D0
:10095000412FBE0181E60E94FF0260E487E20E940F
:100960006A03812FDF91CF911F910895CF93219A30
:10097000229A0E943B1129982A9A6EE080E20E94F6
:100980006A0365E070E080E090E00E947D1963E01A
:1009900083E20E946A036FE584E20E946A0368E7CB
:1009A00085E20E946A0367E286E20E946A0363E7C7
:1009B00080E50E946A0366E08DE30E946A030E945C
:1009C000B403C82F882371F162E082E20E946A03B7
:1009D00060E081E20E946A0363E08CE30E946A03A4
:1009E0008FEF8093710120E045E061E771E08BE2D9
:1009F0000E94FF0220E045E061E771E08AE20E9488
:100A0000FF0220E045E061E771E080E30E94FF0221
:100A100082EE0E94C70381EE0E94C70360E787E26F
:100A20000E946A038C2FCF9108958F3F51F08093DD
:100A3000700163E082E20E946A0361E081E20E9449
:100A40006A030C94A103CF93DF931F92CDB7DEB757
:100A5000682F8FEF860F8E3F68F460937A03862F9E
:100A600069830E941505698180E090E00E948C20D6
:100A700081E00CC080E090E0892B21F08EE690E0D0
:100A80000E9400008FEF80937A0380E00F90DF9147
:100A9000CF9108950E94B60481110BC080E090E0D0
:100AA000892B21F087E690E00E94000086E791E024
:100AB00017C08091880380618093880386E68093C5
:100AC0007A0366E680E090E00E948C2080917A03B1
:100AD0008F3F21F00E942305882341F386E891E0AF
:100AE0000C942102CF93DF93FC01108211821282B9
:100AF0001382148215821682DC0117968AE1ED01B9
:100B000019928A95E9F783818C7F82608383DF91D4
:100B1000CF910895FC0124812295269527702130DC
:100B200011F487810895211104C007960E940320C3
:100B3000089580E008950E948A0591E0811101C026
:100B400090E0892F0895FC01248122952695277035
:100B5000253029F46781708581859285089521115A
:100B600003C007960C94212060E070E0CB0108954B
:100B7000FC012481229526952770223019F4878163
:100B800090850895211103C007960C94032080E0FE
:100B900090E008951F93CF93DF93EC011E811A30EC
:100BA00059F564E070E08FEA92E00E94C71281E09C
:100BB0008093AA028C8184FF06C062E971E08EEB0B
:100BC00093E00E94EA1C8D81833059F4CE010E948B
:100BD000B80564EB70E0681B790B8FEA92E00E9425
:100BE0000E130E944E196093AB027093AC02809377
:100BF000AD029093AE0254C01B3019F58D8188313F
:100C000009F04EC0CE010E94A30560934302709389
:100C10004402809345029093460210923202109251
:100C20003302109234021092350210923B0210925D
:100C30003C0210923D0210923E0281E080933A0203
:100C40002FC0113081F48D81823051F5CE010E9488
:100C50009B0580931102682F612786E0DF91CF9179
:100C60001F910C945F1A1636D9F48D818C31C1F422
:100C7000CE010E949B05882359F00E944E19609373
:100C8000120270931302809314029093150208C00D
:100C90001092120210921302109214021092150276
:100CA000DF91CF911F9108950F931F93CF93DF93FF
:100CB000EC016115710561F0FB0101900020E9F77D
:100CC0003197E61BF70BE931F10518F0E9E101C0B6
:100CD000E0E00E2F10E0C801A3E0880F991FAA954D
:100CE000E1F79B819770982B9B838C818F718C830C
:100CF000EE2329F0A801CE0107960E944820FE01AC
:100D0000E00FF11F1782CE01DF91CF911F910F915C
:100D10000895EF920F9380917A038F3FC9F480E09A
:100D200090E0892B21F086E090E00E940000E12C09
:100D300003E023E04FEF60E088E393E00E940D01C1
:100D400062EE71E00E9454060F91EF900C944904FA
:100D50000F91EF900895FC018381877088608383F1
:100D600084818F71806284836783CF010895FC0141
:100D7000838187708860838384818F71806284839C
:100D80006783CF010895FC01838187708862838324
:100D90008481806E8483478350876187728723872D
:100DA000CF010895FC0184818F71806A84838381DF
:100DB0008770806283834783508761877287CF0102
:100DC0000895FC0184818F7180648483838187709E
:100DD0008061838370876783CF0108950C948E04AC
:100DE00020917A03FC0121832481207F2160F8E097
:100DF0006F9FB0011124262BFC0124830C948E04D8
:100E00008F929F92AF92BF92EF920F93E82E0E9423
:100E10005C024B015C0106E123E04FEF60E088E3F8
:100E200093E00E940D01B501A4010E94D2060F912A
:100E3000EF90BF90AF909F908F900C948E04EF92A4
:100E40000F93CF93DF938F3F19F4C3EAD1E001C032
:100E5000EA01E22E062F20E0482F60E088E393E0CD
:100E60000E940D01BE010E945406DF91CF910F91A7
:100E7000EF900C948E04CF92DF92EF92FF920F933B
:100E80001F93CF93DF936C01EB01F42E009781F059
:100E9000E42E0BE023E04FEF60E088E393E00E9454
:100EA0000D01B6010E9454060E948E04182F01C045
:100EB00011E0209779F0EF2C0CE023E04FEF60E099
:100EC00088E393E00E940D01BE010E9454060E9437
:100ED0008E041823812FDF91CF911F910F91FF90E6
:100EE000EF90DF90CF900895EF920F93942FE12C25
:100EF000062F22E0482F692F88E393E00E940D011E
:100F000062EE71E00E9454060F91EF900C948E04F3
:100F100040E063E08AE00E94740740E068E18BE013
:100F20000E94740740E068E186E60E94740740E092
:100F300069E186E60E94740740E06AE186E60E9465
:100F4000740740E06BE186E60E9474070E944E1928
:100F500060931602709317028093180290931902FF
:100F600060931A0270931B0280931C0290931D02DF
:100F700060931E0270931F028093200290932102BF
:100F8000609322027093230280932402909325029F
:100F9000609326027093270280932802909329027F
:100FA00060932A0270932B0280932C0290932D025F
:100FB00008956F927F928F929F92AF92BF92CF923D
:100FC000DF92EF92FF92CF93DF934B015C01C42F2E
:100FD000622E0E944E196B017C0181E0611080E05D
:100FE00080935E03712CD0E00E944E196C197D092C
:100FF0008E099F09681579058A059B05A0F4711073
:1010000012C00E94990A0E94031940915D03477023
:1010100050E04C175D0741F780915E038611E4CFE5
:1010200077247394E1CF872DDF91CF91FF90EF90DC
:10103000DF90CF90BF90AF909F908F907F906F90F8
:101040000895EF920F931F93CF93DF93EC01162F28
:10105000E12C0FE023E04FEF0E940D0162EE71E002
:101060000E9454068B81877080618B838C818F7185
:10107000806C8C8381E08F831886CE010E948E0461
:1010800011110DC02FE043E060ED77E080E090E0CB
:10109000DF91CF911F910F91EF900C94D907DF91C1
:1010A000CF911F910F91EF900895EF920F93CF93EF
:1010B00080E090E0892B21F08CE090E00E9400001D
:1010C00060E088E393E00E94210820E042EE51E0D6
:1010D00062E18FEF0E941F07C0917B03E12C06E0C5
:1010E00023E04FEF60E088E393E00E940D016C2F56
:1010F0000E94B7060E94EE0626E043E060ED77E02E
:1011000080E090E00E94D90783EC9AE0892B29F0D7
:10111000CF910F91EF900C94C30ACF910F91EF9064
:101120000895EF920F9390915E0380915A0381117D
:1011300066C09D30A1F480E090E0892B21F08BE027
:1011400090E00E94000028E088E190E00FB6F8945B
:10115000A895809360000FBE20936000FFCF9B3165
:1011600009F452C0963079F48091600361E08823DD
:1011700019F08D3409F060E060937D0383E091E025
:101180000E948C2041C0933119F40E9455083CC044
:10119000923121F480E00E94000736C0913059F46A
:1011A00080E090E0892B81F189E593E00E94A3051E
:1011B0000E94000029C09A30F1F4809160038334CA
:1011C00019F580E090E0892B21F08DE090E00E94FD
:1011D00000000E94E402E12C0AE023E04FEF60E00F
:1011E00088E393E00E940D016EEA71E00E945406CC
:1011F0000E94EE0609C081E09C3121F406C081E026
:101200009A3119F080E001C081E00F91EF900895CC
:10121000DF92EF92FF920F931F93CF93DF9300D053
:10122000CDB7DEB780E090E0892B21F081E090E03F
:101230000E94000089E593E00E94950490915C0370
:10124000092F0695069506950A3108F009E192FDE9
:1012500003C027E0200F01C020E2E0905D03409131
:101260005E03D0905A0310915903F0905B038217EC
:1012700041F080E090E0892B09F43BC18CE690E0DE
:101280000AC09370923091F080E090E0892B09F4CD
:1012900030C18DE690E00F900F90DF91CF911F91BC
:1012A0000F91FF90EF90DF900C94000080917B03F2
:1012B000181731F0612F8D2D4A830E94E0024A8178
:1012C0003E2D37703983809189038068809389032C
:1012D00080917A03F8125AC020915C03822F869580
:1012E000869586958A3108F089E1E8E08E9FC001F5
:1012F0001124922F9770982B90935C03E02FF0E0CD
:10130000E75AFC4F178280915D0383FF19C081E289
:10131000E9E5F3E0A8E3B3E001900D928A95E1F7E7
:1013200080913C03877F806180933C03F092390376
:10133000D0923A0388E393E04A830E948E044A8164
:1013400080915D0384FD10C03981333069F4809150
:101350005E038F3009F0AAC0CCC0493109F4B6C091
:101360000E9491088111C5C08AEC95E0892B09F48F
:10137000C0C089E593E00F900F90DF91CF911F914E
:101380000F91FF90EF90DF900C94CA058FEFF81249
:101390006AC03981333009F051C08091880382FFDF
:1013A0002DC0473059F580917B03D81609F4A1C0B0
:1013B00080E00E94850B882309F49BC00E944E198F
:1013C00060938403709385038093860390938703CF
:1013D0000E944E197370882799270E947D191091D9
:1013E0007C03E12C08E023E04FEF6D2D88E393E0D0
:1013F0000E940D01612F0E94B7064DC0483009F4CC
:1014000078C04431D9F480917B03181317C00E942F
:101410004E197370882799270E947D19F0907B03DD
:10142000E12C05E123E04FEF6D2D88E393E00E946E
:101430000D016F2D0E94B7060E94490480917B0325
:10144000181308C080917A03D81621F08091880380
:1014500082FD4AC03981333009F44BC080917B034F
:10146000181347C081CF8091880382FF42C0398121
:10147000333079F44851423060F489E593E00E94BA
:101480008A058E3F31F061E0680F89E593E00E94A4
:10149000B70689E593E00F900F90DF91CF911F91F0
:1014A0000F91FF90EF90DF900C944904443009F1C4
:1014B000483109F052CFE12C09E123E04FEF6D2DC7
:1014C00088E393E00E940D0161E095CF809188034D
:1014D00083FF0FC0877F8093880389E593E00E9494
:1014E0008A0580938A0305C089E593E00E94490438
:1014F000B1CF0F900F90DF91CF911F910F91FF907F
:10150000EF90DF900895CF938091880384FF0BC004
:10151000C6E087E10E94AE0380FD05C0C15019F00E
:101520000E940809F6CFCF9108950E9499020C9469
:10153000830AA8950C94950A8F929F92AF92BF92BE
:10154000CF92DF92EF92FF926B017C010E944E19C5
:101550004B015C010E944E19681979098A099B099F
:101560006C157D058E059F0528F40E94990A0E943E
:101570000319F0CFFF90EF90DF90CF90BF90AF9026
:101580009F908F9008951F93CF93DF9340E061EB7E
:1015900071E086EB91E00E943B0720E042EE51E0D3
:1015A00065E08AE00E941F0720E042EE51E065E11D
:1015B0008BE00E941F0720E042EE51E063E081E0F3
:1015C0000E941F0720E042EE51E067E186E60E949C
:1015D0001F07CCE1D1E014E120E042EE51E066E0EB
:1015E000812F0E941F0740915E01BE0186E193E0BA
:1015F0000E947C1464E170E080E090E00E949C0A0C
:101600001F5F28961C3141F7DF91CF911F910895FC
:101610006F927F928F929F92AF92BF92CF92DF9202
:10162000EF92FF92CF93DF934B015C01C42F622EA8
:101630000E944E196B017C0181E0611080E0809373
:101640005E03712CD0E00E944E196C197D098E0941
:101650009F09681579058A059B05A0F4711012C0D1
:101660000E94830A0E94031940915D03477050E075
:101670004C175D0741F780915E038611E4CF772414
:101680007394E1CF872DDF91CF91FF90EF90DF90A2
:10169000CF90BF90AF909F908F907F906F90089564
:1016A000EF920F939091880393FD2BC020917A03C2
:1016B000821303C010928A031CC098609093880321
:1016C0009FEF90938A03E12C08E123E04FEF682F0E
:1016D00088E393E00E940D0161E00E94B7060E943A
:1016E000490429E143E060ED77E080E090E00E946A
:1016F000080B80918803877F8093880380918A03F9
:1017000001C08FEF0F91EF9008950F931F938111F8
:1017100013C00E944E1900918403109185032091FB
:10172000860330918703601B710B820B930B603132
:10173000774281059105A8F080E00E94500B182F98
:101740008F3F89F00E944E19609384037093850344
:10175000809386039093870380917C0318131093E2
:101760007C0381E001C080E01F910F910895A8954E
:1017700080E090E0892B11F00E94000026E040E01C
:1017800052EC61E070E08EEB93E00E94A11B81E5DA
:1017900091E0892B11F00E94510141E050E063E09B
:1017A00071E08DE793E00E94742060E081E090E0BA
:1017B0000E948C200E94D3028091880382FD06C083
:1017C000A8950E94950A0E940319F6CF0E94550819
:1017D00081E08093370388E897E0892B11F00E941D
:1017E0008807A8950895CF93DF93EC0164E070E03B
:1017F0008FEA92E00E94C71281E08093AA0264EB14
:1018000070E06C1B7D0B8FEA92E00E940E13BE010C
:1018100082EB92E00E94E10661E00E94F0060E94E5
:101820004E196093AB027093AC028093AD0290931B
:10183000AE02DF91CF9108957F928F929F92AF92E7
:10184000BF92CF92DF92EF92FF920F931F93CF93AD
:10185000DF938091AA028823A1F00E944E19009183
:10186000AB021091AC022091AD023091AE02601B30
:10187000710B820B930B653873408105910508F05D
:1018800049C40E944E196B017C0180912A029091FB
:101890002B02A0912C02B0912D02B701A601481B8A
:1018A000590B6A0B7B0B8091120190911301A0914F
:1018B0001401B091150184179507A607B70708F022
:1018C000CDC0C0922A02D0922B02E0922C02F0925C
:1018D0002D0260913B0270913C0280913D029091FB
:1018E0003E022091320230913302409134025091F5
:1018F00035020E94A81D882381F180913B029091BE
:101900003C02A0913D02B0913E028093320290933E
:101910003302A0933402B093350260913B02709180
:101920003C0280913D0290913E0220E030E048EC84
:1019300052E40E94A81D87FF10C040913B025091C5
:101940003C0260913D0270913E0222E089E892E003
:101950000E94C30660E00E94F006809126029091EA
:101960002702A0912802B0912902C81AD90AEA0ACE
:10197000FB0A81ECC81684EDD80681E0E806F10484
:1019800040F010923B0210923C0210923D021092E5
:101990003E02409143025091440260914502709191
:1019A00046028091360290913702A0913802B091A0
:1019B0003902481759076A077B0709F44FC080911D
:1019C000430290914402A0914502B0914602809357
:1019D000360290933702A0933802B09339024091B7
:1019E000430250914402609145027091460287E49F
:1019F00092E00E94D20660E00E94F00660914302ED
:101A00007091440280914502909146020E94451EC9
:101A100020E030E048EC52E40E94AC1D6B017C01F8
:101A200020912E0230912F024091300250913102CC
:101A30000E94A81D882391F0C0922E02D0922F02FE
:101A4000E0923002F092310223E0B701A60188E66D
:101A500092E00E94C30660E00E94F0060E944E19C8
:101A60004B015C018091220290912302A0912402FB
:101A7000B0912502B501A401481B590B6A0B7B0BE1
:101A80008091680190916901A0916A01B0916B0108
:101A900084179507A607B70708F010C186E193E001
:101AA0000E94D91560915C0170915D01882777FDD6
:101AB0008095982F0E949C0A80917D0360911A0165
:101AC00070911B01B3E0660F771FBA95E1F7645E72
:101AD0007E4F882329F086E193E00E946A1604C0B5
:101AE00086E193E00E948B1620E030E040E251E472
:101AF0000E94FB1E0E94141E882777FD8095982F58
:101B00000E94471E20E030E040E251E40E94AC1DFC
:101B10006B017C0186E00E94951A892B09F443C071
:101B200000911A0110911B01F801EE0FFF1FEE0F3B
:101B3000FF1FEA50FD4F2DEC3CEC4CE45EE360816E
:101B40007181828193810E94441DA70196010E94A8
:101B5000A81D87FF28C020E030E04EEF52ECC701FF
:101B6000B6010E94A81D8823F1F0C0911801D09100
:101B70001901CC0FDD1FCC0FDD1FCA50DD4F609166
:101B80000C0170910D01882777FD8095982F0E9498
:101B9000471E9B01AC01688179818A819B810E94EB
:101BA000A81D87FDBEC2E0911A01F0911B01EE0F46
:101BB000FF1FEE0FFF1FEA50FD4FC082D182E2826D
:101BC000F3828092220290922302A0922402B09289
:101BD000250280917D036091D3027091D402E3E0ED
:101BE000660F771FEA95E1F7645E7E4F882329F040
:101BF00086E193E00E946A1604C086E193E00E94A9
:101C00008B1620E030E040E251E40E94FB1E0E946F
:101C1000141E882777FD8095982F0E94471E20E08C
:101C200030E040E251E40E94AC1D6B017C018091E8
:101C300004019091050145979CF120E030E04EEFC2
:101C400052ECC701B6010E94A81D882349F160919A
:101C50000A0170910B01882777FD8095982F0E94CB
:101C6000471E9B01AC01C701B6010E94F71E181662
:101C7000BCF48091D3028C5E8093DB0221E0B7013B
:101C8000A60185ED92E00E94C30660E00E94F00686
:101C900084E190E090930501809304010E94F30B8E
:101CA000E091D302F091D402EE0FFF1FEE0FFF1F61
:101CB000EA50FD4FC082D182E282F3820E944E1927
:101CC0004B015C0180911E0290911F02A0912002A5
:101CD000B0912102B501A401481B590B6A0B7B0B83
:101CE0008091640190916501A0916601B0916701B6
:101CF00084179507A607B70708F063C080917D0396
:101D0000609118017091190133E0660F771F3A95C1
:101D1000E1F7645E7E4F882329F086E193E00E941C
:101D20006A1604C086E193E00E948B1620E030E042
:101D300040E251E40E94FB1E0E94141E882777FD9A
:101D40008095982F0E94471E20E030E040E251E449
:101D50000E94AC1D6B017C0186E00E94951A0197E0
:101D6000D1F060910C0170910D01882777FD80956D
:101D7000982F0E94471EA70196010E94A81D87FF69
:101D80000AC020E030E04EEF52ECC701B6010E94DD
:101D9000A81D8111E0C1E0911801F0911901EE0F29
:101DA000FF1FEE0FFF1FEA50FD4FC082D182E2827B
:101DB000F38280921E0290921F02A0922002B092A3
:101DC00021020E944E194B015C01809112029091F8
:101DD0001302A0911402B0911502B501A401481B91
:101DE000590B6A0B7B0B8091600190916101A0916E
:101DF0006201B091630184179507A607B70708F041
:101E0000C6C180917D03609116017091170193E026
:101E1000660F771F9A95E1F7645E7E4F882329F05D
:101E200086E193E00E946A1604C086E193E00E9476
:101E30008B1620E030E040E251E40E94FB1E0E943D
:101E4000141E882777FD8095982F0E94471E20E05A
:101E500030E040E251E40E94AC1D6B017C01009136
:101E6000040110910501053111050CF16091080183
:101E700070910901882777FD8095982F0E94471E51
:101E8000A70196010E94F71E18166CF420E030E0BE
:101E90004EEF52ECC701B6010E94A81D882319F02D
:101EA00084E190E089C00C33110509F445C06091CC
:101EB000060170910701882777FD8095982F0E9471
:101EC000471E20E030E040E05FE30E94431DA70191
:101ED00096010E94F71E18165CF5C091D302D091AE
:101EE000D402CC0FDD1FCC0FDD1FCA50DD4F609137
:101EF0000A0170910B01882777FD8095982F0E9429
:101F0000471E9B01AC01688179818A819B810E9477
:101F1000A81D87FF0DC020E030E04EEF52ECC70156
:101F2000B6010E94A81D882319F08CE390E044C0FC
:101F3000043611050CF06BC0609106017091070129
:101F4000882777FD8095982F0E94471E20E030E07B
:101F500040E05FE30E94441DA70196010E94A81D76
:101F600087FF55C0C091D302D091D402CC0FDD1FA2
:101F7000CC0FDD1FCA50DD4F60910A0170910B013B
:101F8000882777FD8095982F0E94471E9B01AC0102
:101F9000688179818A819B810E94A81D87FF37C053
:101FA00020E030E04EEF52ECC701B6010E94A81DC0
:101FB000882369F184E690E0909305018093040101
:101FC0000E94F30B809116018C5E8093DB0221E06E
:101FD000B701A60185ED92E00E94C30660E00E9471
:101FE000F006E0911601F0911701EE0FFF1FEE0FC2
:101FF000FF1FEA50FD4FC082D182E282F3828092BD
:10200000120290921302A0921402B09215020E9442
:102010004E194B015C018091160290911702A0911C
:102020001802B0911902B501A401481B590B6A0BA3
:102030007B0B80916C0190916D01A0916E01B0912C
:102040006F0184179507A607B70708F0A0C006EF31
:1020500012E0CCE1D1E0B4E17B2E80917D03BE01A2
:10206000882329F086E193E00E946A1604C086E185
:1020700093E00E948B1620E030E040E251E40E94A1
:10208000FB1E0E94141E882777FD8095982F0E94C2
:10209000471E20E030E040E251E40E94AC1D6B019D
:1020A0007C0120E030E04EEF52EC0E94A81D882316
:1020B00009F120E030E04AEA52E4C701B6010E948B
:1020C000A81D8823B9F07092DB0221E0B701A601B8
:1020D00085ED92E00E94C30660E00E94F006F801E0
:1020E000C082D182E282F3826EE170E080E090E013
:1020F0000E949C0A73940C5F1F4F2896FCE17F128C
:10210000ACCF8092160290921702A0921802B09261
:1021100019023DC08FEA92E00E94CD121092AA02ED
:10212000B0CB0C5E0093DB0221E0B701A60185ED88
:1021300092E00E94C30660E00E94F00660E086E044
:102140000E945F1A61E080EF91E00E94AB0661E0BF
:102150000E94F00628CD809118018C5E8093DB02EE
:1021600021E0B701A60185ED92E00E94C30660E080
:102170000E94F00661E086E00E945F1A60E080EF56
:1021800091E00E94AB0661E00E94F00604CEDF9170
:10219000CF911F910F91FF90EF90DF90CF90BF9064
:1021A000AF909F908F907F9008950E94C2190E94D7
:1021B000B70BCCE1DCE00BEE1AE10E94990A209704
:1021C00011F00E941C0C01151105B9F30E94EB1AC5
:1021D000F4CFCF9389E593E00E94720588E393E002
:1021E0000E94720565E089E293E00E94C81769E2E7
:1021F00073E086E193E00E94741385ED92E00E9403
:1022000072051092DB021092DA0282EB92E00E94D9
:1022100072058AE08093B80283E08093B7028FEA68
:1022200092E00E942D1289E892E00E947205CBE0B4
:10223000C0938F0282E280938E0288E692E00E9431
:102240007205C0936E0283E280936D0287E492E090
:102250000E947205C0934D0288E180934C0280EF8A
:1022600091E00E94720581E08093F60182E0809304
:10227000F501CF910895CF93CFB7F89480918E0355
:10228000811127C0EAE9F1E08491E6E8F1E0949158
:10229000E82FF0E0EE0FFF1FE854FE4FA591B49138
:1022A0008C91892321F461E08AE00E945F1A61E049
:1022B0008AE00E94261A8CB580618CBD8CB5806442
:1022C0008CBD61E08DE00E94261A61E08BE00E94E7
:1022D000261A80918E038F5F80938E03CFBFCF919C
:1022E00008951F920F920FB60F9211242F933F93D0
:1022F0004F935F936F937F938F939F93AF93BF930E
:10230000EF93FF938091900387FF05C010928500A3
:10231000109284001AC020919003332727FD309536
:1023200080918F0390E0281739077CF48091900307
:10233000992787FD9095FC01EE0FFF1FE80FF91F0D
:10234000EF56FC4F808186FD15C0809190038F5F12
:102350008093900320919003332727FD309580913F
:102360008F0390E028173907BCF4809190038C30DC
:102370005CF112C080919003992787FD9095FC0134
:10238000EE0FFF1FE80FF91FEF56FC4F808160E052
:102390008F730E945F1AD9CF80918400909185003D
:1023A000049680349C4918F480E49CE905C080912F
:1023B0008400909185000496909389008093880012
:1023C0008FEF8093900338C0209184003091850076
:1023D00080919003992787FD9095FC01EE0FFF1FD8
:1023E000E80FF91FEF56FC4F81819281820F931FF6
:1023F000909389008093880080919003992787FDAE
:102400009095FC01EE0FFF1FE80FF91FEF56FC4FF0
:10241000808186FF11C080919003992787FD909558
:10242000FC01EE0FFF1FE80FF91FEF56FC4F8081F4
:1024300061E08F730E945F1AFF91EF91BF91AF919E
:102440009F918F917F916F915F914F913F912F91CC
:102450000F900FBE0F901F90189520918F032C3076
:10246000A0F431E0320F30938F03FC012083822FE0
:1024700090E0FC01EE0FFF1FE80FF91FEF56FC4F35
:1024800088EB9BE09283818308952FEFFC012083EA
:102490000895DF92EF92FF920F931F93CF93DF93F4
:1024A000EC01D62E7A01890188818C3008F066C053
:1024B00061E08D2D0E94261A8881A82FB0E0FD01D1
:1024C000EE0FFF1FEA0FFB1FEF56FC4F2D2D2F7352
:1024D0009081907C922B908360E272E06E197F096C
:1024E00077FF02C06D5F7F4F75956795759567950E
:1024F000698340E659E0401B510B57FF02C04D5F16
:102500005F4F55954795559547954A836CE00E94D6
:102510006E1F9CE0899FB001112420E030E0A901EA
:10252000460F571FFA01EE0FFF1FE40FF51FEF567E
:10253000FC4F908196FD16C02F5F3F4F2C30310528
:1025400071F781110FC01092800082E080938100AA
:102550001092850010928400B19A80916F00826081
:1025600080936F00888190E0FC01EE0FFF1FE80F61
:10257000F91FEF56FC4F8081806480838881DF9152
:10258000CF911F910F91FF90EF90DF90089520E67B
:1025900039E040E252E00C944912FC01808190E065
:1025A000FC01EE0FFF1FE80FF91FEF56FC4F808173
:1025B0008F7B80830895FC0180818C3070F5918140
:1025C00028E830E0291B310997FD3395220F331F8E
:1025D000220F331F621773077CF0928128E532E0E7
:1025E000291B310997FD3395220F331F220F331F0B
:1025F000621773070CF49B0122503109220F331F1D
:102600004FB7F89490E0FC01EE0FFF1FE80FF91FA1
:10261000EF56FC4F328321834FBF08954F925F9254
:102620006F927F92AF92BF92CF92DF92EF92FF9222
:102630000F931F93CF93DF93EC01603282E0780712
:102640000CF040C077FD06C0653B71052CF064EBD3
:1026500070E002C060E070E0898128E830E0281B6B
:10266000310987FD3395220F331F220F331F590184
:10267000CC24B7FCC094DC2C882777FD8095982F5C
:102680002A8148E552E0421B510927FD5395440F2A
:10269000551F440F551F2A01662457FC6094762C61
:1026A0007F926F925F924F9214EBE12EF12C00E03B
:1026B00010E020E030E0A9010E94FC1C0F900F9078
:1026C0000F900F90CE01DF91CF911F910F91FF904E
:1026D000EF90DF90CF90BF90AF907F906F905F9022
:1026E0004F900C94DB120895FC0183E793E1928BE9
:1026F000818B768365831482108289E0818381E0F7
:10270000828383830895CF93DF93EB0167E0CE014B
:102710000E94881891E02F81821390E0892FDF9129
:10272000CF910895CF92DF92EF92FF920F931F9374
:10273000CF93DF9300D0CDB7DEB76C01F42EE52E3A
:10274000FC018581968169837A830E948F16698155
:102750007A81882311F1F601858196810E948A177A
:1027600040E06EEBF601858196810E942C170F2DBB
:102770001E2D89E0F82EF601858196810E946E1744
:10278000F80181938F01FA94B1F7F6018581968162
:102790000E948F1691E0813009F090E0892F0F9010
:1027A0000F90DF91CF911F910F91FF90EF90DF90ED
:1027B000CF900895CF93DF93EA010E94921388236C
:1027C00051F068E0CE010E94881891E028858213BC
:1027D00090E0892F01C080E0DF91CF910895EF92C2
:1027E000FF920F931F93CF93DF93EC018B017A013C
:1027F0008D819E810E948F16B8018D819E810E94DD
:102800008A1740E06EE48D819E810E942C1740E083
:10281000F70162818D819E810E942C1740E0F701B3
:1028200063818D819E810E942C17F8018081803107
:1028300039F040E0F70164818D819E810E942C1760
:102840008D819E810E948F16B8018D819E810E948C
:102850008A17488168E48D819E810E942C1764E16B
:1028600070E080E090E00E947D198881882331F03B
:102870006AE070E080E090E00E947D198D819E8189
:10288000DF91CF911F910F91FF90EF900C948F16D5
:10289000EF92FF921F93CF93DF9300D0CDB7DEB7B7
:1028A0007C01FC018581968169837A830E948F1661
:1028B00069817A81F701858196810E948A1740E0BB
:1028C00064EBF701858196810E942C17F7018581C1
:1028D00096810E940117182FF701858196810E9429
:1028E0008F1681E0111180E00F900F90DF91CF9152
:1028F0001F91FF90EF900895EF92FF920F931F9317
:10290000CF93DF93CDB7DEB72A970FB6F894DEBF2B
:102910000FBECDBF7C018B01242FAE014F5F5F4FF7
:102920002A870E94DA132A858823D1F0F801808152
:102930008031C1F02B3041F02C3021F02A3031F4BD
:102940008FE305C08FE703C08FE501C08FE18D8362
:10295000AE014F5F5F4FB801C7010E94EF1302C085
:1029600080E001C081E02A960FB6F894DEBF0FBE6A
:10297000CDBFDF91CF911F910F91FF90EF90089500
:10298000CF93DF93CDB7DEB729970FB6F894DEBFAC
:102990000FBECDBFFB0120812031D1F0AE014F5FD2
:1029A0005F4F0E94DA13882379F08D818F3351F0C5
:1029B00020F48F3149F489E00CC08F3539F08F371E
:1029C00039F002C08AE005C080E003C08BE001C09E
:1029D0008CE029960FB6F894DEBF0FBECDBFDF9115
:1029E000CF910895FF920F931F93CF93DF93CDB7AD
:1029F000DEB761970FB6F894DEBF0FBECDBF8C0176
:102A0000FC01858196810E94B617F801148241E08D
:102A1000BE01665F7F4FF801858196810E94EB17AA
:102A20008823D1F1BE01665F7F4FC8010E948313E6
:102A3000882369F3F8018081811108C0BE01665FB7
:102A40007F4FC8010E944814811122C0AE014F5F20
:102A50005F4FBE01665F7F4FC8010E949213F8016D
:102A6000F180BE01665F7F4FC8010E94C0148F15C0
:102A700018F4F801818106C0BE01665F7F4FC8016E
:102A80000E94C014F801818384818F5F8483BFCF4B
:102A900081E0F8018083DACF61960FB6F894DEBF4B
:102AA0000FBECDBFDF91CF911F910F91FF90089581
:102AB000FC0162830895CF93DF93CDB7DEB72997EA
:102AC0000FB6F894DEBF0FBECDBFAE014F5F5F4FB4
:102AD0000E94921381E09981911101C080E02996B2
:102AE0000FB6F894DEBF0FBECDBFDF91CF91089532
:102AF0008F929F92AF92BF92CF92DF92EF92FF920E
:102B00000F931F93CF93DF93EC018A0169506330D9
:102B100048F4E62FF0E0EE0FFF1FE653FE4F8080F3
:102B2000918004C09EEE892E92E0992E0115110528
:102B300001F18B818823E9F0888181111AC00E94FC
:102B40004E196B017C01AA2497FCA094BA2CB80101
:102B5000CE010E945B1581111FC00E944E19681999
:102B600079098A099B096C157D058E059F05A0F4DE
:102B7000EECFB401882777FD8095982FDF91CF9114
:102B80001F910F91FF90EF90DF90CF90BF90AF908B
:102B90009F908F900C947D19DF91CF911F910F9191
:102BA000FF90EF90DF90CF90BF90AF909F908F906D
:102BB0000895CF93DF93EC018D819E810E948F1643
:102BC0008D819E810E94B217488164E48D819E812F
:102BD0000E942C178A81882341F040E050E06981EF
:102BE000CE01DF91CF910C947815DF91CF910895AC
:102BF000FA01208148E0249F90011124818190E016
:102C0000982F8827990F990F990F282B392BDB01C3
:102C10008C918031C1F4678170E08681AB01481BE3
:102C20005109CA019695982F8827979587950E94F4
:102C30007A1F60517109207F53E0220F331F5A958C
:102C4000E1F7260F371FC9010895EF92FF920F9306
:102C50001F93CF93DF93CDB7DEB729970FB6F894C4
:102C6000DEBF0FBECDBF8C017B01AE014F5F5F4F5A
:102C70000E94DA13882341F0AE014F5F5F4FB70126
:102C8000C8010E94F81502C080E894EE29960FB69C
:102C9000F894DEBF0FBECDBFDF91CF911F910F9192
:102CA000FF90EF900895813824EE920774F0BC01F4
:102CB000882777FD8095982F0E94471E20E030E0FE
:102CC00040E05CE30E94FB1E089560E070E08EEF40
:102CD00092EC08950E9425160C945316813824EE28
:102CE0009207A4F0BC01882777FD8095982F0E9459
:102CF000471E26E636E646E65CE30E94FB1E20E021
:102D000030E040E052E40E94441D08956AE979E908
:102D100084E493EC08950E9425160C946E16FF929D
:102D20000F931F93CF93DF93FC010081C181D28168
:102D3000F8948981F02EF0948F21898378941DE78F
:102D4000115029F182E090E00E94B7198881802318
:102D5000B9F3F8948A818F218A838981802B8983B2
:102D6000789480EE91E00E94B719F89489818F21C0
:102D7000898386E490E00E94B7198881802311E05E
:102D800009F010E078948AE991E00E94B719812F48
:102D9000DF91CF911F910F91FF9008951F93CF93D3
:102DA000DF93FC011081C181D281912F909560FF4A
:102DB00012C0F8948A8189238A838981812B89832F
:102DC0008AE090E00E94B7198A81812B8A837894E7
:102DD00087E390E011C0F8948A8189238A838981EE
:102DE000812B898381E490E00E94B7198A81812B2D
:102DF0008A83789485E090E0DF91CF911F910C94C5
:102E0000B7190F931F93CF93DF93FC011081C181FA
:102E1000D281F8948981812B89838A81012F009541
:102E200080238A8383E090E00E94B7198981802300
:102E300089838AE090E00E94B719C881789485E37D
:102E400090E00E94B7191C2381E009F480E0DF9133
:102E5000CF911F910F910895CF92DF92EF92FF9241
:102E60000F931F93CF93DF931F92CDB7DEB76C0103
:102E7000E62E08E010E0FF24F39461E09F2D9E21F0
:102E800009F460E0C60149830E94CE16FF0C015090
:102E9000110949810115110581F7411115C0F894F7
:102EA000D6011196ED91FC91129791818C918095AC
:102EB000892381831196ED91FC91129792818C91D7
:102EC00080958923828378940F90DF91CF911F9111
:102ED0000F91FF90EF90DF90CF900895EF92FF92C7
:102EE0000F931F93CF93DF938C01C8E0D0E0F12CB8
:102EF000EE24E394C8010E9401178111FE28EE0C14
:102F00002197C1F78F2DDF91CF911F910F91FF90E6
:102F1000EF900895CF92DF92FF920F931F93CF937C
:102F2000DF931F92CDB7DEB78C01F62E40E065E54A
:102F300079830E942C17CF2C7981D72E88E0F82E28
:102F4000F60161916F0140E0C8010E942C17FA94CC
:102F5000B9F70F90DF91CF911F910F91FF90DF9004
:102F6000CF90089540E06CEC0C942C17FC01138674
:102F70001586148627E030E0DF01A20FB31F1396F9
:102F80001C922115310519F021503109F5CF089512
:102F90001F93CF93DF93EC01162F60E0812F0E94E7
:102FA000261A612F70E0FB01E458FE4FE491E8839C
:102FB000FB01E057FE4FE491F0E0EE0FFF1FEC55F0
:102FC000FE4F859194919A838983CE01DF91CF91B1
:102FD0001F910C94B617AF92BF92CF92DF92EF92EF
:102FE000FF920F931F93CF93DF931F92CDB7DEB75E
:102FF0005C01D62EE72EFC018585811164C0C501D8
:1030000049830E948F164981811105C0F5011386FD
:103010001586148671C0442319F040E060EF02C0A9
:1030200040E06CEEC5010E942C1701E0F12CC12C90
:1030300011E0C5010E940117682FC50169830E9434
:1030400001176981613019F48130B9F433C02F2D33
:1030500030E068131BC0F5018385181730F4E20FC8
:10306000F31F8381802349F402C0181731F060E018
:10307000193058F4F501148708C0F501EF0DF11D62
:103080008381802B838361E009C0C12EF501E20FAB
:10309000F31F8381902F909589238383C5010E941C
:1030A000CE161F5F000F11F4F39401E0F7E0FF1557
:1030B00008F0BFCF113438F0F501C386C11009C044
:1030C00081E0858706C0F50113861586148680E0A9
:1030D00013C0F50183818823B1F3ED2DFE2D80E02F
:1030E00090E0D501A80FB91F13962C91219301965A
:1030F00088309105B1F781E00F90DF91CF911F915A
:103100000F91FF90EF90DF90CF90BF90AF90089518
:10311000DC0180E0615038F0ED91E827F0E0E859FB
:10312000FF4F8491F7CF089508958230E8F4E82F97
:10313000F0E0EE0FFF1FE257FE4F71836083813096
:1031400041F0809169008C7F842B80936900E89A1C
:10315000089580916900440F551F440F551F837FC8
:10316000842B80936900E99A08951F920F920FB6FD
:103170000F9211242F933F934F935F936F937F93FD
:103180008F939F93AF93BF93EF93FF93E0918E0143
:10319000F0918F010995FF91EF91BF91AF919F91B0
:1031A0008F917F916F915F914F913F912F910F90F0
:1031B0000FBE0F901F9018951F920F920FB60F928F
:1031C00011242F933F934F935F936F937F938F932C
:1031D0009F93AF93BF93EF93FF93E0919001F09192
:1031E00091010995FF91EF91BF91AF919F918F91BF
:1031F0007F916F915F914F913F912F910F900FBEF3
:103200000F901F90189508951F920F920FB60F926E
:1032100011242F933F938F939F93AF93BF938091EC
:10322000B6039091B703A091B803B091B903309160
:10323000B50323E0230F2D3720F40196A11DB11D06
:1032400005C026E8230F0296A11DB11D2093B503EA
:103250008093B6039093B703A093B803B093B903D8
:103260008091BA039091BB03A091BC03B091BD03C0
:103270000196A11DB11D8093BA039093BB03A09347
:10328000BC03B093BD03BF91AF919F918F913F91CC
:103290002F910F900FBE0F901F9018952FB7F89495
:1032A0006091B6037091B7038091B8039091B90310
:1032B0002FBF08953FB7F8948091BA039091BB0354
:1032C000A091BC03B091BD0326B5A89B05C02F3FBC
:1032D00019F00196A11DB11D3FBF6627782F892FD8
:1032E0009A2F620F711D811D911D42E0660F771F9D
:1032F000881F991F4A95D1F708958F929F92AF9298
:10330000BF92CF92DF92EF92FF926B017C010E94FD
:103310005A194B015C01C114D104E104F104F1F02C
:103320000E9403190E945A19681979098A099B0990
:10333000683E73408105910570F321E0C21AD108FF
:10334000E108F10888EE880E83E0981EA11CB11CEC
:10335000C114D104E104F10429F7DDCFFF90EF900F
:10336000DF90CF90BF90AF909F908F900895823064
:10337000910538F0880F991F880F991F05970197BD
:10338000F1F70895789484B5826084BD84B5816036
:1033900084BD85B5826085BD85B5816085BDEEE65D
:1033A000F0E0808181608083E1E8F0E0108280813C
:1033B00082608083808181608083E0E8F0E08081AA
:1033C00081608083E1EBF0E0808184608083E0EBCA
:1033D000F0E0808181608083EAE7F0E080818460B2
:1033E000808380818260808380818160808380810E
:1033F000806880831092C1000895833081F028F4A2
:10340000813099F08230A1F008958730A9F088309A
:10341000B9F08430D1F4809180008F7D03C0809119
:1034200080008F7780938000089584B58F7702C0E5
:1034300084B58F7D84BD08958091B0008F7703C0DF
:103440008091B0008F7D8093B0000895CF93DF937B
:1034500090E0FC01E458FE4F2491FC01E057FE4F40
:103460008491882349F190E0880F991FFC01E8546A
:10347000FE4FA591B49182559E4FFC01C591D49108
:103480009FB7611108C0F8948C91209582238C938A
:10349000888182230AC0623051F4F8948C91322FD3
:1034A000309583238C938881822B888304C0F89481
:1034B0008C91822B8C939FBFDF91CF9108950F93B6
:1034C0001F93CF93DF931F92CDB7DEB7282F30E045
:1034D000F901E859FE4F8491F901E458FE4F149127
:1034E000F901E057FE4F04910023C9F0882321F031
:1034F00069830E94FD196981E02FF0E0EE0FFF1F44
:10350000E255FE4FA591B4919FB7F8948C9161114B
:1035100003C01095812301C0812B8C939FBF0F9016
:10352000DF91CF911F910F910895CF93DF93282FB3
:1035300030E0F901E859FE4F8491F901E458FE4F5B
:10354000D491F901E057FE4FC491CC2391F0811141
:103550000E94FD19EC2FF0E0EE0FFF1FEC55FE4F1F
:10356000A591B4912C912D2381E090E021F480E08D
:1035700002C080E090E0DF91CF910895FC01818D41
:10358000228D90E0805C9F4F821B91098F73992759
:103590000895FC01918D828D981731F0828DE80F8E
:1035A000F11D858D90E008958FEF9FEF0895FC0148
:1035B000918D828D981761F0828DDF01A80FB11D6A
:1035C0005D968C91928D9F5F9F73928F90E008958E
:1035D0008FEF9FEF08958BE59CE1892B49F080E008
:1035E00090E0892B29F00E945B1C81110C94000053
:1035F0000895FC01848DDF01A80FB11DA35ABF4FB0
:103600002C91848D90E001968F739927848FA689E1
:10361000B7892C93A089B1898C9180648C93938D08
:10362000848D981306C00288F389E02D80818F7DF8
:1036300080830895CF93DF93EC01888D8823C9F0B0
:10364000EA89FB89808185FD05C0A889B9898C91AB
:1036500086FD0FC00FB607FCF5CF808185FFF2CF46
:10366000A889B9898C9185FFEDCFCE010E94F91A06
:10367000E7CFDF91CF910895CF92DF92FF920F9322
:103680001F93CF93DF931F92CDB7DEB76C0181E01C
:10369000D60158968C9358975B969C915B975C9655
:1036A0008C915C97981307C05096ED91FC915197BF
:1036B000808185FD2EC0F601038D10E00F5F1F4F46
:1036C0000F731127F02EF601848DF81211C00FB67A
:1036D00007FCF9CFD6015096ED91FC91519780816E
:1036E00085FFF1CFC60169830E94F91A6981EBCF8A
:1036F000838DE80FF11DE35AFF4F6083D6015B967F
:103700000C935B975296ED91FC9153978081806268
:103710000CC0D6015696ED91FC9157976083509658
:10372000ED91FC91519780818064808381E090E0ED
:103730000F90DF91CF911F910F91FF90DF90CF906D
:103740000895BF92CF92DF92EF92FF92CF93DF93D3
:10375000EC016A017B01B22EE889F98982E080835D
:10376000411581EE580761057105A1F060E079E02F
:103770008DE390E0A70196010E948E1F2150310930
:10378000410951095695479537952795211580E1AF
:10379000380798F0E889F989108260E874E88EE1CA
:1037A00090E0A70196010E948E1F21503109410926
:1037B00051095695479537952795EC85FD853083BA
:1037C000EE85FF852083188EEC89FD89B082EA8919
:1037D000FB89808180618083EA89FB8980818860A0
:1037E0008083EA89FB89808180688083EA89FB89FC
:1037F00080818F7D8083DF91CF91FF90EF90DF906C
:10380000CF90BF9008951F920F920FB60F92112480
:103810002F938F939F93EF93FF93E091CE03F091BB
:10382000CF038081E091D403F091D50382FD12C0D3
:1038300090818091D7038F5F8F732091D803821777
:1038400051F0E091D703F0E0E254FC4F958F809364
:10385000D70301C08081FF91EF919F918F912F91AC
:103860000F900FBE0F901F9018951F920F920FB6DA
:103870000F9211242F933F934F935F936F937F93F6
:103880008F939F93AF93BF93EF93FF938EEB93E050
:103890000E94F91AFF91EF91BF91AF919F918F9183
:1038A0007F916F915F914F913F912F910F900FBE3C
:1038B0000F901F9018958EEB93E00E94BE1A21E0A6
:1038C000892B09F420E0822F08951092C1031092F1
:1038D000C00388EE93E0A0E0B0E08093C203909331
:1038E000C303A093C403B093C50384ED91E0909308
:1038F000BF038093BE0385EC90E09093CB0380934D
:10390000CA0384EC90E09093CD038093CC0380ECC9
:1039100090E09093CF038093CE0381EC90E090935E
:10392000D1038093D00382EC90E09093D3038093F3
:10393000D20386EC90E09093D5038093D403109249
:10394000D7031092D8031092D9031092DA03089586
:10395000CF92DF92EF92FF920F931F93CF93DF935B
:103960007C016A01EB0100E010E00C151D0571F00F
:103970006991D701ED91FC910190F081E02DC70193
:103980000995892B19F00F5F1F4FEFCFC801DF9109
:10399000CF911F910F91FF90EF90DF90CF900895FE
:1039A0006115710581F0DB010D900020E9F7AD0193
:1039B00041505109461B570BDC01ED91FC910280EF
:1039C000F381E02D099480E090E0089560EE71E0CD
:1039D0000C94D01C0F931F93CF93DF93EC010E94A4
:1039E000D01C8C01CE010E94E61C800F911FDF913C
:1039F000CF911F910F9108954F925F926F927F9296
:103A0000AF92BF92CF92DF92EF92FF920F931F93EC
:103A1000CF93DF93CDB7DEB729013A01621B730B59
:103A2000840B950B29893A894B895C892A193B09B2
:103A30004C095D09298B3A8B4B8B5C8B9B01AC014C
:103A400069897A898B899C890E945E1FE418F50830
:103A500006091709A80197010E94B01F2A0D3B1DF6
:103A60004C1D5D1DCA01B901DF91CF911F910F91CE
:103A7000FF90EF90DF90CF90BF90AF907F906F90CE
:103A80005F904F9008955058BB27AA270ED075C15C
:103A900066D130F06BD120F031F49F3F11F41EF469
:103AA0005BC10EF4E095E7FB51C1E92F77D180F3BC
:103AB000BA17620773078407950718F071F49EF52B
:103AC0008FC10EF4E0950B2EBA2FA02D0B01B9017A
:103AD00090010C01CA01A0011124FF27591B99F084
:103AE000593F50F4503E68F11A16F040A22F232F90
:103AF000342F4427585FF3CF469537952795A795E0
:103B0000F0405395C9F77EF41F16BA0B620B730B86
:103B1000840BBAF09150A1F0FF0FBB1F661F771FF7
:103B2000881FC2F70EC0BA0F621F731F841F48F4AC
:103B3000879577956795B795F7959E3F08F0B3CF32
:103B40009395880F08F09927EE0F9795879508951C
:103B5000D9D008F481E008950CD00FC107D140F00E
:103B6000FED030F021F45F3F19F0F0C0511139C19F
:103B7000F3C014D198F39923C9F35523B1F3951BDE
:103B8000550BBB27AA2762177307840738F09F5F7E
:103B90005F4F220F331F441FAA1FA9F333D00E2EED
:103BA0003AF0E0E830D091505040E695001CCAF75A
:103BB00029D0FE2F27D0660F771F881FBB1F26171F
:103BC00037074807AB07B0E809F0BB0B802DBF01F2
:103BD000FF2793585F4F2AF09E3F510568F0B6C00B
:103BE00000C15F3FECF3983EDCF3869577956795CF
:103BF000B795F7959F5FC9F7880F911D96958795A3
:103C000097F90895E1E0660F771F881FBB1F6217C1
:103C100073078407BA0720F0621B730B840BBA0B7F
:103C2000EE1F88F7E095089504D06894B111D9C0CB
:103C30000895BCD088F09F5790F0B92F9927B751BD
:103C4000A0F0D1F0660F771F881F991F1AF0BA9560
:103C5000C9F712C0B13081F0C3D0B1E00895C0C03F
:103C6000672F782F8827B85F39F0B93FCCF3869556
:103C700077956795B395D9F73EF4909580957095B3
:103C800061957F4F8F4F9F4F0895E89409C097FB30
:103C90003EF490958095709561957F4F8F4F9F4F23
:103CA0009923A9F0F92F96E9BB279395F695879567
:103CB00077956795B795F111F8CFFAF4BB0F11F42A
:103CC00060FF1BC06F5F7F4F8F4F9F4F16C08823D1
:103CD00011F096E911C0772321F09EE8872F762F07
:103CE00005C0662371F096E8862F70E060E02AF048
:103CF0009A95660F771F881FDAF7880F9695879534
:103D000097F90895990F0008550FAA0BE0E8FEEF08
:103D100016161706E807F907C0F012161306E4078F
:103D2000F50798F0621B730B840B950B39F40A2688
:103D300061F0232B242B252B21F408950A2609F466
:103D4000A140A6958FEF811D811D089597F99F676A
:103D500080E870E060E008959FEF80EC0895002413
:103D60000A941616170618060906089500240A94E0
:103D700012161306140605060895092E0394000C66
:103D800011F4882352F0BB0F40F4BF2B11F460FFF5
:103D900004C06F5F7F4F8F4F9F4F089557FD90581E
:103DA000440F551F59F05F3F71F04795880F97FBFF
:103DB000991F61F09F3F79F08795089512161306B9
:103DC0001406551FF2CF4695F1DF08C016161706E8
:103DD0001806991FF1CF869571056105089408951D
:103DE000E894BB2766277727CB0197F908958ADFE8
:103DF00008F48FEF08950BD0C0CFB1DF28F0B6DF05
:103E000018F0952309F0A2CFA7CF1124EACFC6DF7F
:103E1000A0F3959FD1F3950F50E0551F629FF001DD
:103E2000729FBB27F00DB11D639FAA27F00DB11D36
:103E3000AA1F649F6627B00DA11D661F829F2227BF
:103E4000B00DA11D621F739FB00DA11D621F839F46
:103E5000A00D611D221F749F3327A00D611D231F1C
:103E6000849F600D211D822F762F6A2F11249F576A
:103E700050408AF0E1F088234AF0EE0FFF1FBB1F8D
:103E8000661F771F881F91505040A9F79E3F51052C
:103E900070F05CCFA6CF5F3FECF3983EDCF38695E5
:103EA00077956795B795F795E7959F5FC1F7FE2BD7
:103EB000880F911D9695879597F90895DB018F934B
:103EC0009F930E94CF1FBF91AF91A29F800D911D24
:103ED000A39F900DB29F900D11240895991B79E036
:103EE00004C0991F961708F0961B881F7A95C9F78A
:103EF0008095089597FB072E16F4009407D077FD60
:103F000009D00E94DA1F07FC05D03EF490958195F8
:103F10009F4F0895709561957F4F0895A1E21A2EE5
:103F2000AA1BBB1BFD010DC0AA1FBB1FEE1FFF1F5D
:103F3000A217B307E407F50720F0A21BB30BE40BAD
:103F4000F50B661F771F881F991F1A9469F76095F4
:103F50007095809590959B01AC01BD01CF010895AE
:103F6000052E97FB1EF400940E94C71F57FD07D033
:103F70000E948E1F07FC03D04EF40C94C71F50956F
:103F80004095309521953F4F4F4F5F4F0895909545
:103F90008095709561957F4F8F4F9F4F08950E9438
:103FA000F41FA59F900DB49F900DA49F800D911DAF
:103FB00011240895AA1BBB1B51E107C0AA1FBB1FF8
:103FC000A617B70710F0A61BB70B881F991F5A95A5
:103FD000A9F780959095BC01CD010895EE0FFF1FC4
:103FE0000590F491E02D0994A29FB001B39FC00108
:103FF000A39F700D811D1124911DB29F700D811D15
:104000001124911D0895FC0188279927E894219196
:104010002032E9F3293010F02E30C8F32B3241F072
:104020002D3239F4689404C00E946C20820F911DD7
:10403000219120532A30C0F31EF4909581959F4F13
:1040400008951F93FC0199278827BC01E8941191DA
:104050001032E9F3193010F01E30C8F31B3251F062
:104060001D3249F4689406C00E945720610F711DEB
:10407000811D911D119110531A30B0F33EF49095AB
:104080008095709561957F4F8F4F9F4F1F91089539
:10409000FB01DC014150504048F001900D9200209E
:1040A000C9F701C01D9241505040E0F70895592FC3
:1040B000482F372F262F660F771F881F991F660FEF
:1040C000771F881F991F620F731F841F951F660F2C
:1040D000771F881F991F08957AE0979F902D879FDB
:1040E000802D910D11240895DC01CB01FC01F9997B
:1040F000FECF06C0F2BDE1BDF89A319600B40D9234
:1041000041505040B8F70895F999FECF92BD81BD56
:10411000F89A992780B50895262FF999FECF92BD78
:1041200081BDF89A019700B4021639F01FBA20BD7C
:104130000FB6F894FA9AF99A0FBE0895F894FFCF43
:10414000010000003C000700F8FF41002D00CDCC2D
:10415000CC3DE093040005000200010028FF3698E2
:10416000541401C128F824E5050000D728F961E7B7
:10417000050000DC28FF004A541401DF28FFCE6947
:10418000361604E328DC1AE60500001328286FE53C
:104190000500008A28426FE505000086E8030A0052
:1041A000C8AF00003075000010270000E093040045
:1041B000FF00FCE1A8A88003AC022801310127011F
:1041C000580289066F02FF014C023B014A05941810
:1041D000941841636B2066726F6D2067772072655B
:1041E000632E00322E302E312D62657461004F4BEC
:1041F00000302E39350048656174696E6720456E60
:104200007669726F6E6D656E74005E00BC0077013A
:10421000000000003C1BA81CBE1AD71AC91A1A1BA2
:104220000D0A006E616E00696E66006F76660000B2
:107800000C94343C0C94513C0C94513C0C94513CE1
:107810000C94513C0C94513C0C94513C0C94513CB4
:107820000C94513C0C94513C0C94513C0C94513CA4
:107830000C94513C0C94513C0C94513C0C94513C94
:107840000C94513C0C94513C0C94513C0C94513C84
:107850000C94513C0C94513C0C94513C0C94513C74
:107860000C94513C0C94513C11241FBECFEFD8E036
:10787000DEBFCDBF11E0A0E0B1E0ECE9FFE702C060
:1078800005900D92A230B107D9F712E0A2E0B1E065
:1078900001C01D92AD30B107E1F70E942D3D0C945F
:1078A000CC3F0C94003C982F959595959595959582
:1078B000905D8F708A307CF0282F295A8091C0000B
:1078C00085FFFCCF9093C6008091C00085FFFCCF60
:1078D0002093C6000895282F205DF0CF982F809127
:1078E000C00085FFFCCF9093C6000895EF92FF92F1
:1078F0000F931F93EE24FF2487018091C00087FD22
:1079000017C00894E11CF11C011D111D81E4E8164B
:1079100082E4F8068FE0080780E0180770F3E09132
:107920000401F091050109958091C00087FFE9CF1E
:107930008091C6001F910F91FF90EF9008950E94D3
:10794000763C982F8091C00085FFFCCF9093C600B5
:1079500091362CF490330CF09053892F089597555D
:10796000892F08951F930E949F3C182F0E949F3CCF
:107970001295107F810F1F9108951F93182F882350
:1079800021F00E94763C1150E1F71F9108951F935A
:10799000182F0E94763C803249F0809103018F5F5E
:1079A000809303018530C1F01F9108958091C0003C
:1079B00085FFFCCF84E18093C6008091C00085FFE5
:1079C000FCCF1093C6008091C00085FFFCCF80E102
:1079D0008093C6001F910895E0910401F091050184
:1079E00009951F9108950E94763C803241F0809164
:1079F00003018F5F80930301853081F008958091AA
:107A0000C00085FFFCCF84E18093C6008091C00058
:107A100085FFFCCF80E18093C6000895E0910401CA
:107A2000F09105010995089540E951E08823A1F0FE
:107A30002D9A28EE33E0FA013197F1F721503040CA
:107A4000D1F72D9828EE33E0FA013197F1F7215064
:107A50003040D1F7815061F708953F924F925F9285
:107A60006F927F928F929F92AF92BF92CF92DF924E
:107A7000EF92FF920F931F93CF93DF93000080E16B
:107A80008093C4001092C50088E18093C10086E015
:107A90008093C2005098589A259A81E00E94143D24
:107AA00024E1F22E9EE1E92E85E9D82E0FE0C02ECA
:107AB00010E1B12EAA24A394B1E49B2EA6E58A2E50
:107AC000F2E57F2EE0E26E2E79E4572E63E5462E36
:107AD00050E5352E0E94763C8033B1F18133B9F107
:107AE000803409F46FC0813409F476C0823409F41B
:107AF00085C0853409F488C0803531F1823521F1A3
:107B0000813511F1853509F485C0863509F48DC0BC
:107B1000843609F496C0843709F403C1853709F423
:107B200072C1863709F466C0809103018F5F80932C
:107B30000301853079F6E0910401F0910501099582
:107B40000E94763C803351F60E94F33CC3CF0E94E2
:107B5000763C803249F78091C00085FFFCCFF092DF
:107B6000C6008091C00085FFFCCF9092C600809136
:107B7000C00085FFFCCF8092C6008091C00085FFC9
:107B8000FCCF7092C6008091C00085FFFCCF609250
:107B9000C6008091C00085FFFCCF5092C600809146
:107BA000C00085FFFCCF4092C6008091C00085FFD9
:107BB000FCCF3092C6008091C00085FFFCCFB09210
:107BC000C60088CF0E94763C863808F4BDCF0E945C
:107BD000763C0E94F33C7ECF0E94763C803809F4CC
:107BE0009CC0813809F40BC1823809F43CC1883942
:107BF00009F48FC080E00E94C73C6CCF84E10E94F2
:107C0000BD3C0E94F33C66CF85E00E94BD3C0E94D3
:107C1000F33C60CF0E94763C809306010E94763C44
:107C2000809307010E94F33C55CF0E94763C80333D
:107C300009F41DC183E00E94BD3C80E00E94C73C66
:107C400049CF0E94763C809309020E94763C809343
:107C5000080280910C028E7F80930C020E94763C79
:107C6000853409F415C18091080290910902892B8D
:107C700089F000E010E00E94763CF801E85FFE4FDA
:107C800080830F5F1F4F80910802909109020817AF
:107C9000190788F30E94763C803209F045CF809125
:107CA0000C0280FF01C16091060170910701660F0F
:107CB000771F7093070160930601A0910802B091AD
:107CC00009021097C9F0E8E0F1E09B01AD014E0F09
:107CD0005F1FF999FECF32BD21BD819180BDFA9A17
:107CE000F99A2F5F3F4FE417F50799F76A0F7B1F4B
:107CF00070930701609306018091C00085FFFCCF5F
:107D0000F092C6008091C00085FFFCCFB092C60003
:107D1000E1CE83E00E94C73CDDCE82E00E94C73CFA
:107D2000D9CE0E94763C809309020E94763C8093D3
:107D300008028091060190910701880F991F909386
:107D40000701809306010E94763C853409F4A6C0A1
:107D500080910C028E7F80930C020E94763C8032D0
:107D600009F0B8CE8091C00085FFFCCFF092C6002C
:107D7000609108027091090261157105B9F140E046
:107D800050E080910C02A82FA170B82FB27011C0E2
:107D9000BB2309F45CC0E0910601F0910701319624
:107DA000F0930701E09306014F5F5F4F46175707B7
:107DB000E8F4AA2369F3F999FECF209106013091E6
:107DC000070132BD21BDF89A90B58091C00085FFB2
:107DD000FCCF9093C6002F5F3F4F30930701209355
:107DE00006014F5F5F4F4617570718F38091C00099
:107DF00085FDE5CE8091C00085FFF8CFE0CE81E023
:107E00000E94C73C67CE0E94763C803209F08CCE3F
:107E10008091C00085FFFCCFF092C6008091C00029
:107E200085FFFCCFE092C6008091C00085FFFCCFAB
:107E3000D092C6008091C00085FFFCCFC092C600E2
:107E40008091C00085FFFCCFB092C60043CEE09188
:107E50000601F091070194918091C00085FFFCCF4D
:107E60009093C6009CCF80E10E94C73C33CE0E9415
:107E7000763C0E94763C182F0E94763C112309F430
:107E800083C0113009F484C08FE00E94C73C22CE29
:107E900080910C02816080930C02E5CE80910C02EF
:107EA000816080930C0259CF809107018823880F4D
:107EB000880B8A2180930B02809106019091070123
:107EC000880F991F90930701809306018091080203
:107ED00080FF09C080910802909109020196909359
:107EE000090280930802F894F999FECF1127E091D6
:107EF0000601F0910701C8E0D1E08091080290915D
:107F00000902103091F40091570001700130D9F34B
:107F100003E000935700E89500915700017001308D
:107F2000D9F301E100935700E89509901990009169
:107F3000570001700130D9F301E000935700E89534
:107F40001395103498F011270091570001700130FB
:107F5000D9F305E000935700E895009157000170B0
:107F60000130D9F301E100935700E895329602976A
:107F700009F0C7CF103011F00296E5CF112480919F
:107F8000C00085FFB9CEBCCE8EE10E94C73CA2CD19
:0C7F900085E90E94C73C9ECDF894FFCF0D
:027F9C00800063
:040000030000780081
:00000001FF
